:020000040000fa
:080000000020040000000000d4
:020000040000fa
:10000800082900002a2500006e250000b2250000fe
:10001800f62500003a2600000829000008290000fb
:100028000829000008290000082900000829000004
:100038003a24000008290000082900009a2400003a
:10004800c22400000829000008290000a828000090
:1000580008290000022400000829000008290000df
:1000680008290000082900000829000008290000c4
:1000780008290000082900000829000008290000b4
:10008800082900000829000008290000ea240000c7
:100098001625000008290000162700002c2800005b
:1000a8000829000008290000082900000829000084
:1000b8000829000008290000082900000829000074
:1000c8000829000008290000082900000829000064
:1000d8000829000008290000082900000829000054
:1000e8000829000008290000082900000829000044
:1000f8000829000008290000082900000829000034
:100108000829000008290000082900000829000023
:100118000829000008290000082900000829000013
:100128000829000008290000082900000829000003
:1001380008290000082900000829000008290000f3
:1001480008290000082900000829000008290000e3
:1001580008290000082900000829000008290000d3
:1001680008290000082900000829000008290000c3
:1001780008290000082900000829000008290000b3
:1001880008290000082900000829000008290000a3
:100198000829000008290000082900000829000093
:1001a8000829000008290000082900000829000083
:1001b8000829000008290000082900000829000073
:1001c8000829000008290000082900000829000063
:1001d8000829000008290000082900000829000053
:1001e8000829000008290000082900000829000043
:0801f80008290000082900009d
:020000040000fa
:10020800082900006026000084260000a8260000b7
:10021800cc260000f026000008290000082900006c
:100228000829000008290000082900000829000002
:100238003a24000008290000082900009a24000038
:10024800c22400000829000008290000a82800008e
:1002580008290000022400000829000008290000dd
:1002680008290000082900000829000008290000c2
:1002780008290000082900000829000008290000b2
:10028800082900000829000008290000ea240000c5
:100298001625000008290000162700002c28000059
:1002a8000829000008290000082900000829000082
:1002b8000829000008290000082900000829000072
:1002c8000829000008290000082900000829000062
:1002d8000829000008290000082900000829000052
:1002e8000829000008290000082900000829000042
:1002f8000829000008290000082900000829000032
:100308000829000008290000082900000829000021
:100318000829000008290000082900000829000011
:100328000829000008290000082900000829000001
:1003380008290000082900000829000008290000f1
:1003480008290000082900000829000008290000e1
:1003580008290000082900000829000008290000d1
:1003680008290000082900000829000008290000c1
:1003780008290000082900000829000008290000b1
:1003880008290000082900000829000008290000a1
:100398000829000008290000082900000829000091
:1003a8000829000008290000082900000829000081
:1003b8000829000008290000082900000829000071
:1003c8000829000008290000082900000829000061
:1003d8000829000008290000082900000829000051
:1003e8000829000008290000082900000829000041
:0803f80008290000082900009b
:020000040000fa
:10400000b11680000000230000806800b016880010
:1040100091168000f0ff2c00901688000000eb0045
:10402000c0ff8900d0ff8900e0ff8900020037004f
:10403000a0b60400010000006f14210020ef23004f
:104040000001880000000000b1168000000022007e
:1040500000806800b016880010000700e02e2b00da
:104060001100200018000700000020000000e00000
:10407000060032000000020000000000b1168000bf
:104080000000220000806800b0168800da200200dc
:10409000000000000040da000000fe004440a900db
:1040a000804123000000e0000300320000002000f7
:1040b000a00188004440a800000006008a1f780084
:1040c0008b1f7800000006009101880080047800b2
:1040d0000000eb001a003700e284440032a0b40074
:1040e0009905ba00e284440032a0b4009906ba00ef
:1040f000e284440032a0b4000006eb00476fde000b
:10410000fd07b200636ce10003003a00ebff07001b
:104110000000eb000a003700606ce10004003a0088
:10412000005deb008b05e900fdff3e000400370059
:104130006168e100010032000086eb000b0007001f
:1041400019c7ba001905ba000e04e00003003a00ce
:104150000a00e000e0ff3a0000000600fe07b2009f
:104160009e0188008a047800f5ff3700395dba00a7
:104170008b05e9000c003200295dba008b05e900cf
:10418000080032000c00e00003003a00e284440022
:1041900032a0b400f5ff370019ddba008b05e90045
:1041a000faff3a008904e800e184440032a0b40038
:1041b000000006000400fa0020002000f0058a003c
:1041c000600c2000303a880080042000203a8800eb
:1041d0003200200080072000a10920003374200055
:1041e00080497800814978008249780012002000d7
:1041f00060042000710520002374200080497800ad
:10420000814978008249780000000000113a80005e
:10421000000027008080600000002300808f500095
:10422000faff3a0000000000113a8000000220006e
:10423000008060000000e000fbff320042b6020098
:10424000010000000ce50200000000008260020096
:1042500001000000e8ae02000100000010af020003
:104260000100000094af0200010000003eaf020018
:104270000100000066af0200010000000ce5020032
:104280000000000070b50200010000000668020096
:1042900001000000088502000100000012ae0200cb
:1042a0000100000024ad02000100000000ac02008b
:1042b0000100000026aa0200010000002a9c020062
:1042c00001000000000f78001e0078000000e000f0
:1042d00012003200501e2d00801f7800702f020047
:1042e000000000008f87e9002a9c02000100000006
:1042f000000f78000ce50200000000001e007800ae
:104300000000e000f8ff3a0010212d00801f780027
:10431000702f0200000000008f87e900ac510200fe
:1043200001000000c0d92000104078000080fb0090
:10433000620060000000e00008003200c0d92000e8
:104340008040eb00014878002c580200010000007a
:10435000ac5102000100000017003700c0d9200056
:10436000104078000080fb00700060000000e0005a
:104370000b0032009653020001000000d8570200e3
:1043800001000000c0d92000104078008040780073
:104390000144a100c0d92000014878000600370080
:1043a000c0d92000104078000004e0000200320074
:1043b000ec3a020001000000900b21001040780050
:1043c0008080fb0000022000008060000000e00010
:1043d0000300320040002000304288000200370015
:1043e000300020003042880072a40200010000006a
:1043f0008000eb000000eb00c0e7020000000000be
:104400000ce502000000000010f881007000600060
:104410000000e0000a00320060232d00801f7800b9
:10442000702f0200000000008f87e900e0252d00ba
:10443000801f7800702f0200000000008f87e900c5
:104440000040eb0074950200010000000ce5020042
:104450000000000080c0b300d4e4020000000000af
:10446000108680000000e00004003a0050002000a8
:10447000108688006a49020001000000f80a020064
:1044800001000000f0172300c4e602000000000055
:104490002ad4020000000000d042a800d062a90087
:1044a000d082a8000000eb00f04788000000eb007d
:1044b000004888000000eb0010488800808f200032
:1044c0008040eb0001487800c09020001040780048
:1044d0000080fb0061006000004078000004e00004
:1044e00004003200808f20008040eb0001487800fb
:1044f00003003700808f200021c0b30001487800fe
:104500000ce5020000000000da5202000100000089
:1045100010f881002843020001000000716c800047
:10452000d0072000008060000000e000080032009a
:104530000e44020001000000906c80000000a0000a
:10454000906c880000c4b300006402000100000009
:1045500080ff810091062000810f5000130032007f
:1045600061092000810f5000040032003103200057
:10457000810f50000700320012003700b0262d00d6
:10458000801f7800702f0200000000008f87e90074
:104590001a00370010292d00801f7800702f0200ac
:1045a000000000008f87e90014003700502b2d0019
:1045b000801f7800702f0200000000008f87e90044
:1045c0000e00370080ff8100801f7800702e2d00c4
:1045d000801f7800702f020000000000e487570061
:1045e000208c200041c0b30001487800308c2000ae
:1045f00041c0b3000148780000000000be5d020029
:1046000001000000509120001040780080407800a8
:104610000134a0005091200001487800d0c2200051
:10462000104078000004e000040032000885020019
:104630000100000098ad020001000000c0922000bf
:1046400090407800e0052400014878001000200028
:10465000604288000000eb00004788000000eb008b
:10466000e0028a0020c1b300163b020001000000f6
:104670000ce50200000000001011800062006000e4
:104680000000e000020032002222a9000f003700e3
:1046900040438000e10f50000c003a00723b0200e2
:1046a00001000000100798001e009000e10f50006c
:1046b000030032001e009000e20f500003003a0099
:1046c00090c6b300163b020001000000e005240084
:1046d00090407800c09220001040780080cf5000b9
:1046e000020032007a400200010000000ce50200e6
:1046f000000000006258020001000000dc580200c7
:104700000100000010c0b300329f02000100000051
:104710000ce50200000000006c85020001000000b2
:104720000ce5020000000000303f02000100000024
:104730000ce502000000000000690200010000001a
:104740000ce5020000000000a16c800000002200c7
:10475000008060000000e000030032002a8a0200ae
:1047600001000000c2ff37000ce50200000000005d
:10477000eec8020000000000bdff37004ad0040070
:104780000000000036e5040000000000e27b0400a9
:10479000010000005cd0040000000000b4a8040088
:1047a00001000000d4d604000000000036d8040048
:1047b0000000000098d9040000000000eae10400b5
:1047c0000000000060db040000000000ead90400e3
:1047d0000000000090df0400000000000cdd040079
:1047e000000000000ee30400000000006ae4040082
:1047f00000000000309d040001000000ced0040045
:1048000000000000809fbe00821f78003400f80086
:1048100000002000a00188000400fa0000188000b9
:10482000100798000000eb00000f78000800370028
:104830001e009000900078001e00780000014000eb
:10484000a09e200000004100010878001e0fe80033
:104850001e007800e70f5000f5ff340085a0a90086
:104860000080fa003400f9004f0178004f00be00cc
:1048700000400600809fbe003400f80000002000c9
:10488000a00188000000fa000000eb00c04b880087
:1048900001008200f0ff200000806000d0508800fe
:1048a00011008200f0ff200000806000e0508800ce
:1048b00021008200f0ff200000806000f05088009e
:1048c00031008200f0ff200000806000005188006d
:1048d00041008200f0ff200000806000105188003d
:1048e00051008200f0ff200000806000205188000d
:1048f00061008200f0ff20000080600030518800dd
:1049000071008200f0ff20000080600040518800ac
:1049100010002000d04b880081e3a90021e3a9000a
:104920008480a9000080fa003400f9004f00be0026
:10493000004006003600f800809fbe00829fbe0047
:10494000849fbe00869fbe003400f8000000200057
:10495000a00188000000fa00a06002000100000031
:1049600084e0a9000080fa003400f9004f03be0083
:104970004f02be004f01be004f00be003600f900de
:10498000004006003600f800809fbe00829fbe00f7
:10499000849fbe00869fbe003400f8000000200007
:1049a000a00188000000fa008500a900d49202004e
:1049b000010000000080fa003400f9004f03be003f
:1049c0004f02be004f01be004f00be003600f9008e
:1049d000004006003600f800809fbe00829fbe00a7
:1049e000849fbe00869fbe003400f80000002000b7
:1049f000a00188000000fa008760a9001fe1a9005b
:104a0000700d2000dc620200010000000080fa004e
:104a10003400f9004f03be004f02be004f01be003c
:104a20004f00be003600f900004006003400f800d8
:104a3000881f780008002000a80188004f04780033
:104a40000000fa008780a9000080fa003400f90015
:104a5000004006003600f800809fbe00829fbe0026
:104a6000849fbe00869fbe003400f8000000200036
:104a7000a00188000000fa008020a900c0a3200047
:104a800010407800e14f500009003a0080692e0084
:104a9000801f7800702f0200000000008f87e9005f
:104aa000a000200026b6020001000000e9a2a90033
:104ab000c0a3200011c0b300014878000080fa00b4
:104ac0003400f9004f03be004f02be004f01be008c
:104ad0004f00be003600f900004006003600f80026
:104ae000809fbe00829fbe00849fbe00869fbe0046
:104af0003400f80000002000a00188000000fa0047
:104b00008060a900c0a3200010407800e14f500051
:104b100009003a00e06b2e00801f7800702f020021
:104b2000000000008f87e900a000200026b60200e8
:104b300001000000e9a2a900c0a3200011c0b30039
:104b4000014878000080fa003400f9004f03be00ed
:104b50004f02be004f01be004f00be003600f900fc
:104b6000004006003600f800809fbe00829fbe0015
:104b7000849fbe00869fbe003400f8000000200025
:104b8000a00188000000fa008040a900c0a3200016
:104b900010407800e14f500009003a00106e2e00de
:104ba000801f7800702f0200000000008f87e9004e
:104bb000a000200026b6020001000000e9a2a90022
:104bc000c0a3200011c0b300014878000080fa00a3
:104bd0003400f9004f03be004f02be004f01be007b
:104be0004f00be003600f900004006003600f80015
:104bf000809fbe00829fbe00849fbe00869fbe0035
:104c00003400f80000002000a00188000000fa0035
:104c10008080a900c0a3200010407800e14f500020
:104c200009003a0020702e00801f7800702f0200cb
:104c3000000000008f87e900a000200026b60200d7
:104c400001000000e9a2a900c0a3200011c0b30028
:104c5000014878000080fa003400f9004f03be00dc
:104c60004f02be004f01be004f00be003600f900eb
:104c700000400600809fbe003400f80000002000c5
:104c8000a00188000000fa00e023ef0080a0a90046
:104c9000c0a3200010407800e14f500001003a000e
:104ca000e9a2a900c0a3200011c0b3000148780008
:104cb0000080fa003400f9004f00be0000400600fa
:104cc000809fbe003400f80000002000a001880092
:104cd0000000fa008020a900c0a320001040780046
:104ce000e14f500001003a00e9a2a900c0a3200052
:104cf00011c0b300014878000080fa003400f900c8
:104d00004f00be0000400600809fbe003400f80047
:104d100000002000a00188000000fa008060a900c7
:104d2000c0a3200010407800e14f500001003a007d
:104d3000e9a2a900c0a3200011c0b3000148780077
:104d40000080fa003400f9004f00be000040060069
:104d5000809fbe003400f80000002000a001880001
:104d60000000fa008040a900c0a320001040780095
:104d7000e14f500001003a00e9a2a900c0a32000c1
:104d800011c0b300014878000080fa003400f90037
:104d90004f00be0000400600809fbe003400f800b7
:104da00000002000a00188000000fa008080a90017
:104db000c0a3200010407800e14f500001003a00ed
:104dc000e9a2a900c0a3200011c0b30001487800e7
:104dd0000080fa003400f9004f00be0000400600d9
:104de000809fbe003400f80000002000a001880071
:104df0000000fa00e023ef0080a0a900c0a320007b
:104e000010407800e14f500001003a00e9a2a900eb
:104e1000c0a3200011c0b300014878000080fa0050
:104e20003400f9004f00be00004006003600f800d4
:104e3000809fbe00829fbe00849fbe00869fbe00f2
:104e40003400f80000002000a00188000200fa00f1
:104e500000628000e0af020001000000a16180005c
:104e6000810f50002100360010c320001040780050
:104e70000004e00003003200000000000000000019
:104e80000000000020c3200011c0b30001487800da
:104e900020c420008040eb000148780090c9200029
:104ea0002062880080c42000f0618800060037007e
:104eb000f06180008040eb0001487800f0618000e4
:104ec0000000e800f0618800f161800080c92000e6
:104ed000808f5000f6ff390080c42000f061880008
:104ee000c0c320008040eb000148780020c32000b0
:104ef00010407800e14f50002200320020c3200013
:104f0000104078000004e0001b003a0020c320009d
:104f100011c0b3000148780020c420008040eb009d
:104f20000148780090c920002062880080c42000d9
:104f3000f061880006003700f06180008040eb00df
:104f400001487800f06180000000e800f06188000e
:104f5000f161800080c92000808f5000f6ff390089
:104f600080c42000f0618800c0c320008040eb00b6
:104f70000148780003003700000000000000000036
:104f80000000000090118000680060000000e00058
:104f90000d003a0090118000640060000000e00005
:104fa00009003a0090118000620060000000e000fb
:104fb00005003a00c0c3200090407800f0c4b30060
:104fc00080cf50000a003600b0118000004f7800fa
:104fd0003222a90020c3200061c0b300014878003c
:104fe000b06180000000e800b06188000b0037006d
:104ff000b0118000004f7800c0c32000104078003e
:105000008040e800c0c3200001487800f0618000c3
:105010001e4878000000e800f0618800e04b800046
:105020000062880090118000610060000000e000d4
:1050300087ff3a0087c0a9000080fa003400f90019
:105040004f03be004f02be004f01be004f00be0026
:105050003600f900004006003600f800809fbe00d0
:10506000829fbe00849fbe00869fbe003400f80071
:1050700000002000a00188000000fa0020c32000ea
:1050800010407800e54f500029003a0087e0a90061
:1050900020c42000104078000004e000120032001c
:1050a000d04780000000e800d047880020c42000de
:1050b000104078008040e90020c4200001487800ba
:1050c00020628000904078008180fb00a111880060
:1050d0000000e80020628800708c200011c4b3003a
:1050e0000148780012003700000000009111800094
:1050f00000102000008060000000e000fbff320094
:1051000097e0a90020c3200061c0b30001487800e7
:105110003342a90097e0a90087e0a900d722a9009f
:10512000e6ad02000100000087c0a90097c0a800fa
:105130000080fa003400f9004f03be004f02be00a9
:105140004f01be004f00be003600f90000400600cf
:10515000809fbe00821f78003400f800000020000d
:10516000a00188000000fa001011800062006000b9
:105170000000e000010032002222a900301180006e
:105180006043880050438000614380000141780003
:105190002185200082707800504380000000e800e4
:1051a0005043880050438000f30f50000300340048
:1051b0000000eb005043880004003700101180000d
:1051c000610060000000e000ecff3a002085200054
:1051d000104078008080fb0050438000808f50009a
:1051e00005003c000000eb00504388001000200048
:1051f000404388009560a9008560a9000080fa00fe
:105200003400f9004f0178004f00be000040060056
:105210000040da000000fe001200fa00600798006b
:1052200071079800020f98000022200010079800d4
:1052300020222000200798004022200030079800fc
:105240008022200040079800fe009000510798003f
:10525000d0c22000104078000004e00002003200bc
:105260000e089000580037008e089000300620008d
:10527000808f500003003600000000000000000096
:10528000000000006e00900060004000e20f50003f
:105290003f003e00f0058200e10f50000e0032009a
:1052a000b116800000202000008060000000e000b7
:1052b00001003a00d722a800002320001007980020
:1052c000202320002007980040232000300798006a
:1052d00080232000400798001e0090009000780076
:1052e00000002800008060000000e00007003a0095
:1052f0004e0090008000eb00010878001e00900036
:105300009000780001f0a000010878002e009000c5
:105310009000780000402000008060000000e00065
:1053200004003a002e0090009000780001a0a00038
:10533000010878008e089000010f780010003700f7
:10534000000000002e009000900078000010200067
:10535000008060000000e000faff32005e00900074
:10536000104078008080fb003e009000010878002b
:105370005e0090000000e800500798001e0fe90052
:105380001e0078000000e000edff3a000100370049
:1053900000000000000000009111800000202000ab
:1053a000008060000000e000fbff3a0010002000d9
:1053b00026b6020001000000d722a900e6ad0200d7
:1053c000010000000e0890000080fa0000000600b6
:1053d000800078001106b100030035009101b10092
:1053e00001003c000050a100000006000000fa008f
:1053f000401080000000d100614060000080fa0091
:10540000000006000600fa00404798001000200047
:10541000deb5020001000000c8af0200010000007c
:105420005200200003002000021f400003974800a4
:1054300008e2a900c8af020001000000be0f500042
:10544000ae8f580005003100411080000008200098
:10545000008060000000e000f5ff3a00411080008d
:1054600000082000008060000000e0000a00320018
:1054700008e2a90040108000801f7800d0f52d00c0
:10548000801f7800702f020000000000e4875700a2
:1054900000c0eb00cc00370041108000004020002d
:1054a000008060000000e000090032004010800031
:1054b000801f780020f82d00801f7800702f0200d8
:1054c00000000000e487570000c0eb00be0037007a
:1054d000803e200001002000008fbe000300370046
:1054e00010002000deb50200010000004010800026
:1054f000610060000000e000080032000081eb0065
:105500008081eb001e0f41005e9749001e00be0027
:10551000e00f5000e08f5800f1ff3a001e00be007f
:10552000e00f5000e08f580009003a004010800062
:10553000801f780020fa2d00801f7800702f020055
:1055400000000000e487570000c0eb009e00370019
:105550004e4090000080fb0010108800c8af020091
:10556000010000005200200003002000021f400044
:10557000039748000700370008e2a9001000200048
:10558000deb50200010000004e4090000080fb00ec
:1055900010108800c8af020001000000be0f5000cc
:1055a000ae8f580005003600411080000008200032
:1055b000008060000000e000efff3a004110800032
:1055c00000082000008060000000e0000d003200b4
:1055d00008e2a9004e4090008080fb00401080004f
:1055e000811f7800801f7800c0fc2d00801f78008c
:1055f000702f020000000000e687570000c0eb009b
:1056000071003700411080000040200000806000e1
:105610000000e0000900320040108000801f780088
:1056200020f82d00801f7800702f0200000000007d
:10563000e487570000c0eb0063003700803e200085
:1056400001002000008fbe00030037001000200082
:10565000deb5020001000000401080006100600023
:105660000000e000080032000081eb008081eb00c8
:105670001e0f41005e9749001e00be00e00f500063
:10568000e08f5800f1ff3a001e00be00e00f50000e
:10569000e08f580009003a0040108000801f780019
:1056a00020fa2d00801f7800702f020000000000fb
:1056b000e487570000c0eb0043003700803e200025
:1056c00001002000008fbe00030037001000200002
:1056d000deb502000100000041108000000024003f
:1056e000008060000000e000080032000081eb0054
:1056f0008081eb001e0f41005e9749001e00be0036
:10570000e00f5000e08f5800f0ff3a001e00be008e
:10571000e00f5000e08f580009003a004010800070
:10572000801f7800f0ff2d00801f7800702f02008e
:1057300000000000e487570000c0eb0022003700a3
:105740000071220001002000008fbe00030037001e
:1057500010002000deb502000100000041108000b2
:1057600000002800008060000000e0000800320017
:105770000081eb008081eb001e0f41005e97490025
:105780001e00be00e00f5000e08f5800f0ff3a000e
:105790001e00be00e00f5000e08f580009003a00e4
:1057a00040108000801f780030022e00801f78009b
:1057b000702f020000000000e487570000c0eb00db
:1057c000010037000040eb000080fa0000000600f6
:1057d0000000fa000622a8000080fa00000006007f
:1057e0000000fa000602a8000080fa00000006008f
:1057f0000200fa000642a800803e2000000f780058
:105800000300370010002000deb502000100000098
:1058100030108000640060000000e00004003200ee
:105820001e0fe9001e0078000000e000f5ff3a00be
:105830001e0078000000e00009003a0030108000ef
:10584000801f7800f0ff2d00801f7800702f02006d
:1058500000000000e48757000080eb0001003700e3
:105860000000eb000080fa00000006000000fa00d3
:10587000c01080000000d100614060000080fa008c
:10588000000006000600fa004047980010002000c3
:10589000deb5020001000000c8af020001000000f8
:1058a0005200200003002000021f40000397480020
:1058b00018e2a900c8af020001000000be0f5000ae
:1058c000ae8f580005003100c11080000008200094
:1058d000008060000000e000f5ff3a00c110800089
:1058e00000082000008060000000e0000a00320094
:1058f00018e2a900c0108000801f7800800b2e00e5
:10590000801f7800702f020000000000e48757001d
:1059100000c0eb00ca003700c1108000004020002a
:10592000008060000000e00009003200c01080002c
:10593000801f7800a00d2e00801f7800702f0200bd
:1059400000000000e487570000c0eb00bc003700f7
:10595000803e200001002000008fbe0003003700c1
:1059600010002000deb5020001000000c010800021
:10597000610060000000e000080032000081eb00e0
:105980008081eb001e0f41005e9749001e00be00a3
:10599000e00f5000e08f5800f1ff3a001e00be00fb
:1059a000e00f5000e08f580009003a00c01080005e
:1059b000801f7800800f2e00801f7800702f02005b
:1059c00000000000e487570000c0eb009c00370097
:1059d0004e4090000080fb0090108800c8af02008d
:1059e000010000005200200003002000021f4000c0
:1059f000039748000700370018e2a90010002000b4
:105a0000deb50200010000004e4090000080fb0067
:105a100090108800c8af020001000000be0f5000c7
:105a2000ae8f580005003600c1108000000820002d
:105a3000008060000000e000efff3a00c11080002d
:105a400000082000008060000000e0000a00320032
:105a500018e2a900c0108000801f7800800b2e0083
:105a6000801f7800702f020000000000e4875700bc
:105a700000c0eb0072003700c11080000040200021
:105a8000008060000000e00009003200c0108000cb
:105a9000801f780020122e00801f7800702f0200d7
:105aa00000000000e487570000c0eb0064003700ee
:105ab000803e200001002000008fbe000300370060
:105ac00010002000deb5020001000000c0108000c0
:105ad000610060000000e000080032000081eb007f
:105ae0008081eb001e0f41005e9749001e00be0042
:105af000e00f5000e08f5800f1ff3a001e00be009a
:105b0000e00f5000e08f580009003a00c0108000fc
:105b1000801f7800800f2e00801f7800702f0200f9
:105b200000000000e487570000c0eb00440037008d
:105b3000803e200001002000008fbe0003003700df
:105b400010002000deb5020001000000c11080003e
:105b500000002400008060000000e0000800320027
:105b60000081eb008081eb001e0f41005e97490031
:105b70001e00be00e00f5000e08f5800f0ff3a001a
:105b80001e00be00e00f5000e08f580009003a00f0
:105b9000c0108000801f780000142e00801f780045
:105ba000702f020000000000e487570000c0eb00e7
:105bb00023003700803e200001002000008fbe003f
:105bc0000300370010002000deb5020001000000d5
:105bd000c110800000002800008060000000e0008c
:105be000080032000081eb008081eb001e0f4100b5
:105bf0005e9749001e00be00e00f5000e08f580085
:105c0000f0ff3a001e00be00e00f5000e08f580089
:105c10000a003a00c0108000801f780040162e0055
:105c2000801f7800702f020000000000e4875700fa
:105c30001642a80000c0eb00010037000040eb0056
:105c40000080fa00000006000000fa001622a800fa
:105c50000080fa00000006000000fa001602a8000a
:105c60000080fa00000006000200fa001642a800b8
:105c7000803e2000000f7800030037001000200055
:105c8000deb5020001000000b0108000640060007a
:105c90000000e000040032001e0fe9001e00780042
:105ca0000000e000f5ff3a001e0078000000e00070
:105cb00009003a00b0108000801f780000142e0008
:105cc000801f7800702f020000000000e48757005a
:105cd0000080eb00010037000000eb000080fa00bc
:105ce00000000600000005003200f8009101880065
:105cf00080027800620040003549ba00e080480028
:105d00003204e0000410a700100032008301e90013
:105d10000e0032002549ba003204e0000410a7004a
:105d20000a0032008301e900080032000408a300e1
:105d3000eeff320015c9ba003204e0000410a700db
:105d4000020032008301e900e8ff3a003200f90066
:105d500000000600839f68000100e00002003d0093
:105d600060001000e08018000300e00002003d0029
:105d700060011100e0811900050007004f00e000fc
:105d800002003b0060001000e080180000000600e8
:105d90006022b800060220000000d0008180d200fe
:105da0000482d2008582d2000000a00002025200cc
:105db00083825a00030031000202420083824a00bb
:105dc0000000a1000603e900f3ff3a00000006000e
:105dd000efff07000400be0000000600e687470052
:105de0008e1f7800d0bf9f00e1bf9f000e003700dc
:105df0005fba970014407800efb99700934078009d
:105e00000201e900814f5000040032000080fb00d5
:105e10008180fb00010050000600370066875700b4
:105e2000041fe800030fe8000200e000f0ff3a0062
:105e30000000eb004f0778006f00b1000000060083
:105e40008001780002003700b15978000201e900b2
:105e50000200e000fcff3a0000000600800178002c
:105e600002003700815978000201e9000200e000d9
:105e7000fcff3a0000000600889fbe000004be0040
:105e8000050037000000fb00890078001b000700b8
:105e9000e10f400004003200384078000004e000c8
:105ea000f8ff3a000000eb004f04be0000000600bf
:105eb000881f780021fc2300efff07000004780012
:105ec00021fc2300a00020000c000700080078003f
:105ed0004f0478000000060021fc23000700370073
:105ee0000000fa0068815700cfb8970020fc23001b
:105ef0004e0007000080fa0000000600889fbe00e8
:105f000001047800b80090008084eb000118a30021
:105f10003a003200180190000198a30002003a00f4
:105f20000200e00035003a000190a0003104980022
:105f300080047800f90fb2000200e00002003a008d
:105f400028009000000c7800ea8f540005003a0009
:105f50000178a30003003a0088007800d0002000f8
:105f6000e6ff070018009000d8009000810f500055
:105f70000b0032000000e8001004980018007800c0
:105f800009487800000ce80011c0b30020ff23008e
:105f900001487800ea8f540018003a0005003700e5
:105fa0008800780009407800c60207008004780065
:105fb00012003700380090000088a3000f00320064
:105fc00018019000a80090004800900092fc070083
:105fd00098009000810f50000400320038009000bb
:105fe0000003b300300498008084eb000000eb0055
:105ff0001004980028009000000c78000900780038
:106000004f04be0000000600d00190000281510044
:106010004240a900030034001001780001497800d3
:106020000208e8000100780000000600f68747003b
:10603000889fbe008a9fbe008c9fbe008e1f780086
:1060400000057800a1b79f00020778008004eb00ec
:1060500090023700afb097008100e800a1b79f0021
:1060600051c2b300814f500003003a00afb0970017
:106070000004eb0011003700ba0090000000fb00a4
:106080000168a30007003200090178008000780051
:106090000a007800dcff07000000e00005003a007d
:1060a0007c0237008a00780094ff0700e10f40006f
:1060b000780232008904e800760237000100780097
:1060c00031417800d3c2b300834f51000c0032003d
:1060d00007003c00edc15100834f51000a0032001f
:1060e000ebc14100834f51000d003a00080037001a
:1060f00003c3b300834f510009003a000600370084
:106100000830a000edff37000800a000ebff3700cb
:106110000810a000e9ff37000820a000e7ff3700c3
:106120000818a300010032000800a1000838a300ed
:10613000010032000820a1008200fb000103b10031
:10614000e98f50000c003e00000178008000eb0059
:106150006a08b900b201fb000303b100808041006e
:10616000020078009201fb000303b100e98f5100a7
:10617000f7ff3600060037008000eb00a3c2b30033
:10618000834f510002003a00ce0078000000e80082
:106190008005eb00e2c2b300904f110009003a0005
:1061a00008e0a00064415100d04f1100030032000c
:1061b000000178000102780006003700ce05780063
:1061c0000000e80000017800090037006a58b900b3
:1061d0008085410002007800b201fb000303b1009a
:1061e000e98f5100f9ff360084007800f5ff370091
:1061f00032407800a2b79f00c3c6b300834f50005f
:10620000250032000f003c0032c6b300824f500020
:106210008800320004003c000004e000220232004a
:106220006b4151000f00370042c6b300824f50004f
:106230001700320065414100824f500094003a003f
:106240001300370032c7b300824f50001b003200ea
:1062500007003c0064415100824f500010003200a2
:106260000241e800824f500089003a000f003700d9
:1062700052c7b300824f50008a0032006341410090
:10628000824f500082003a00e0df9f000900370093
:10629000e0df9f00850037000840a000d4ff3700f2
:1062a000e0df9f000860a00080003700e0df9f0073
:1062b0000850a0000870a0007c003700e0df9f00bd
:1062c0004e007800000678000000e00001003a006f
:1062d0006cf223000c0178000000eb000100370095
:1062e0000000e800e24178000304e000fcff3a000f
:1062f000800678000b00e000030032008d8f55000f
:10630000010031008b0678008005eb008d8f500076
:10631000010036008d855000680464002a003a00b0
:10632000110037003a0090000068a3000700320017
:1063300009017800010220000a00780032ff0700fe
:106340000000e00006003a00060037008a007800ee
:1063500000022000e9fe0700e10f400001003200ca
:106360008904e8008b05e9000b00e000edff3a002e
:106370008085eb00140037003a0090000068a3000d
:10638000090032000c007800b000fb000006780025
:10639000090178000a0078001bff07000000e000f8
:1063a00008003a00080037008c0078003100fb003c
:1063b000010678008a007800d0fe0700e10f400057
:1063c000010032008904e8000d0078008006e90031
:1063d0000000e000e8ff3a000800e000ad013200f4
:1063e000110037003a0090000068a3000700320057
:1063f00009017800010220000a00780002ff07006e
:106400000000e00006003a00060037008a0078002d
:1064100000022000b9fe0700e10f40000100320039
:106420008904e8008b05e9000b00e000edff3a006d
:10643000980137004e017800cf91de00c81ade00c7
:106440004818dd004812de0004027000e4df9f00ff
:106450000848a300080032000404e00006003200ef
:10646000e14f420004003200f4df9f0082e79f000a
:106470002d00200002003700f2df9f001d002000e9
:10648000e2fd2f000f0141000206e80099ff3700ee
:10649000e0df9f00ecfd2f000f0646001d002000ee
:1064a00094ff3700e0df9f00080cb300080178007c
:1064b000020cb200700064000200e0000d003a001f
:1064c0000000e000020032004e06be00020037006d
:1064d0004e067800cfe6de00e00f5600e08f5e004b
:1064e0000a003d003800b30060061600e0861e007a
:1064f000060037000000e000020032004e06be0039
:10650000020037004e0678008006eb000b00e0002a
:1065100005003a008c8576000bf0a7008b05ea0099
:106520008b05e900cf5dde0088017800030cb20026
:10653000e3b79f0000042000808f51002300320049
:1065400003003c000300e000080032002d0037008b
:10655000000820006fb29700800f52000d0032003b
:10656000000c2000800f520026003a00e2f22300c7
:1065700010c0b30064014100b20f5600a28f5e004c
:106580001f0039000040e800ea4f5000f9ff3a00d0
:106590001b00370010c0b3000201200003002000e0
:1065a000820f5600838f5e0015003900441add000b
:1065b000cc11de00830172004411dd000040e800d0
:1065c000e84f5000f6ff3a000d00370010c0b3004e
:1065d0008200200003002000820f5600838f5e009f
:1065e00007003900431add00cd11de00830172007f
:1065f0004311dd000040e800eb4f5000f6ff3a0089
:10660000e0df9f006fd997000200fb008b0f500066
:1066100002003d00ebdf9f0003003700808f550034
:1066200001003d00800578000100e0000300320019
:1066300063006400010032008100e90008e8a30063
:10664000050032008b8f5000020034008b80500018
:10665000010037008000eb00efd997000300fb003a
:106660000002eb00d4b79f00808f5000020034007e
:1066700000805000d0b79f000828a30040003200df
:10668000610164000818a3000f0032003a00900076
:106690000068a30006003200b10220000200e00002
:1066a000010032008180e800090178000d00370008
:1066b000b00220000200e000010032000080e8008b
:1066c0008a0078000e0037000200e000100032005f
:1066d0003a0090000068a30007003200090178002a
:1066e000010220000a00780047fe07000000e000d9
:1066f00006003a00060037008a00780000022000f9
:10670000fefd0700e10f4000010032008904e800af
:106710005fb097000000e0005a003200bcb79f0055
:10672000cdb79f00800678003a0090000068a30073
:106730000700320009017800010320000a007800f8
:1067400031fe07000000e00006003a0006003700b6
:106750008a00780000032000e8fd0700e10f4000f8
:10676000010032008904e8008d06e900eeff3a00de
:10677000ddb79f003fb69700cfb6970041003700c6
:10678000dfb197000300e0001a0032000838a300d0
:1067900018003a00bcb79f00cdb79f008306780071
:1067a0003a0090000068a300070032000901780059
:1067b000010220000a00780013fe07000000e0003c
:1067c00006003a00060037008a0078000002200028
:1067d000cafd0700e10f4000010032008904e80013
:1067e0008d06e900eeff3a00ddb79f003fb6970047
:1067f000cfb69700610164000818a3000f003200b3
:106800003a0090000068a30006003200b1022000a8
:106810000200e000010032008180e80009017800f8
:106820000d003700b00220000200e000010032003d
:106830000080e8008a0078000e0037000200e000c7
:10684000100032003a0090000068a30007003200f8
:1068500009017800010220000a007800eafd070023
:106860000000e00006003a00060037008a007800c9
:1068700000022000a1fd0700e10f400001003200ee
:106880008904e8000b03e9006330b90000017800d7
:10689000b2b79f004233dd00e0f223000003430063
:1068a0008e01780093b79f000807780006047800ef
:1068b0005c0037008b05e900000420006fb29700f0
:1068c000800f52003800320003003c000400e0005a
:1068d000080032003e00370000082000efb09700ab
:1068e000808f500020003200000c2000808f50006c
:1068f00037003a000e48a300100032001802be0014
:106900000401be000c00be00f4b79f0085bf9f00cd
:106910001ffd0700e0df9f000000fb00cf80de00ce
:106920007fb297008fba97000401be00a400070051
:106930000006560081865e000700370018017800c7
:10694000110009000286d800a200200011000900f1
:106950000280d800e1df9f006fd997000243b000aa
:10696000e2df9f001a00370050f123000e58a30009
:106970000100320040f02300e1f2230081005400c6
:106980000c01be008100e900030033008301d10047
:106990000281d300fbff3700ef006100e0c0780008
:1069a000e1df9f000a0037000c00be00bfb1970076
:1069b0008301e900030033008100d1000080d3008f
:1069c000fbff3700674060000043b000e0df9f003e
:1069d000ba0090006fda97000400fb000168a30082
:1069e0000700320009017800800078000a00780072
:1069f00085fd07000000e00005003a0005003700b3
:106a00008a0078003dfd0700e10f400001003200e0
:106a10008904e8003fb0970063005000b0b79f00c2
:106a2000640454000b00e000a2ff3a000e0478005a
:106a30001fb797000838a30016003200dfb0970098
:106a40000100e00013003400010478003a009000d7
:106a50000068a3000700320009017800010220004d
:106a60000a00780068fd07000000e00006003a0018
:106a7000060037008a007800000220001ffd070092
:106a8000e10f4000010032008904e8000804e90039
:106a9000eeff3a002fb1970012407800e0df9f0030
:106aa0000004e0006bfd3a00090078004f07780011
:106ab0004f06be004f05be004f04be006f01b1007f
:106ac000000006000200fa00889fbe00a0ff9f00a1
:106ad00001047800380090000068a30033003a00f9
:106ae000e200600005003a000003b30030049800a3
:106af000110498000080eb002e003700d8049000ad
:106b00000900e00006003a0012002000e68057006d
:106b100048009000c0f907001904980023003700ce
:106b2000a80090000100e00008003a0051ff230097
:106b300021049800010c78002100200051049800e5
:106b4000110498000030a000300498001801900053
:106b5000a800900048009000aff9070028009000be
:106b60008080eb0011049800aff89700014878008e
:106b7000000ce8002ff89700ea4f50000b003a0095
:106b8000380090000088a30008003200180190002f
:106b9000a8009000480090009ff907000000eb005b
:106ba00010049800a8009000010c7800aff897003e
:106bb0000100fb004f04be000080fa000000060048
:106bc000020ab900001bb9000200b80081004200af
:086bd0008100430000000600f3
:020000040000fa
:106bd800496400006c6500002020000020000000cf
:106be80041630000717500006972000065000000d3
:106bf8004163000074690000766500002000000011
:106c0800476f00006e650000202000002000000093
:106c1800466900006e6900007368000020000000eb
:106c2800ecb50000f4b50000fcb5000004b60000a7
:106c38000cb600004453000032340000303100002c
:106c4800004900006e760000616c00006964000075
:106c5800206d000065730000736100006765000027
:106c6800206e0000756d0000626500007200000073
:106c78004f4b0000004300006869000070200000ce
:106c88006e6f0000742000007072000065730000d1
:106c9800656e000074000000435200004338000095
:106ca8002072000065610000642000006572000029
:106cb800726f00007200000044530000323400007c
:106cc80030310000204e00006f740000207000007a
:106cd80072650000736500006e74000000540000c7
:106ce800696d0000652000006f75000074200000c9
:106cf8006f66000020720000616e0000676500008a
:106d0800004300006c6f0000636b0000206e000001
:106d18006f74000020720000756e00006e6900003c
:106d28006e670000004300006c6f0000636b00009a
:106d3800207500006e72000065610000646100004b
:106d4800626c000065000000436c00006f63000087
:106d58006b2000004465000066610000756c00004f
:106d680074200000313900003730000000000000b6
:106d78003cb600003fb6000050b6000060b6000008
:106d880073b6000085b6000097b60000a8b60000ec
:106d98001eb6000025b600004b65000079200000f3
:106da8005072000065730000656e000074000000fa
:106db8004b65000079200000526500006a650000fc
:106dc8006374000065640000004f000076650000f1
:106dd80072660000696c00006c00000047720000d9
:106de8006f7500006e6400000056000049500000f6
:106df80000000000d0b60000dcb60000e9b60000d4
:106e0800f2b60000f9b6000025b600000048000000
:106e18006f6d000065000000426f00006f74000095
:106e28000043000072610000736800000053000016
:106e380079730000746500006d2000005061000047
:106e4800726100006d6500007465000072730000d7
:106e580000450000766500006e740000204c0000bc
:106e68006f67000000420000797000006173000045
:106e7800732000004b650000790000005472000088
:106e8800756300006b20000049440000000000000a
:106e98000ab700000bb7000010b7000015b70000d4
:106ea8001bb700002db7000037b7000042b700003d
:106eb800436100006e270000742000007265000026
:106ec80061640000206100006e6400002f6f000004
:106ed800722000007772000069740000653b0000b2
:106ee800200000004e6500007720000045450000a6
:106ef800505200004f4d00002062000065690000fc
:106f08006e670000204600006f7200006d6100008f
:106f18007474000065640000004e000065650000a0
:106f280064730000207400006f2000006265000098
:106f3800204600006f7200006d610000747400004c
:106f4800656400003b200000004800006f6d0000f1
:106f580065200000626c00006f6300006b20000079
:106f6800435200004320000066610000696c000085
:106f78007572000065200000286e0000656500003d
:106f880064730000206600006f7200006d610000ed
:106f980074740000696e0000673f0000293b000020
:106fa800200000004163000074690000766500005d
:106fb8002f42000075730000793b0000200000009c
:106fc80045450000505200004f4d0000204300008e
:106fd8005243000020660000616900006c750000e3
:106fe8007265000000730000746100007475000091
:106ff800732000003d20000025780000005b0000a1
:10700800333000006d0000000a0d00002a20000047
:10701800204900006e740000656c00006c69000077
:10702800747200006f6c00000020000050490000de
:10703800432000004350000055000000205200008b
:10704800616300006b200000436f00006e74000055
:10705800726f00006c6c0000657200002052000026
:107068006576000020250000642e000025640000dd
:107078002e2500006420000020250000730a00006f
:107088000d0000002a200000204300006f7000005f
:1070980079720000696700006874000020320000ff
:1070a80030310000302c0000203200003031000068
:1070b8003420000053630000756c00006c790000f8
:1070c80020530000696700006e6100006c2000001a
:1070d800436f00006d700000616e0000792e0000a3
:1070e80020530000637500006c6c000079200000dc
:1070f80069730000206100002072000065670000cd
:10710800697300007465000072650000640a00007d
:107118000d0000002a2000002074000072610000a9
:10712800646500006d610000726b0000206f000054
:107138006620000053630000756c00006c79000045
:1071480020530000696700006e6100006c20000099
:10715800436f00006d700000616e0000792e000022
:10716800204100006c6c000020520000696700009c
:107178006874000073200000526500007365000009
:1071880072760000656400000a0d0000002a000005
:10719800202000005370000065630000696600004d
:1071a8006963000061740000696f00006e7300007d
:1071b8002061000072650000207300007562000005
:1071c8006a65000063740000207400006f200000ee
:1071d80063680000616e00006765000020770000aa
:1071e80069740000686f000075740000206e00006c
:1071f8006f74000069630000652e00000a0d00002e
:10720800000a00000d20000020200000202a0000b5
:107218002a2a00002054000068650000207400003d
:10722800616e00006b200000737400006174000040
:107238006520000044490000534100004752000007
:1072480045450000442000006f6e00002036000015
:10725800206f00007220000038200000636f0000db
:107268006d70000061720000746d0000656e0000b2
:10727800740000000a0d00002020000020200000fb
:1072880038200000636f00006d700000617200001c
:10729800746d0000656e00007420000074720000b8
:1072a800756300006b200000636f00006e660000cd
:1072b800696700007572000061740000696f000062
:1072c8006e0000000a0d00002020000020200000b1
:1072d80036200000636f00006d70000061720000ce
:1072e800746d0000656e0000742000007472000068
:1072f800756300006b200000636f00006e6600007d
:10730800696700007572000061740000696f000011
:107318006e0000000a0d0000202000002020000060
:107328002054000068650000204d0000414900001d
:107338004e200000726500006c610000792000009a
:1073480073650000656d0000732000004252000064
:107358004f4b0000454e00000a0d0000000a0000d7
:107368000d200000202000002020000054680000ac
:10737800652000004d410000494e000020720000c9
:10738800656c0000617900002061000070700000e9
:10739800656100007273000020530000484f000030
:1073a80052540000454400000a0d0000000a000085
:1073b8000d2000002020000020200000546800005c
:1073c8006520000042410000434b0000555000007a
:1073d80020720000656c00006179000020730000d5
:1073e800656500006d73000020420000524f0000e8
:1073f8004b4500004e0a00000d0000000a0d000079
:1074080020200000202000002054000068650000b3
:1074180020420000414300004b550000502000006e
:10742800726500006c610000792000006170000046
:10743800706500006172000073200000534800006e
:107448004f52000054450000440a00000d0000009f
:107458000a0d0000202000002020000047720000d4
:107468006f7500006e640000204400006574000021
:1074780065630000746900006f6e000020690000f9
:10748800732000006e6f000074200000656e00001d
:10749800616200006c650000640000000a0d0000d5
:1074a8002020000020200000546800006520000013
:1074b800477200006f7500006e64000020420000f3
:1074c8006f6c0000742000005465000073740000a5
:1074d80020730000686f00007773000020610000cf
:1074e80020530000484f000052540000000a0000da
:1074f8000d20000020200000204100002052000044
:107508006573000069730000746900007665000007
:1075180020470000726f0000756e000064200000b4
:107528006973000020700000726500007365000038
:107538006e740000000a00000d20000020200000ea
:107548002041000020470000726f0000756e0000a7
:1075580064200000426f00006c7400002069000085
:10756800732000007072000065730000656e0000f3
:10757800740000000a0d00002020000020200000f8
:10758800477200006f7500006e640000696e0000ad
:107598006720000074790000706500002075000005
:1075a8006e6b00006e6f0000776e0000000a00002e
:1075b8000d2000002020000020410000204700008e
:1075c800726f0000756e000064200000697300008f
:1075d800206e00006f7400002070000072650000cb
:1075e800736500006e7400000a0d0000000a0000b8
:1075f8000d2000002020000020410000204700004e
:10760800726f0000756e000064200000426f000079
:107618006c74000020690000732000006e6f000089
:10762800742000007072000065730000656e000031
:10763800740a00000d0000000a0d00002020000060
:107648002020000041200000477200006f750000f4
:107658006e64000020660000617500006c74000014
:10766800206800006173000020620000656500006a
:107678006e200000646500007465000063740000fb
:1076880065640000000a00000d20000020200000b2
:107698002041000020470000726f0000756e000056
:1076a80064200000426f00006c7400002066000037
:1076b800617500006c7400002068000061730000b0
:1076c80020620000656500006e200000646500000f
:1076d800746500006374000065640000000a00001f
:1076e8000d20000020200000202000005468000029
:1076f80065200000484f0000542000005749000052
:10770800524500004420000042590000504100004a
:1077180053530000206b00006579000020690000c9
:1077280073200000726500006d6f00007665000030
:10773800640000000a0d0000202000002020000046
:107748002057000065200000736800006f77000074
:1077580020610000204800004f540000205700001e
:1077680049520000454400002042000059500000e2
:1077780041530000532000006b65000079000000b1
:107788000a0d00000a0d0000202000002020000043
:1077980000200000204d0000414900004e2000005c
:1077a800496400006c6500002073000074610000eb
:1077b80074650000000a00000d2000002020000071
:1077c8002054000068650000204d00004149000079
:1077d8004e200000726500006c61000079200000f6
:1077e8006170000070650000617200007320000085
:1077f8004e4f0000524d0000414c0000000a0000ae
:107808000d200000202000002054000068650000c2
:1078180020420000414300004b550000502000006a
:10782800726500006c610000792000006170000042
:107838007065000061720000732000004e4f000068
:10784800524d0000414c0000000a00000d200000cd
:10785800202000002054000068650000207200000d
:10786800656c000061790000732000006170000001
:10787800706500006172000020480000415200005d
:107888004420000057490000524500004400000011
:107898000a0d00002020000020200000546800008d
:1078a80065200000726500006c61000079730000bb
:1078b8002061000070700000656100007220000007
:1078c8006f7000006572000061740000696f00004d
:1078d8006e6100006c0a00000d0000000a0d000037
:1078e8000a200000202000002020000000200000c6
:1078f800204d0000414900004e2000004163000077
:107908007175000069720000652000007374000042
:1079180061740000650a00000d0000000d1b0000e6
:107928005b4b00002020000020540000727900000a
:1079380020320000207700006972000065200000f6
:1079480054680000657200006d69000073740000df
:107958006f720000000d00001b5b00004b20000050
:10796800202000005472000079200000322000001e
:107978007769000072650000204f000070740000f5
:107988006963000020200000202000002000000083
:107998000d1b00005b4b000020200000205400005d
:1079a800727900002035000020770000697200001d
:1079b800652000004f70000074690000632000001b
:1079c8002020000020200000000d00001b5b0000ac
:1079d8004b20000020200000476f0000696e000067
:1079e80067200000416300007469000076650000ac
:1079f8002032000020770000697200006520000036
:107a08004f70000074690000630000000d1b000047
:107a18005b4b000020200000204700006f69000039
:107a28006e67000020410000637400006976000062
:107a380065200000352000007769000072650000ad
:107a4800204f00007074000069630000000d000002
:107a58001b5b00004b20000020200000476f000047
:107a6800696e00006720000041630000746900002f
:107a7800766500002032000020770000697200005f
:107a88006520000054680000657200006d69000000
:107a9800737400006f720000000a00000d200000df
:107aa800202000002020000000200000204d0000c1
:107ab800414900004e20000041630000717500003c
:107ac80069720000652000002d3e0000204900007a
:107ad800646c0000652000002d2000004e6f00003f
:107ae8002054000072750000636b000020460000ff
:107af8006f7500006e640000202000002020000048
:107b0800202000002020000020200000000a0000a3
:107b18000d20000020500000756c00007365000007
:107b2800204400006574000065630000746500006f
:107b3800642c000020440000656c0000617900009e
:107b4800696e00006720000020200000202000004f
:107b58002020000020200000200000000a0d000066
:107b680020200000202000004d410000494e000068
:107b78002041000063740000697600006520000061
:107b88002d200000416c00006c200000436f0000b5
:107b98006d70000061720000746d0000656e000079
:107ba800747300002061000072650000204400002a
:107bb800727900000a0d0000000a00000d0a00009a
:107bc8000d200000202000002053000077690000ed
:107bd80074630000686900006e67000020420000be
:107be8006961000073200000746f000020540000d9
:107bf80068650000726d000069730000746f000012
:107c080072200000707200006f62000065200000a2
:107c1800566100006c750000650a00000d0a00003e
:107c28000d0000000a0d00000a0d000020200000d1
:107c38002020000020000000202000004d4100000e
:107c4800494e00002041000063740000697600007e
:107c5800652000002d3e000020490000646c0000f3
:107c6800652000002d20000054720000756300009c
:107c78006b200000476f00006e650000000a0000de
:107c88000d20000020200000204100006c7700003b
:107c98006179000073200000736800006f720000b3
:107ca800746500006420000063680000616e0000d5
:107cb8006e6500006c7300002028000068650000f5
:107cc80078200000382d0000312900002030000005
:107cd8007825000030320000580a00000d0000002e
:107ce8000a0d00002020000020200000416c000048
:107cf8007761000079730000207500006e70000045
:107d08006f77000065720000656400002063000062
:107d1800686100006e6e0000656c00007320000052
:107d28002868000065780000203800002d31000028
:107d3800292000003078000025300000325800006b
:107d48000a0d0000000a00000d200000202000009d
:107d5800204100006c77000061790000732000006a
:107d6800706f0000776500007265000064200000f5
:107d780063680000616e00006e6500006c730000af
:107d8800202800006865000078200000382d0000d9
:107d98003129000020300000782500003032000032
:107da800580a00000d0000000a0d00002020000005
:107db80020200000416c00006c2000006368000077
:107dc800616e00006e6500006c73000020610000a9
:107dd8007070000065610000722000006e6f000086
:107de800726d0000616c00000a0d0000000a0000be
:107df8000d2000002020000020500000726f0000bd
:107e08006265000073200000736800006f72000054
:107e18007465000064200000746f0000207000008a
:107e2800726f000062650000732f00006772000027
:107e38006f7500006e64000020280000686500006f
:107e480078200000382d0000312900002030000083
:107e58007825000030320000580a00000d000000ac
:107e68000a0d0000202000002020000050720000b1
:107e78006f6200006573000020730000686f0000e7
:107e88007274000065640000207400006f20000018
:107e9800677200006f7500006e6400002028000003
:107ea8006865000078200000382d000031290000a6
:107eb800203000007825000030320000580a000009
:107ec8000d0000000a0d0000202000002020000006
:107ed800507200006f6200006573000020610000ae
:107ee80072650000206e00006f770000206e0000b1
:107ef8006f7200006d6100006c0a00000d00000048
:107f0800202000004d410000494e000020410000a3
:107f18006374000069760000652000007374000037
:107f280061740000652000003520000077690000ba
:107f380072650000206f0000707400006963000023
:107f48000a0d000000200000204d000041490000fb
:107f58004e2000004163000074690000766500004f
:107f68002073000074610000746500002032000076
:107f78002077000069720000652000006f70000023
:107f880074690000630a00000d0000002020000052
:107f98004d410000494e000020410000637400007c
:107fa80069760000652000007374000061740000a9
:107fb800652000003220000077690000726500002b
:107fc8002074000068650000726d0000697300008d
:107fd800746f0000720a00000d0000000a0d000016
:107fe80020540000686500002042000079700000fd
:107ff8006173000073200000746900006d65000063
:1080080020680000617300002045000058500000ff
:1080180049520000454400002e2e00002e0a0000a0
:108028000d200000000a00000d200000506c000028
:10803800656100007365000020520000656d000056
:108048006f7600006520000074680000652000005d
:1080580054720000756300006b2e00002e2e000085
:108068000a0d0000000a00000d200000202a000070
:108078002a2a000020410000444300002046000056
:10808800414900004c45000044200000746f000086
:10809800206400006f20000061200000636f000072
:1080a8006e76000065720000736900006f6e000054
:1080b800207700006974000068200000696e0000e5
:1080c800203100006d730000000a00000d20000040
:1080d800202a00002a2a00002057000065200000fe
:1080e80068610000766500002061000020660000dd
:1080f800616900006c75000072650000206f000067
:108108006620000074720000756300006b5f000059
:10811800737400006174000065200000676f000040
:10812800696e000067200000416300007469000068
:1081380076650000000a00000d200000202a0000db
:108148002a2a00002057000065200000686100000e
:108158007665000020610000207300007461000053
:108168007465000020660000616900006c750000fd
:1081780072650000206f0000662000007472000025
:10818800756300006b5f0000737400006174000089
:108198006500000025300000327500002f00000047
:1081a80025300000327500003a000000253000003c
:1081b8003275000020000000253000003258000011
:1081c800000a00000d200000204b00006579000027
:1081d8002041000075740000686f0000757200008f
:1081e800697a0000656400002c2000004d41000001
:1081f800494e00002073000074610000746500009f
:1082080020250000730000000a0d00002020000057
:10821800627900007061000073730000206c000038
:1082280065760000656c00003a20000025730000a8
:1082380000200000205300002f4e00003a200000cc
:10824800004300006c6f0000636b000020730000a7
:108258007461000074750000733a00002025000066
:10826800730000000a0d00004279000070610000f0
:1082780073730000204b0000657900002064000043
:10828800657400006563000074650000643a0000ce
:10829800000a00000d200000203f00003f200000e1
:1082a800436100006e270000742000007265000022
:1082b8006164000020440000616c00006c610000f3
:1082c800732000006368000069700000202500002a
:1082d800730a00000d0000000a0d000020200000b5
:1082e8003f3f000020570000726f00006e670000db
:1082f80020440000616c00006c61000073200000e5
:10830800666100006d6900006c7900002063000060
:108318006f64000065200000307800002530000000
:10832800325800002020000020200000200a000011
:108338000d0000000a0d000020200000666100000a
:108348006d6900006c790000206300006f64000014
:108358006520000025750000202000002020000076
:1083680020200000200a00000d0000000a0d000077
:10837800202000002020000053680000656c0000e9
:108388006c20000020430000524300002d31000003
:10839800362000005665000072690000666900001a
:1083a800656400003a2000002530000034580000c1
:1083b800000a00000d20000020200000204b0000d3
:1083c800657200006e6500006c20000043520000da
:1083d800432d000031360000205600006572000071
:1083e8006966000069650000643a00002025000005
:1083f80030340000580000000a0d00002020000062
:108408002020000053680000656c00006c2000000c
:1084180020430000524300002d31000036200000a8
:1084280046610000696c000075720000653a000042
:10843800202000002530000034580000000a000009
:108448000d20000020200000204b00006572000075
:108458006e6500006c20000043520000432d0000b0
:108468003136000020460000616900006c7500008c
:10847800726500003a20000020250000303400001a
:10848800580000000a0d00002020000020200000f5
:108498005468000065200000426900006173000014
:1084a800205600006f6c00007461000067650000d2
:1084b8002025000030310000752e00002530000016
:1084c8003375000076200000697300002069000001
:1084d8006e20000065720000726f000072000000dc
:1084e8000a0d000020200000202000005468000031
:1084f80065200000426900006173000020560000fa
:108508006f6c0000746100006765000020250000a2
:1085180030310000752e0000253000003375000052
:108528007620000069730000204f00004b00000017
:108538000a0d0000202000002020000054680000e0
:1085480065200000505600004f4c000054350000d4
:10855800205400006573000074200000566f00006e
:108568006c7400002025000030310000752e0000da
:108578002530000033750000762000006973000084
:10858800206900006e20000065720000726f000014
:10859800720000000a0d00002020000020200000ca
:1085a8005468000065200000505600004f4c000041
:1085b800543500002054000065730000742000004a
:1085c800566f00006c740000202500003031000058
:1085d800752e00002530000033750000762000005d
:1085e80069730000204f00004b0000000a0d0000d6
:1085f8002020000020200000203100003020000052
:10860800766f00006c740000206300006861000051
:108618006e6e0000656c0000206e00006f6900003f
:1086280073650000200a00000d20000020200000d3
:108638002b200000003000003030000030300000f7
:1086480020300000303000003030000020200000d2
:1086580000250000303500007520000020000000d3
:108668000a0d000020200000202d0000200000003e
:108678000a0d0000202000002020000025750000c1
:10868800206f00006620000074680000652000006c
:1086980031300000207600006f6c0000742000006c
:1086a800507200006f620000652000004e6f0000ed
:1086b8006973000065200000566f00006c740000ac
:1086c800616700006528000073290000206f000022
:1086d80075740000206f0000662000005241000001
:1086e8004e470000452000002b2f00002d200000e1
:1086f80033350000306d0000760000000a0d0000e0
:1087080020200000202000005468000065200000a0
:10871800507200006f620000652000004e6f00007c
:108728006973000065200000566f00006c7400003b
:10873800616700006520000069730000204f000099
:108748004b200000000a00000d200000202000003f
:108758002025000075200000507200006f620000a4
:1087680065200000566f00006c740000616700000f
:108778006528000073290000206f00007574000050
:10878800206f000066200000524100004e470000a4
:1087980045200000382f000031300000207600000e
:1087a8006f6c000074200000546f00006c650000be
:1087b800726100006e630000652000006f660000b3
:1087c800202b00002f2d0000203100002076000013
:1087d8006f6c0000740000000a0d000020200000eb
:1087e800202000002575000020500000726f000056
:1087f80062650000205600006f6c00007461000084
:108808006765000028730000292000006f750000cc
:10881800742000006f66000020520000414e0000e6
:10882800474500002032000030200000766f00002d
:108838006c740000205400006f6c0000657200002a
:10884800616e000063650000206f00006620000074
:108858002b2f00002d20000032200000766f000032
:108868006c740000000a00000d20000020200000a9
:10887800205400006865000020500000726f00005e
:1088880062650000205600006f6c000074610000f3
:1088980067650000205400006f6c000065720000de
:1088a800616e00006365000020690000732000000d
:1088b8004f4b0000200000000a0d0000202000009f
:1088c800202000005468000065200000526100006c
:1088d8007720000031330000205600006f6c000044
:1088e8007461000067650000205400006f6c000090
:1088f80065720000616e0000636500002069000079
:10890800732000006f750000742000006f6600007f
:1089180020520000414e0000474500002c20000076
:1089280025300000317500002e250000303300008e
:1089380075760000000a00000d20000020200000cd
:108948002054000068650000205200006177000094
:108958002031000033200000566f00006c740000c6
:1089680061670000652000002530000031750000b7
:108978002e250000303300007576000020690000c5
:10898800732000004f4b0000200000000a0d00007b
:10899800202000002020000054680000652000000e
:1089a80035200000564f00004c540000204f0000b6
:1089b800707400006963000020500000756c0000ae
:1089c8007365000020690000732000006f750000c7
:1089d800742000006f66000020520000414e000025
:1089e800474500002025000030310000752e0000aa
:1089f800253000003375000076200000000a0000d2
:108a08000d200000202000002054000068650000b0
:108a1800204f0000707400006963000020500000bf
:108a2800756c00007365000020770000617300001a
:108a38002073000074750000636b0000206c000058
:108a48006f7700002025000030310000752e0000ef
:108a58002530000033750000200000000a0d0000da
:108a6800202000002020000054680000652000003d
:108a780035200000564f00004c540000204f0000e5
:108a8800707400006963000020500000756c0000dd
:108a98007365000020690000732000004f4b000040
:108aa8002025000030310000752e00002530000020
:108ab8003375000076200000000a00000d20000039
:108ac80020200000205400006865000020420000bb
:108ad8006961000073200000566f00006c7400008c
:108ae80061670000652000006e6f00006973000078
:108af800652000002b2000002530000031750000a3
:108b08002e25000030330000757600002c20000070
:108b1800000a00000d0a00000d20000020200000bf
:108b2800202a00002a2a000020540000686900005a
:108b38007320000054720000756300006b20000071
:108b480068610000732000002575000020630000a4
:108b58006f6d000070610000727400006d650000a8
:108b68006e740000732000002a2a00002a0a000000
:108b78000d0000002d200000253000003175000098
:108b88002e250000303300007520000069730000b6
:108b9800206900006e20000045520000524f00007e
:108ba80052200000000a00000d20000020200000d4
:108bb8002054000068650000204200006961000040
:108bc80073200000566f00006c740000616700009d
:108bd800652000006e6f00006973000065200000ca
:108be8002b25000030350000752c00002000000007
:108bf8002d20000025300000317500002e250000d2
:108c0800303300007520000069730000204f000019
:108c18004b200000000a00000d200000202000006a
:108c28002054000068650000204500004550000001
:108c3800524f00004d20000073650000656d000074
:108c4800732000004f4b00003b200000486f0000dd
:108c58006d650000206200006c6f0000636b00000f
:108c68002043000052430000207600006572000097
:108c78006966000069650000643b00002000000090
:108c8800616c00006c200000626c00006f630000e3
:108c98006b73000020760000616c000069640000be
:108ca800200000000a0d0000202000002020000005
:108cb8002020000020200000454500005052000000
:108cc8004f4d0000202200002573000022200000e4
:108cd800626c00006f6300006b2000006d61000093
:108ce800726b000065640000206900006e76000069
:108cf800616c000069640000200000000a0d00009b
:108d08002020000020200000507200006f62000048
:108d18006c6500006d200000776900007468000031
:108d28002045000045500000524f00004d3a000019
:108d3800200000000a0d0000202000002020000074
:108d4800466f0000726d00006174000074690000d5
:108d58006e6700002045000045500000524f00009b
:108d68004d3a0000200000000a0d00004361000099
:108d78006e27000074200000726500006164000026
:108d88002f77000072690000746500002048000019
:108d98006f6d000065200000626c00006f630000ca
:108da8006b3a00002030000078250000342e0000c7
:108db80034580000200000000a0d00004361000044
:108dc8006e270000742000006465000074650000d0
:108dd8006374000020320000384300003235000080
:108de800362f0000323800004335000031330000d0
:108df8002063000068690000703b0000200000004c
:108e08000a0d0000323400004643000031300000f3
:108e1800323500002028000031320000384b0000b5
:108e280042290000206400006574000065630000aa
:108e380074650000643b0000200000000a0d00007b
:108e4800323800004335000031330000202800008c
:108e5800363400004b420000292000006465000001
:108e68007465000063740000656400003b20000026
:108e7800000a00000d5500006e6b00006e6f0000c8
:108e8800776e00002045000045500000524f00005a
:108e98004d20000063680000697000003b2000005e
:108ea800000a00000d430000616e000027740000f6
:108eb800207700007269000074650000206e0000d1
:108ec80065770000204800006f6d000065200000f5
:108ed800626c00006f6300006b3a000020300000f5
:108ee80078250000342e00003458000020000000cf
:108ef8000a0d000025730000206200006c6f00005e
:108f0800636b0000206900006e760000616c000051
:108f1800696400003b200000000a00000d660000a4
:108f28006f7200006d6100007474000065640000d9
:108f3800204f00004b2c0000204800006f6d0000ff
:108f480065200000626c00006f6300006b20000069
:108f58007772000069740000746500006e200000dc
:108f6800000a00000d490000574300004f4c000064
:108f7800207700007269000074650000206300001b
:108f88006f6c00006c690000736900006f6e000070
:108f98003a200000307800002530000034580000e6
:108fa800000a00000d420000434c0000207700003a
:108fb8007269000074650000206300006f6c000097
:108fc8006c690000736900006f6e00003a200000b1
:108fd800307800002530000034580000000a0000f6
:108fe8000d540000726100006e7300006d6900008e
:108ff800742000004275000066660000657200007b
:1090080020460000756c00006c20000074690000a8
:109018006d650000206f0000757400003a200000a4
:10902800307800002530000034580000000a0000a5
:109038000d410000434b00002f4e0000414300004b
:109048004b200000746900006d650000206f00006f
:10905800757400003a2000003078000025300000c8
:1090680034580000000a00000d4d00006173000034
:10907800746500007220000054720000616e0000e8
:10908800736d00006974000020740000696d0000b1
:10909800652000006f750000743a00002030000061
:1090a8007825000030340000580000000a0d000048
:1090b800537400006f700000206300006f6e0000a2
:1090c80064690000746900006f6e0000207400007d
:1090d800696d0000652000006f750000743a00009b
:1090e80020300000782500003034000058000000cf
:1090f8000a0d0000526500006365000069760000f3
:1091080065200000446100007461000020740000c4
:10911800696d0000652000006f750000743a00005a
:10912800203000007825000030340000580000008e
:109138000a0d000049320000432000002575000098
:109148002052000065730000657400002073000061
:1091580075630000636500007373000066750000a6
:109168006c0000000a0d0000493200004320000096
:10917800257500002052000065730000657400002a
:1091880020660000616900006c6500006400000052
:109198000a0d000049320000432000002575000038
:1091a80000200000496e000073740000616c00002c
:1091b8006c65000064200000002000004f70000073
:1091c800656e000020200000202000002020000004
:1091d800002000002020000020540000423300003e
:1091e800204300004f4e0000202000000020000017
:1091f80020200000204500004e5f00005649000076
:109208005020000020200000002000002020000046
:10921800204500004e5f0000474e0000442000003b
:109228002020000000200000202000002045000031
:109238004e5f000041440000442000002020000050
:109248000020000020200000204500004e5f0000a4
:10925800455200005320000020200000002000009c
:1092680020200000204500004e5f0000444d000013
:109278004e2000002020000000200000456e000065
:10928800616200006c65000064200000002000009e
:109298004469000073610000626c000065640000ae
:1092a800000a00000d2000002020000020380000e7
:1092b8002d430000484100004e4e0000454c000080
:1092c800000a00000d20000020200000204a0000b5
:1092d80032310000202d0000204a00003233000007
:1092e800000a00000d200000202000002047000098
:1092f8004e440000204200004f4c00005420000063
:10930800000a00000d2000002020000020000000be
:109318000d20000020200000200000002b2b000062
:109328002b20000020200000005500004e4b0000bc
:1093380020200000005700004554000020200000b5
:10934800004400007279000020200000004f000057
:10935800706500006e20000000470000726e00007b
:1093680064200000004300006f6c000064200000cf
:1093780000570000617200006d200000002000000e
:1093880062610000646700006e640000666c0000a3
:10939800616700003a2000002530000032580000c4
:1093a8000a000000536800007274000020000000ea
:1093b800466c000074200000200000000a0d000028
:1093c800204f000073630000696c00006c610000ae
:1093d800746900006f6e000020640000657400006e
:1093e8006563000074650000642c000020530000d1
:1093f8007769000074630000686900006e67000008
:10940800207400006f200000547700006f200000d7
:109418007769000072650000204f0000707400003a
:1094280069630000000a00000d20000020200000f1
:10943800202a00002a2a000020570000652000008a
:10944800686100007665000020610000205400007b
:1094580050550000524100004d2000006572000088
:10946800726f0000720000000a0d0000202000004a
:10947800202000005450000055520000414d0000cb
:10948800207400006573000074730000206f0000f2
:1094980075740000204f00004b00000020200000e1
:1094a80020200000200000000a0d0000000a000033
:1094b8000d20000020200000204f000070650000f3
:1094c80072610000746900006e670000207500007a
:1094d8006e64000065720000205500004e630000b5
:1094e80068650000636b0000737500006d6d000017
:1094f80065640000206600006c610000736800006d
:10950800202d00003e2000002530000034780000a7
:10951800000a00000d200000202000002054000058
:109528006865000020250000303400007820000025
:1095380043680000656300006b200000537500005d
:109548006d20000068610000732000006265000063
:10955800656e0000207700007269000074740000d6
:10956800656e0000207400006f200000666c00002b
:1095780061730000680000000a0d00002020000050
:1095880020200000546800006520000025300000fd
:10959800347800002043000068650000636b000019
:1095a80020530000756d000020660000616900000e
:1095b8006c65000064200000666c000061730000a8
:1095c80068200000777200006974000065000000e0
:1095d8000a0d000020200000202000002575000052
:1095e80030200000766f00006c74000020630000db
:1095f800686100006e6e0000656c0000730a000070
:109608000d20000020200000200000000a0d0000ae
:109618000a0d000020200000202000002a2a000057
:109628002a20000045690000746800006572000087
:10963800206100002074000072750000636b000058
:10964800206900007320000070720000657300003c
:10965800656e0000742c0000206f0000722000006e
:1096680074680000652000004144000043200000a9
:10967800686100007320000066610000696c0000ea
:1096880065640000202a00002a2a00000a0d000054
:1096980000200000676e0000645f00007265000033
:1096a80074720000793a000020250000640a000066
:1096b800000a00000d2000002020000020530000b8
