:020000040000fa
:080000000020040000000000d4
:020000040000fa
:10400000b11680000000230000806800b016880010
:1040100091168000f0ff2c00901688000000eb0045
:10402000c0ff8900d0ff8900e0ff8900020037004f
:104030009c9d0400010000006f13210020ef23006d
:104040000001880000000000b1168000000022007e
:1040500000806800b016880010000700606029002a
:104060001100200015000700000020000000e00003
:10407000060032000000020000000000b1168000bf
:104080000000220000806800b0168800bc200200fa
:10409000000000000040da000000fe004440a900db
:1040a000804123000000e0000300320000002000f7
:1040b000a00188004440a80000000600910188008b
:1040c000800078000000eb0015003700e28040001f
:1040d00032a0b4009101ba00e280400032a0b400e6
:1040e0009102ba00e280400032a0b4000002eb006e
:1040f000472bde00f507b200602ce10004003a0017
:104100000059eb008301e900fdff3e000400370089
:104110006128e100010032000082eb00040007008a
:104120001101ba000200e000e8ff3a0000000600ba
:104130003159ba008301e9000c0032002159ba005c
:104140008301e900080032000400e00003003a00a7
:10415000e280400032a0b400f5ff370011d9ba0068
:104160008301e900faff3a008100e800e1804000a5
:1041700032a0b400000006000600fa002000200073
:10418000f0088a00600c2000303a8800800420008b
:10419000203a88003200200081072000a00920007a
:1041a0003374200081497800804978008249780082
:1041b00012002000610420007005200023742000fc
:1041c00081497800804978008249780043c7bf0060
:1041d00002c7b3008240600000c3b30080cf50002c
:1041e000faff3a0042c7bf000042b2000004e000fc
:1041f000fcff3200ea9c0200010000002eb0020029
:10420000000000007c3602000100000068940200fb
:10421000010000009a940200010000003a9502009b
:1042200001000000d294020001000000029502008b
:10423000010000002eb0020000000000109c0200ef
:104240000100000000470200010000001e7402008f
:10425000010000009893020001000000b8920200e3
:1042600001000000928d020001000000908b02000e
:10427000010000000e780200010000001007980005
:104280001e0090000000e0001200320070ed2c00d3
:10429000801f7800322c0200000000008f87e900a8
:1042a0000e78020001000000100798002eb00200f6
:1042b000000000001e0090000000e000f8ff3a003f
:1042c00030f02c00801f7800322c0200000000002b
:1042d0008f87e9003227020001000000c0d92000ca
:1042e000104078000080fb000000d10061006000f9
:1042f0000004e00008003200c1d920000040eb00bb
:1043000080487800d62d020001000000322702000c
:104310000100000018003700c0d9200010407800cc
:104320000080fb004400de00610060000004e0004b
:104330000b00320028290200010000008e2d02002f
:1043400001000000c0d9200090407800f0ceb300fa
:1043500080c06000c0d92000014878000600370006
:10436000c0d92000104078000004e00002003200b4
:10437000a205020001000000900b2100104078000f
:104380000080fb004500de00610060000004e000ea
:104390000300320040002000504288000200370035
:1043a00030002000504288007685020001000000a5
:1043b0008000eb000000eb002cb3020000000000c6
:1043c0002eb002000000000010f8810070006000b4
:1043d0000000e0000a00320080f22c00801f78000c
:1043e000322c0200000000008f87e90000f52c004d
:1043f000801f7800322c0200000000008f87e90047
:104400000040eb00f8700200010000002eb0020036
:104410000000000080c0b30004b0020000000000f3
:10442000108680000000e00004003a0050002000e8
:1044300010868800e61e02000100000006ec020063
:1044400000000000f01723002ab202000000000064
:10445000d042a800d062a900d082a8000000eb00e2
:10446000c04488000000eb00d04488000000eb004e
:10447000e0448800a19020000040eb0080487800d4
:10448000b0902000104078000080fb0061006000c8
:104490000004e00004003200a19020000040eb0086
:1044a0008048780003003700a190200020c0b300ae
:1044b000804878002eb0020000000000662802004c
:1044c0000100000010f881003c0e02000100000015
:1044d000706c8000d1072000010060000000e00047
:1044e00008003200360f020001000000906c8000ce
:1044f0000000a000906c880000c4b3000e3a0200d7
:104500000100000083ff810023079800900620002f
:10451000ae009000808f500015003200600920002e
:104520002e019000800f5100050032003003200062
:10453000ae019000808f510007003200120037005a
:10454000d0f52c00801f7800322c02000000000003
:104550008f87e9001900370030f82c00801f7800a1
:10456000322c0200000000008f87e90013003700a2
:1045700070fa2c00801f7800322c0200000000002e
:104580008f87e9000d00370080ff8100801f7800d1
:1045900090fd2c00801f7800322c020000000000eb
:1045a000e4875700818d200040c0b3008048780028
:1045b000918d200040c0b300804878006e33020027
:1045c00001000000609120001040780080407800d9
:1045d0000134a0006091200001487800d0c2200082
:1045e000104078000004e000040032001e74020055
:1045f000010000002e93020001000000c092200084
:1046000090407800200c2400014878001000200021
:10461000804288000000eb00204588000000eb008d
:1046200000068a0020c1b300ca0502000100000094
:10463000000037002eb002000000000022c2bf00c0
:10464000624060000004e000020032002222a90063
:104650000f00370080438000e10f50000c003a004b
:104660003006020001000000000f7800100020005a
:104670009e0f100003003200210020009e8f1000ca
:1046800003003a0090c6b300ca0502000100000012
:10469000200c240090407800c09220001040780048
:1046a00080cf500002003200820b020001000000a7
:1046b0002eb00200000000000a2e020001000000df
:1046c000822e02000100000010c0b3002a7b02000d
:1046d000010000002eb00200000000007e74020005
:1046e000010000002eb0020000000000320a0200ab
:1046f000010000002eb0020000000000024802008d
:10470000010000002eb0020000000000a06c80003c
:104710004d00de00610060000004e0000300320094
:10472000a87d020001000000c2ff37002eb0020089
:10473000000000005e96020000000000bdff370090
:10474000f89c04000000000058b0040000000000c5
:104750007e5b0400010000000a9d040000000000d0
:10476000b087040001000000d2a004000000000097
:1047700064a2040000000000eaa30400000000009e
:10478000beac040000000000cea504000000000044
:104790003aa404000000000024aa04000000000065
:1047a0007ca704000000000006ae0400000000002a
:1047b0009eaf0400000000001e790400010000000c
:1047c0007e9d0400000000000040da000000fe00b2
:1047d0001400fa006007980071079800020f980013
:1047e0000022200040079800202220003007980077
:1047f0004022200020079800802220001007980007
:104800007e009000000f7800d0c220001040780099
:104810000004e000030032000e089000100f980022
:10482000520037008e08900030062000808f500024
:10483000030036000000000000000000000000003f
:104840006e00900060004000e20f50003b003e0010
:10485000f0088200e10f50000d003200d7c2bf0007
:10486000624060000004e00001003a00d722a80086
:1048700000232000400798002023200030079800e4
:104880004023200020079800802320001007980074
:104890004e0090009040900000c8b30000c060003f
:1048a0000004e00008003a009e0090000000eb00c9
:1048b000800878004e0190009240900000c8b3003c
:1048c00000c07000104198003e0090001040900021
:1048d000644060000004e00004003a003e009000e4
:1048e000904090000124a000114098000e08900014
:1048f000500798000e0037003e00900010409000d6
:10490000614060000004e000fbff32001e00780000
:10491000104078008080fb002e0090000108780095
:104920001e0fe8005e0090000000e90050079800ac
:104930005e0090000000e000efff3a0033c2bf00cd
:10494000624060000004e000fcff3a00100020001c
:10495000829d020001000000d722a9007693020088
:10496000010000000e089000100f98001e08900033
:104970000080fa00000006003200f8009101880073
:104980008002780062004000e08048003549ba00ab
:104990003204e0000410a700100032008301e90097
:1049a0000e0032002549ba003204e0000410a700ce
:1049b0000a0032008301e900080032000408a30065
:1049c000eeff320015c9ba003204e0000410a7005f
:1049d000020032008301e900e8ff3a003200f900ea
:1049e000000006006022b800060220000000d0008f
:1049f0008180d2000482d2008582d2000000a00013
:104a00000202520083825a00030031000202420077
:104a100083824a000000a1000603e900f3ff3a0088
:104a200000000600efff07000400be0000000600c3
:104a3000839f68000100e00002003d00600010005c
:104a4000e08018000300e00002003d00600111005a
:104a5000e0811900e3ff07004f00e00002003b0087
:104a600060001000e080180000000600881f780039
:104a7000000478005001be004000be000400400069
:104a8000858048000601490087814900009cbe00de
:104a90000294be000400e1000588e1000690e100f8
:104aa0000798e10002003100680044001008e800a7
:104ab0004f04780000000600f4874700889fbe007e
:104ac0008a9fbe008c9fbe008e1f78000205be002c
:104ad0000004be00d4b79f00e5b79f00f6b79f0063
:104ae00087bf9f000000eb00c0b79f00b0b79f00da
:104af000a0b79f0090b79f0080b79f000d042000d3
:104b0000bfb097004fb09700000140000000e000e8
:104b10000f003d004f08de0000007100c0b79f008d
:104b20009e00070001003d0012002000a1000700c8
:104b300001003d0012002000a6000700b1000700a0
:104b4000b60007000f004000c8ff07002200370032
:104b50004f08de0000067100ccb79f008f000700f1
:104b600001003d00120020009200070001003d00fe
:104b70001200200097000700a20007000fb2970064
:104b80009fb297002fb39700bfb39700a90007000b
:104b90000000520081805a0002015b0083815b00ab
:104ba00080b79f0091b79f00a2b79f00b3b79f0047
:104bb0000007eb009f0007000020e10001a8e100d2
:104bc00002b0e10003b8e100010031001e00200046
:104bd0000e005600c0b79f004fb297000400e000df
:104be0000700350010002000010020006011b8000f
:104bf00008047000898470000a0571008b857100bb
:104c00008d06e900beff3a000400e00003003d000d
:104c1000820007000f00400094ff07004fa8970094
:104c20000000e00004003a000fb497009fb4970022
:104c30002fb59700bfb59700940007004f07780085
:104c40004f06be004f05be004f04be004f01b1002d
:104c500000000600881f780018002000881f7800d8
:104c600095ff07008f87e9004f04780000000600d9
:104c7000801feb0090ff07008f87e900000006000f
:104c8000889fbe008a9fbe008c1f78006e000700c0
:104c900007003d0073000700e00f5b00e08f5b0042
:104ca00007003d00320007000006eb00040037005b
:104cb0003400070002003d002a0007001c0020000d
:104cc00072000700e3ff07000203be000002be00ff
:104cd0000c00e00001003200220007000400be00ca
:104ce0000601be004f0678004f05be004f04be000f
:104cf00000000600889fbe008a9fbe008c1f7800bf
:104d00005100070005003d0056000700e00f5b0062
:104d1000e08f5b0006003d0004003700190007002b
:104d200003003d006000b8006011b80010000700eb
:104d300056000700ceff07000203be000002be00bf
:104d40000c00e00001003200060007000400be0075
:104d50000601be004f0678004f05be004f04be009e
:104d6000000006006000b8006011b80000003700c5
:104d700004025000858258000603590087835900b9
:104d8000000006000006eb00e00f5200e08f5a0022
:104d9000e00f5b00e08f5b00000006000180400038
:104da00090b79f000001eb008fb097000100e0007a
:104db000000006000200700090b79f0001804000d4
:104dc00080b79f000001eb00ffa897000100e00002
:104dd000000006000200700080b79f0001804000c4
:104de0006faa9700cf20de0001007000f0af9f0097
:104df00004024200250007004f18de000002720086
:104e000000000600e4af9f000804440089844c00c1
:104e10000a054d008b854d00000006003fb297004b
:104e2000cfb297005fb39700efb3970000fe2f005b
:104e3000000006003fb09700cfb097005fb1970029
:104e4000efb19700000006000205be000004be009e
:104e5000e00f5000e08f5800e00f5900e08f59003c
:104e6000000006006000b8006011b800080450009f
:104e7000898458000a0559008b8559001c002000c0
:104e8000e00f5200e08f5a00000006000800be004c
:104e90000a01be00000006000000fa0008c2bf00c0
:104ea0000080fb000000d100614060000080fb003a
:104eb0000080fa00000006000800fa004047980051
:104ec00010002000489d02000100000076950200bd
:104ed000010000005200200003002000021f4000db
:104ee0000397480008e2a90076950200010000003f
:104ef000be0f5000ae8f58000500310008c2bf0041
:104f000001c8b300014060000004e000f5ff3a0072
:104f100008c2bf0001c8b300014060000004e00007
:104f20000b00320008e2a90040108000801f7800ca
:104f3000f0cb2d00801f7800322c02000000000012
:104f4000e48757008081eb0033079800d1003700d9
:104f500009c2bf00644060000004e0000a003200a3
:104f600040108000801f780040ce2d00801f780008
:104f7000322c020000000000e48757000080eb00a4
:104f800030079800c3003700803e20000100200059
:104f9000008fbe000300370010002000489d020073
:104fa0000100000008c2bf00614060000004e00092
:104fb000080032000081eb008081eb001e0f4100f1
:104fc0005e9749001e00be00e00f5000e08f5800c1
:104fd000f1ff3a001e00be00e00f5000e08f5800c5
:104fe0000a003a0040108000801f780040d02d0059
:104ff000801f7800322c020000000000e487570078
:105000008081eb0033079800a20037004e409000eb
:105010000080fb001010880076950200010000005f
:105020005200200003002000021f400003974800a8
:105030000700370008e2a90010002000489d020088
:10504000010000004e4090000080fb00101088001e
:105050007695020001000000be0f5000ae8f580090
:105060000500360008c2bf0001c8b300014060005f
:105070000004e000efff3a0008c2bf0001c8b3001f
:10508000014060000004e0000e00320008e2a900c8
:105090004e4090000080fb0041108000801f78008f
:1050a000811f7800e0d22d00801f7800322c020092
:1050b00000000000e68757008081eb00330798006e
:1050c0007400370009c2bf00644060000004e000c3
:1050d0000a00320040108000801f780040ce2d0072
:1050e000801f7800322c020000000000e487570087
:1050f0000080eb003007980066003700803e2000fb
:1051000001002000008fbe000300370010002000c7
:10511000489d02000100000008c2bf00614060001d
:105120000004e000080032000081eb008081eb0009
:105130001e0f41005e9749001e00be00e00f5000a8
:10514000e08f5800f1ff3a001e00be00e00f500053
:10515000e08f58000a003a0040108000801f78005d
:1051600040d02d00801f7800322c0200000000008b
:10517000e48757008081eb00330798004500370033
:10518000803e200001002000008fbe000300370099
:1051900010002000489d02000100000009c2bf006d
:1051a0000044b2000004e000080032000080eb0080
:1051b0008080eb001e0f40005e9748001e00be007e
:1051c000e00f5000e08f5800f1ff3a001e00be00d3
:1051d000e00f5000e08f58000a003a0040108000b5
:1051e000801f780010d62d00801f7800322c02001e
:1051f00000000000e48757008080eb003107980032
:10520000240037000071220001002000008fbe0042
:105210000300370010002000489d0200010000003c
:1052200009c2bf0001c8b300014060000004e000f3
:10523000080032000081eb008081eb001e0f41006e
:105240005e9749001e00be00e00f5000e08f58003e
:10525000f0ff3a001e00be00e00f5000e08f580043
:105260000a003a0040108000801f780050d82d00be
:10527000801f7800322c020000000000e4875700f5
:105280008081eb0033079800020037000000eb003c
:10529000300798003e0090000080fa0000000600f1
:1052a0000000fa000622a8000080fa0000000600b4
:1052b0000000fa000602a8000080fa0000000600c4
:1052c0000400fa000642a800803e2000000f78008b
:1052d0000300370010002000489d0200010000007c
:1052e00006c2bf00644060000004e000030032001a
:1052f0001e0fe9001e00e000f6ff3a001e00e0006d
:105300000a003a0030108000801f780010d62d006f
:10531000801f7800322c020000000000e487570054
:105320000080eb0010079800020037000000eb003f
:10533000100798001e0090000080fa000000060090
:105340000000fa0018c2bf000080fb000000d1007e
:10535000614060000080fb000080fa000000060051
:105360000800fa004047980010002000489d020005
:1053700001000000769502000100000052002000ac
:1053800003002000021f40000397480018e2a90014
:105390007695020001000000be0f5000ae8f58004d
:1053a0000500310018c2bf0001c8b3000140600011
:1053b0000004e000f5ff3a0018c2bf0001c8b300c6
:1053c000014060000004e0000b00320018e2a90078
:1053d000c0108000801f7800a0e12d00801f7800a1
:1053e000322c020000000000e48757008081eb00af
:1053f00033079800cf00370019c2bf006440600037
:105400000004e0000a003200c0108000801f780015
:10541000c0e32d00801f7800322c02000000000045
:10542000e48757000080eb0030079800c100370088
:10543000803e200001002000008fbe0003003700e6
:1054400010002000489d02000100000018c2bf00ab
:10545000614060000004e000080032000081eb00c1
:105460008081eb001e0f41005e9749001e00be00c8
:10547000e00f5000e08f5800f1ff3a001e00be0020
:10548000e00f5000e08f58000a003a00c010800082
:10549000801f7800a0e52d00801f7800322c0200cc
:1054a00000000000e48757008081eb00330798007c
:1054b000a00037004e4090000080fb009010880054
:1054c0007695020001000000520020000300200039
:1054d000021f4000039748000700370018e2a900a8
:1054e00010002000489d0200010000004e40900086
:1054f0000080fb00901088007695020001000000fb
:10550000be0f5000ae8f58000500360018c2bf0015
:1055100001c8b300014060000004e000efff3a0062
:1055200018c2bf0001c8b300014060000004e000e1
:105530000b00320018e2a900c0108000801f780024
:10554000a0e12d00801f7800322c02000000000036
:10555000e48757008081eb0033079800750037001f
:1055600019c2bf00644060000004e0000a0032007d
:10557000c0108000801f780040e82d00801f780058
:10558000322c020000000000e48757000080eb008e
:105590003007980067003700803e2000010020009f
:1055a000008fbe000300370010002000489d02005d
:1055b0000100000018c2bf00614060000004e0006c
:1055c000080032000081eb008081eb001e0f4100db
:1055d0005e9749001e00be00e00f5000e08f5800ab
:1055e000f1ff3a001e00be00e00f5000e08f5800af
:1055f0000a003a00c0108000801f7800a0e52d004e
:10560000801f7800322c020000000000e487570061
:105610008081eb003307980046003700803e200071
:1056200001002000008fbe000300370010002000a2
:10563000489d02000100000019c2bf000044b200f2
:105640000004e000080032000080eb008080eb00e6
:105650001e0f40005e9748001e00be00e00f500085
:10566000e08f5800f1ff3a001e00be00e00f50002e
:10567000e08f58000a003a00c0108000801f7800b8
:1056800020ea2d00801f7800322c0200000000006c
:10569000e48757008080eb00310798002500370031
:1056a000803e200001002000008fbe000300370074
:1056b00010002000489d02000100000019c2bf0038
:1056c00001c8b300014060000004e000080032009f
:1056d0000081eb008081eb001e0f41005e974900c6
:1056e0001e00be00e00f5000e08f5800f0ff3a00af
:1056f0001e00be00e00f5000e08f58000b003a0083
:10570000c0108000801f780060ec2d00801f7800a2
:10571000322c020000000000e48757001642a80067
:105720008081eb0033079800020037000000eb0097
:10573000300798003e0090000080fa00000006004c
:105740000000fa001622a8000080fa0000000600ff
:105750000000fa001602a8000080fa00000006000f
:105760000400fa001642a800803e2000000f7800d6
:105770000300370010002000489d020001000000d7
:1057800016c2bf00644060000004e0000300320065
:105790001e0fe9001e00e000f6ff3a001e00e000c8
:1057a0000a003a00b0108000801f780020ea2d0027
:1057b000801f7800322c020000000000e4875700b0
:1057c0000080eb0010079800020037000000eb009b
:1057d000100798001e0090000080fa0000000600ec
:1057e0008001eb0002003700817178008301e8003e
:1057f000828f5100fcff3a00000006000400fa000e
:10580000e0bf9f00e4815700812978000002eb008f
:105810000f0037006fb89700904078007fb897006e
:10582000104078000402e80080cf500004003200ed
:105830008180fb000080fb000080500007003700e3
:105840006fb897000000e800e0bf9f009309e800f0
:10585000820f5200efff3a000000eb000080fa00d8
:10586000000006000000fa00cfb8970068815700da
:1058700060072400020007000080fa000000060014
:10588000fe874700889fbe008a9fbe008c9fbe0097
:105890008e1f7800f0b79f000107780082bf9f003d
:1058a0000000eb00a0b79f009f0237008006eb00ce
:1058b00050c2b30080cf5000090032000100fb004d
:1058c000ffb09700a3020700e10f400096023200ec
:1058d000afb097008100e800a1b79f0092023700a7
:1058e0009e407800d0c2b30080cf50000c00320040
:1058f00007003c006d40500080cf50000a0032008d
:105900006b40400080cf50000e003a000800370086
:1059100000c3b30080cf50000a003a0006003700f1
:105920000d30a000050037000d00a0000300370077
:105930000d10a000010037000d20a0000e07e800a8
:10594000e7ff37000d18a300010032000d00a10091
:105950000d38a300010032000d20a1000100fb0062
:1059600002fd2f0002004000e90f50000e003e0033
:105970000002eb00c4b79f0082017800cfb297000d
:105980006a28b9001e01fb0000014100030141002b
:10599000c2b79f005e00fb0003004000e90f50000b
:1059a0000b003e00f5ff37000006eb00ccb79f0070
:1059b000a0c2b30080cf500005003a000fb8970096
:1059c000c000780080bf9f00c1b79f000e07e800ad
:1059d0000001eb00b2b79f00e0c2b3009e4f100081
:1059e00018003a000de0a0008e00e800644050006e
:1059f000914f100002003200010778000c003700c0
:105a00000fba9700c402780084bf9f00b5b79f000b
:105a10000e87e8000b0037003fb697006a60b900b8
:105a20000000410003004000b0b79f000e07e800ef
:105a30001e01fb0003fd2f0003004100e90f500091
:105a4000f5ff3600be407800e1d79f00c0c6b30026
:105a500080cf5000220032000f003c00694050000f
:105a600080cf50007700320004003c000104e000c9
:105a7000310232006b4050000f00370040c6b300c7
:105a800080cf5000930032006540400080cf50002e
:105a90008b003a008f00370030c7b30080cf500032
:105aa0001a00320007003c006440500080cf5000d4
:105ab000110032000040e80080cf500080003a0022
:105ac0000f00370050c7b30080cf50008000320075
:105ad0006340400080cf500079003a000900370051
:105ae000000028000d48a30001003a00000120003a
:105af00080867600d3ff37000d60a0007500370068
:105b00000d50a0000d70a000720037008fb89700f4
:105b10004100780081bf9f00000478000000e00091
:105b200001003a00e80324008004eb000100370084
:105b30008104e80089007800088044001004e00037
:105b4000fbff3a003fb197000200e0000300320083
:105b5000890f510001003100820478000002eb003f
:105b6000e4af9f00cfb29700898f52000200360049
:105b700009805200e0af9f004368de00e10660004c
:105b80001b003a000d06780009003700ffb09700af
:105b900000022000ef010700e10f40000300320087
:105ba0002fb097000000e800a0b79f000c06e800a7
:105bb000efa89700810f5600f4ff3a000081eb0038
:105bc000e2af9f000a003700880078003100fb0038
:105bd00001047800ffb09700de010700e10f4000ec
:105be000030032002fb297000402e800a4b79f0020
:105bf0000900e90080047800e10f4000f2ff3a005c
:105c00000006eb000d00e0000a003a00c601370074
:105c1000ffb0970000022000ce010700e10f400016
:105c200003003200afb297008502e800a5b79f00dd
:105c30000c06e8006fa89700800f5600f4ff3a00aa
:105c4000b90137008fb897004100780081bf9f00ed
:105c5000cf80de0001017800820178000205be00dd
:105c60000004be000203be000002be004822de00a7
:105c7000482edd0004027600e4d79f000d48a30003
:105c80000a0032000404e00008003200e14f420044
:105c90000600320071fd2f000180470004487800a3
:105ca000184098002900200002003700f0d79f001c
:105cb0001900200072fd2f0002844700a1ff370069
:105cc00064fd2f0004844700190020009dff370069
:105cd0000d0cb3000d007800000cb20028003a0053
:105ce0000d00e00005003d008fba97004505be009d
:105cf0004504be0085bf9f00140037000d48a30077
:105d00000b0032000fbe97004c00be008cbf9f00fe
:105d10004f89de00cf91de000002be000203780052
:105d2000820378000605be000404be0007003700a9
:105d30008fb897004100780081bf9f000004780071
:105d4000cfc4de00090578008a057800e00f540012
:105d5000e08f5c00e00f5d00e08f5d001f003d0004
:105d60003d00b3006000b8006011b80008045000a6
:105d7000898458000a0559008b855900170037009f
:105d80000d00e00005003d000fb997004205be0080
:105d90004204be0082bf9f00100037000d48a300e0
:105da000070032000fba97004400be0084bf9f0076
:105db0006011b8000205be000004be0007003700f5
:105dc0008fba97004500780085bf9f0000047800d7
:105dd000090020000a0020000b0020003fb69700b9
:105de0000c00e00007003a00e00f5400e08f5c0078
:105df000e00f5d00e08f5d0002003a00100020001f
:105e0000b0b79f008d007800010cb200e1b79f0091
:105e100000042000808f50003000320003003c005e
:105e20000100e000080032004000370000082000b8
:105e30006fb19700800f510014003200000c200059
:105e4000800f510039003a0014c0b30045f0230020
:105e50000b0037000400fb004300dd00050040009c
:105e60005001be004000be000040e10001c8e1005a
:105e700002d0e10003d8e1002b0039000442e80021
:105e8000f44f5200f3ff3a002700370000012000d2
:105e9000010020006011b80014c0b3000040e10010
:105ea00001c8e10002d0e10003d8e1001e00390082
:105eb000450020000000d0008180d2000281d20085
:105ec0008381d2008502e900faff3a000442e8002b
:105ed000f04f5200f1ff3a0013003700800020001d
:105ee000010020006011b80014c0b3000040e100c0
:105ef00001c8e10002d0e10003d8e1000a00390046
:105f00003c0020000000d0008180d2000281d2003d
:105f10008381d2000c06e900faff3a000442e8004f
:105f2000f54f5200f1ff3a00e4d79f00efd0970001
:105f30000100fb003fb19700820f500002003d00be
:105f4000e2d79f00040037003fb29700800f520055
:105f500001003d00b0b79f00cfb297000500e00000
:105f60000400320063806600020032008502e9000e
:105f7000c5b79f000de8a3000b0032004fb6970095
:105f80003fb09700800f560003003c008000eb00fc
:105f9000c1b79f00040037004fb197003fb2970090
:105fa00004015100c2b79f00efd297000500fb002b
:105fb0000006eb00dcaf9f00cfb09700808f500051
:105fc0000200340000805000d0af9f000d28a300d5
:105fd00037003200e18066000d18a3000c0032008b
:105fe000d00220000100e00001003a000080e9003a
:105ff000ffb09700d7000700e10f40000e0032000d
:106000002fb197000201e800a2b79f000a003700f5
:106010000100e00008003200ffb0970000022000fd
:10602000cc000700e10f4000030032002fb29700c0
:106030000402e800a4b79f00dfaa97000500e00073
:106040000f0032000006eb00ffb0970000032000b5
:10605000c0000700e10f4000030032002fb097009e
:106060000000e800a0b79f000c06e800dfa897003a
:10607000810f5600f4ff3a000001eb00d2af9f0001
:106080003fb29700c320dd00c0ef230080804000b6
:1060900091b79f004220dd006400500080b79f0050
:1060a0006320b900f0af9f00630650008400370002
:1060b000dfaa97000500e00011003200688066004a
:1060c0000f003a0000067800ffb0970000022000a1
:1060d000a0000700e10f4000030032002fb097003e
:1060e0000000e800a0b79f000c06e800dfa89700ba
:1060f000810f5600f4ff3a000001eb00d2af9f0081
:10610000e18066000d18a3000c003200d0022000d0
:106110000100e00001003a000080e900ffb09700b4
:106120008c000700e10f4000d5ff32002fb297002e
:106130000402e800a4b79f00d1ff37000100e0008f
:10614000cfff3200ffb0970000022000810007005f
:10615000e10f4000caff3200afb297008502e800ad
:10616000a5b79f00c6ff370000042000efb09700de
:10617000808f50003100320003003c000100e0003d
:10618000080032003e003700000820006fb1970081
:10619000800f510011003200000c2000800f5100d0
:1061a00037003a001fb097003002be002003be0047
:1061b0000800be000a01be00a6fa0700a4002000e5
:1061c000050020006033b800a9fa070004c3b3003b
:1061d00004424000e4d79f00290037005504240002
:1061e000d5b79f000d58a30002003a0060052400b7
:1061f000d0b79f0014002000050020006033b800d5
:106200008fb097008100e900050033000402d00040
:106210008582d2000683d2008783d200f9ff37003f
:106220000800be000a01be008afa07006f00600085
:106230005fb1970062407800100037001400200022
:10624000050020006033b8000c0078000000e90071
:10625000050033000402d0008582d2000683d200fc
:106260008783d200f9ff37000800be000a01be0094
:1062700078fa0700674060000043b000e0d79f0055
:10628000efd097000100fb00ffb09700310007003e
:10629000e10f4000030032002fb197000201e80037
:1062a000a2b79f001fb297006802520094b79f00e8
:1062b0008fb29700e482520085b79f0063065600b4
:1062c000d0ff2f003fb197000090b9007faa970040
:1062d0000000420063005000800f5600a2ff3a0009
:1062e0000d38a30010003200dfaa97000500e0007f
:1062f0000d0034000006eb00ffb097000002200004
:1063000014000700e10f4000030032002fb0970097
:106310000000e800a0b79f000c06e800dfa8970087
:10632000810f5600f4ff3a00be407800e1d79f008d
:106330000104e0005dfd3a002fb097004f077800a0
:106340004f06be004f05be004f04be00ef01b10076
:1063500000000600889fbe0000017800010478005c
:10636000b10090000118a3003d0032000198a30085
:1063700003003a00180090000000e00038003a00e6
:106380000190a0003104980082047800f90fb20057
:10639000180090000000e00002003a002800900081
:1063a000000c7800ea8f540006003a003800900094
:1063b0000078a30003003a0088007800d000200095
:1063c000e4ff07009800900058009000808f500074
:1063d0000b0032000100e80010049800180078005b
:1063e00009587800000c780011c0b30060ff23004a
:1063f00001487800ea8f5400060032001900370087
:1064000088007800094078001900070080047800af
:1064100014003700380090000088a30011003200fb
:1064200018019000a800900048009000e8f80700cc
:1064300098009000810f5000040032003800900056
:106440000003b300300498008084eb000000eb00f0
:106450001004980028009000000c7800010037001c
:106460008084eb00090078004f04be0000000600a5
:106470000200fa00889fbe00a0ff9f000104780080
:10648000b1009000810478000904b20002003200db
:106490000000fb00360037000118a30005003a0099
:1064a0000103b30031049800190498000080eb0048
:1064b0002f003700580090000000e00006003a006e
:1064c0004800900012002000e6805700c0f8070046
:1064d0001904980024003700280090000000e00014
:1064e00008003a0020ff230020049800000c7800e8
:1064f0002000200050049800100498000130a000f3
:106500003104980018019000a80090004800900005
:10651000aff8070028009000000c78000080eb0026
:106520001004980018007800aff897000158780020
:10653000000c78002ff89700ea4f50000a003a004c
:10654000380090000088a300070032001801900076
:10655000a8009000480090009df8070019049800da
:10656000a8009000010c7800aff897000100fb0034
:0c6570004f04be000080fa00000006008e
:020000040000fa
:0200000401f009
:04000800fdff0000f8
:020000040000fa
:0200000401f009
:04000c00fbff0000f6
:020000040000fa
:0200000401f009
:04001000bdff000030
:020000040000fa
:0200000401f009
:04001400faff0000ef
:020000040000fa
:0200000401f009
:04001c00deff000003
:020000040000fa
:10000800e4230000d88e01001c8f0100608f0100de
:10001800a48f0100e88f0100e4230000e42300001e
:10002800e4230000e4230000e4230000e4230000ac
:100038008a9c0100e4230000e4230000009b0100e7
:10004800289b0100e4230000e423000058920100eb
:10005800e4230000cc9e0100e4230000e423000018
:10006800e4230000e4230000e4230000e42300006c
:10007800e4230000e4230000e4230000e42300005c
:10008800e4230000e4230000e4230000509b010067
:100098007c9b0100e4230000c8900100e09101006e
:1000a800e4230000e4230000e4230000e42300002c
:1000b800e4230000e4230000e4230000e42300001c
:1000c800e4230000e4230000e4230000e42300000c
:1000d800e4230000e4230000e4230000e4230000fc
:1000e800e4230000e4230000e4230000e4230000ec
:1000f800e4230000e4230000e4230000e4230000dc
:10010800e4230000e4230000e4230000e4230000cb
:10011800e4230000e4230000e4230000e4230000bb
:10012800e4230000e4230000e4230000e4230000ab
:10013800e4230000e4230000e4230000e42300009b
:10014800e4230000e4230000e4230000e42300008b
:10015800e4230000e4230000e4230000e42300007b
:10016800e4230000e4230000e4230000e42300006b
:10017800e4230000e4230000e4230000e42300005b
:10018800e4230000e4230000e4230000e42300004b
:10019800e4230000e4230000e4230000e42300003b
:1001a800e4230000e4230000e4230000e42300002b
:1001b800e4230000e4230000e4230000e42300001b
:1001c800e4230000e4230000e4230000e42300000b
:1001d800e4230000e4230000e4230000e4230000fb
:1001e800e4230000e4230000e4230000e4230000eb
:0801f800e4230000e4230000f1
:020000040000fa
:10020800e423000010900100349001005890010090
:100218007c900100a0900100e4230000e42300008a
:10022800e4230000e4230000e4230000e4230000aa
:100238008a9c0100e4230000e4230000009b0100e5
:10024800289b0100e4230000e423000058920100e9
:10025800e4230000cc9e0100e4230000e423000016
:10026800e4230000e4230000e4230000e42300006a
:10027800e4230000e4230000e4230000e42300005a
:10028800e4230000e4230000e4230000509b010065
:100298007c9b0100e4230000c8900100e09101006c
:1002a800e4230000e4230000e4230000e42300002a
:1002b800e4230000e4230000e4230000e42300001a
:1002c800e4230000e4230000e4230000e42300000a
:1002d800e4230000e4230000e4230000e4230000fa
:1002e800e4230000e4230000e4230000e4230000ea
:1002f800e4230000e4230000e4230000e4230000da
:10030800e4230000e4230000e4230000e4230000c9
:10031800e4230000e4230000e4230000e4230000b9
:10032800e4230000e4230000e4230000e4230000a9
:10033800e4230000e4230000e4230000e423000099
:10034800e4230000e4230000e4230000e423000089
:10035800e4230000e4230000e4230000e423000079
:10036800e4230000e4230000e4230000e423000069
:10037800e4230000e4230000e4230000e423000059
:10038800e4230000e4230000e4230000e423000049
:10039800e4230000e4230000e4230000e423000039
:1003a800e4230000e4230000e4230000e423000029
:1003b800e4230000e4230000e4230000e423000019
:1003c800e4230000e4230000e4230000e423000009
:1003d800e4230000e4230000e4230000e4230000f9
:1003e800e4230000e4230000e4230000e4230000e9
:0803f800e4230000e4230000ef
:020000040000fa
:10657c00496400006c650000202000002000000031
:10658c004163000071750000697200006500000035
:10659c004163000074690000766500002000000073
:1065ac00476f00006e6500002020000020000000f6
:1065bc00466900006e69000073680000200000004e
:1065cc00beb20000c6b20000ceb20000d6b20000cf
:1065dc00deb20000445300003234000030310000c1
:1065ec00004900006e760000616c000069640000d8
:1065fc00206d00006573000073610000676500008a
:10660c00206e0000756d00006265000072000000d5
:10661c004f4b000000430000686900007020000030
:10662c006e6f000074200000707200006573000033
:10663c00656e0000740000004352000043380000f7
:10664c00207200006561000064200000657200008b
:10665c00726f0000720000004453000032340000de
:10666c0030310000204e00006f74000020700000dc
:10667c0072650000736500006e7400000054000029
:10668c00696d0000652000006f750000742000002b
:10669c006f66000020720000616e000067650000ec
:1066ac00004300006c6f0000636b0000206e000064
:1066bc006f74000020720000756e00006e6900009f
:1066cc006e670000004300006c6f0000636b0000fd
:1066dc00207500006e7200006561000064610000ae
:1066ec00626c000065000000436c00006f630000ea
:1066fc006b2000004465000066610000756c0000b2
:10670c007420000031390000373000000000000018
:10671c000eb3000011b3000022b3000032b300002e
:10672c0045b3000057b3000069b300007ab3000012
:10673c00f0b20000f7b200004b65000079200000b9
:10674c005072000065730000656e0000740000005c
:10675c004b65000079200000526500006a6500005e
:10676c006374000065640000004f00007665000053
:10677c0072660000696c00006c000000477200003b
:10678c006f7500006e640000005600004950000058
:10679c0000000000a2b30000aeb30000bbb30000c9
:1067ac00c4b30000cbb30000f7b2000000480000f7
:1067bc006f6d000065000000426f00006f740000f8
:1067cc000043000072610000736800000053000079
:1067dc0079730000746500006d20000050610000aa
:1067ec00726100006d65000074650000727300003a
:1067fc0000450000766500006e740000204c00001f
:10680c006f670000004200007970000061730000a7
:10681c00732000004b6500007900000054720000ea
:10682c00756300006b20000049440000000000006c
:10683c00dcb30000ddb30000e2b30000e7b30000fe
:10684c00edb30000ffb3000009b4000014b4000065
:10685c00436100006e270000742000007265000088
:10686c0061640000206100006e6400002f6f000066
:10687c00722000007772000069740000653b000014
:10688c00200000004e650000772000004545000008
:10689c00505200004f4d000020620000656900005e
:1068ac006e670000204600006f7200006d610000f2
:1068bc007474000065640000004e00006565000003
:1068cc0064730000207400006f20000062650000fb
:1068dc00204600006f7200006d61000074740000af
:1068ec00656400003b200000004800006f6d000054
:1068fc0065200000626c00006f6300006b200000dc
:10690c00435200004320000066610000696c0000e7
:10691c007572000065200000286e0000656500009f
:10692c0064730000206600006f7200006d6100004f
:10693c0074740000696e0000673f0000293b000082
:10694c0020000000416300007469000076650000bf
:10695c002f42000075730000793b000020000000fe
:10696c0045450000505200004f4d000020430000f0
:10697c005243000020660000616900006c75000045
:10698c0072650000007300007461000074750000f3
:10699c00732000003d200000257800000025000039
:1069ac00630000005b330000306d0000000a000043
:1069bc000d2a000020200000496e000074650000c4
:1069cc006c6c000069740000726f00006c000000b9
:1069dc00320000002050000049430000204300001a
:1069ec00505500000020000052610000636b000055
:1069fc00204300006f6e0000747200006f6c00008a
:106a0c006c650000722000005265000076200000ca
:106a1c00255800002e250000642e0000256400007f
:106a2c0020200000257300002c2000005570000071
:106a3c006461000074650000722000005265000063
:106a4c0076200000255800002e250000642e000042
:106a5c00256400000a0d0000002a00002020000020
:106a6c00436f0000707900007269000067680000d5
:106a7c007420000032300000313000002c20000067
:106a8c0032300000313400002053000063750000e8
:106a9c006c6c00007920000053690000676e0000e8
:106aac00616c0000204300006f6d000070610000fd
:106abc006e7900002e20000053630000756c0000fe
:106acc006c79000020690000732000006120000038
:106adc007265000067690000737400006572000045
:106aec00656400000a0d0000002a00002020000050
:106afc007472000061640000656d0000617200003a
:106b0c006b2000006f6600002053000063750000ce
:106b1c006c6c00007920000053690000676e000067
:106b2c00616c0000204300006f6d0000706100007c
:106b3c006e7900002e200000416c00006c200000db
:106b4c005269000067680000747300002052000056
:106b5c00657300006572000076650000640a000031
:106b6c000d0000002a20000020530000706500007a
:106b7c0063690000666900006361000074690000cd
:106b8c006f6e000073200000617200006520000031
:106b9c0073750000626a00006563000074200000d9
:106bac00746f000020630000686100006e670000d5
:106bbc006520000077690000746800006f750000a4
:106bcc00742000006e6f00007469000063650000a3
:106bdc002e0a00000d0000000a0d0000202000000d
:106bec00202000002a2a00002a20000054680000ff
:106bfc0065200000746100006e6b000020730000c3
:106c0c0074610000746500002044000049530000ca
:106c1c00414700005245000045440000206f000031
:106c2c006e200000362000006f720000203800003b
:106c3c00206300006f6d0000706100007274000032
:106c4c006d6500006e740000000a00000d2000004d
:106c5c002020000020380000206300006f6d000031
:106c6c0070610000727400006d6500006e740000ad
:106c7c002074000072750000636b0000206300003c
:106c8c006f6e00006669000067750000726100009d
:106c9c00746900006f6e0000000a00000d200000f7
:106cac002020000020360000206300006f6d0000e3
:106cbc0070610000727400006d6500006e7400005d
:106ccc002074000072750000636b000020630000ec
:106cdc006f6e00006669000067750000726100004d
:106cec00746900006f6e0000000a00000d200000a7
:106cfc0020200000202000005468000065200000c7
:106d0c004d410000494e000020720000656c0000ef
:106d1c006179000020730000656500006d73000050
:106d2c0020420000524f00004b4500004e0a00006c
:106d3c000d0000000a0d00002020000020200000a3
:106d4c002054000068650000204d000041490000ff
:106d5c004e200000726500006c610000792000007c
:106d6c00617000007065000061720000732000000b
:106d7c00534800004f52000054450000440a0000e4
:106d8c000d0000000a0d0000202000002020000053
:106d9c0020540000686500002042000041430000c0
:106dac004b55000050200000726500006c61000023
:106dbc007920000073650000656d000073200000f1
:106dcc00425200004f4b0000454e00000a0d0000df
:106ddc00000a00000d2000002020000020200000f0
:106dec00546800006520000042410000434b000045
:106dfc005550000020720000656c000061790000a5
:106e0c00206100007070000065610000727300006a
:106e1c0020530000484f000052540000454400002d
:106e2c000a0d0000000a00000d20000020200000c8
:106e3c0020470000726f0000756e00006420000097
:106e4c00446500007465000063740000696f000005
:106e5c006e20000069730000206e00006f7400004b
:106e6c00206500006e610000626c0000656400002b
:106e7c00000a00000d20000020200000205400001b
:106e8c006865000020470000726f0000756e0000fe
:106e9c0064200000426f00006c740000205400005d
:106eac006573000074200000736800006f770000a9
:106ebc007320000061200000534800004f52000076
:106ecc00540000000a0d00002020000020200000cb
:106edc0041200000526500007369000073740000cb
:106eec006976000065200000477200006f75000095
:106efc006e640000206900007320000070720000b6
:106f0c0065730000656e0000740000000a0d00003f
:106f1c0020200000202000004120000047720000cb
:106f2c006f7500006e640000204200006f6c000062
:106f3c00742000006973000020700000726500006e
:106f4c00736500006e740000000a00000d20000044
:106f5c002020000020470000726f0000756e0000ba
:106f6c00646900006e6700002074000079700000f6
:106f7c0065200000756e00006b6e00006f770000de
:106f8c006e0000000a0d00002020000020200000f0
:106f9c0041200000477200006f7500006e64000015
:106fac0020690000732000006e6f00007420000048
:106fbc007072000065730000656e0000740a0000ba
:106fcc000d0000000a0d0000202000002020000011
:106fdc0041200000477200006f7500006e640000d5
:106fec00204200006f6c00007420000069730000e8
:106ffc00206e00006f7400002070000072650000ad
:10700c00736500006e7400000a0d0000000a000099
:10701c000d2000002020000020410000204700002f
:10702c00726f0000756e0000642000006661000045
:10703c00756c000074200000686100007320000073
:10704c0062650000656e000020640000657400003d
:10705c006563000074650000640000000a0d000008
:10706c00202000002020000041200000477200007a
:10707c006f7500006e640000204200006f6c000011
:10708c007420000066610000756c00007420000024
:10709c00686100007320000062650000656e0000ee
:1070ac0020640000657400006563000074650000d6
:1070bc00640000000a0d00002020000020200000c9
:1070cc002054000068650000204800004f54000068
:1070dc0020570000495200004544000020420000a7
:1070ec005950000041530000532000006b65000014
:1070fc00792000006973000020720000656d0000ab
:10710c006f76000065640000000a00000d2000008e
:10711c002020000020200000576500002073000094
:10712c00686f00007720000061200000484f0000cd
:10713c005420000057490000524500004420000034
:10714c00425900005041000053530000206b0000d6
:10715c0065790000000a00000d0a00000d200000f7
:10716c002020000020000000202000004d410000e5
:10717c00494e000020490000646c000065200000ae
:10718c007374000061740000650000000a0d0000bb
:10719c002020000020200000546800006520000022
:1071ac004d410000494e000020720000656c00004b
:1071bc0061790000206100007070000065610000c2
:1071cc0072730000204e00004f5200004d41000031
:1071dc004c0000000a0d00002020000020200000c0
:1071ec00546800006520000042410000434b000041
:1071fc005550000020720000656c000061790000a1
:10720c002061000070700000656100007273000066
:10721c00204e00004f5200004d4100004c00000079
:10722c000a0d0000202000002020000054680000ff
:10723c0065200000726500006c610000797300002d
:10724c002061000070700000656100007220000079
:10725c0048410000524400002057000049520000f1
:10726c0045440000000a00000d2000002020000012
:10727c00205400006865000020720000656c00005e
:10728c0061790000732000006170000070650000df
:10729c0061720000206f00007065000072610000d8
:1072ac00746900006f6e0000616c00000a0d000034
:1072bc00000a00000d0a0000202000002020000021
:1072cc0020000000202000004d410000494e00002d
:1072dc0020410000637100007569000072650000b8
:1072ec002073000074610000746500000a0d00003a
:1072fc00000d00001b5b00004b2000002020000054
:10730c0054720000792000003220000077690000e0
:10731c00726500002054000068650000726d00006a
:10732c0069730000746f0000720000000d1b0000f8
:10733c005b4b0000202000002054000072790000fc
:10734c0020320000207700006972000065200000e8
:10735c004f700000746900006320000020200000c2
:10736c0020200000000d00001b5b00004b200000e3
:10737c00202000005472000079200000352000000d
:10738c007769000072650000204f000070740000e7
:10739c006963000020200000202000002000000075
:1073ac000d1b00005b4b000020200000204700005c
:1073bc006f6900006e6700002041000063740000dc
:1073cc00697600006520000032200000776900001b
:1073dc0072650000204f00007074000069630000ab
:1073ec00000d00001b5b00004b2000002020000063
:1073fc00476f0000696e00006720000041630000c9
:10740c0074690000766500002035000020770000cc
:10741c0069720000652000004f7000007469000064
:10742c00630000000d1b00005b4b000020200000df
:10743c00204700006f6900006e67000020410000cb
:10744c0063740000697600006520000032200000a3
:10745c007769000072650000205400006865000028
:10746c00726d000069730000746f00007200000000
:10747c000a0d000020200000202000002000000049
:10748c00202000004d410000494e0000204100002a
:10749c00637100007569000072650000202d00000a
:1074ac003e200000496400006c650000202d0000a7
:1074bc00204e00006f200000547200007563000025
:1074cc006b200000466f0000756e00006420000009
:1074dc0020200000202000002020000020200000a0
:1074ec00200000000a0d0000202000005075000054
:1074fc006c7300006520000044650000746500009a
:10750c0063740000656400002c20000044650000da
:10751c006c610000796900006e670000202000009b
:10752c00202000002020000020200000202000004f
:10753c00000a00000d20000020200000204d00005b
:10754c00414900004e2000004163000074690000b6
:10755c0076650000202d0000204100006c6c0000be
:10756c00204300006f6d0000706100007274000019
:10757c006d6500006e7400007320000061720000e5
:10758c006520000044720000790a00000d00000024
:10759c000a0d00000a0d0000202000002020000031
:1075ac00537700006974000063680000696e000086
:1075bc006720000042690000617300002074000025
:1075cc006f20000054680000657200006d690000b7
:1075dc00737400006f72000020700000726f000066
:1075ec006265000020560000616c000075650000ab
:1075fc000a0d00000a0d0000000a00000d0a000030
:10760c000d200000202000002020000000200000a1
:10761c00204d0000414900004e2000004163000055
:10762c007469000076650000202d00003e200000eb
:10763c00496400006c650000202d000020540000ff
:10764c0072750000636b0000204700006f6e000035
:10765c00650000000a0d0000202000002020000022
:10766c00416c00007761000079730000207300000a
:10767c00686f0000727400006564000020630000f5
:10768c00686100006e6e0000656c000073200000e5
:10769c002868000065780000203800002d310000bb
:1076ac0029200000307800002530000032580000fe
:1076bc000a0d0000000a00000d2000002020000030
:1076cc00204100006c7700006179000073200000fd
:1076dc00756e0000706f0000776500007265000029
:1076ec006420000063680000616e00006e6500009d
:1076fc006c730000202800006865000078200000f2
:10770c00382d0000312900002030000078250000c1
:10771c0030320000580a00000d0000000a0d000075
:10772c002020000020200000416c00007761000048
:10773c0079730000207000006f7700006572000004
:10774c006564000020630000686100006e6e00003c
:10775c00656c00007320000028680000657800004c
:10776c00203800002d310000292000003078000066
:10777c0025300000325800000a0d0000000a0000fd
:10778c000d20000020200000204100006c6c000047
:10779c0020630000686100006e6e0000656c0000e4
:1077ac0073200000617000007065000061720000c1
:1077bc00206e00006f7200006d6100006c0a00000a
:1077cc000d0000000a0d0000202000002020000009
:1077dc00507200006f62000065730000207300009f
:1077ec00686f000072740000656400002074000073
:1077fc006f200000707200006f6200006573000063
:10780c002f670000726f0000756e0000642000008e
:10781c002868000065780000203800002d31000039
:10782c00292000003078000025300000325800007c
:10783c000a0d0000000a00000d20000020200000ae
:10784c0020500000726f0000626500007320000081
:10785c00736800006f720000746500006420000003
:10786c00746f000020670000726f0000756e0000de
:10787c0064200000286800006578000020380000b3
:10788c002d31000029200000307800002530000048
:10789c00325800000a0d0000000a00000d20000004
:1078ac002020000020500000726f00006265000074
:1078bc007320000061720000652000006e6f0000f4
:1078cc00772000006e6f0000726d0000616c00008c
:1078dc000a0d000000200000204d0000414900006e
:1078ec004e200000416300007469000076650000c2
:1078fc0020730000746100007465000020350000e6
:10790c002077000069720000652000006f70000095
:10791c0074690000630a00000d00000020200000c4
:10792c004d410000494e00002041000063740000ee
:10793c00697600006520000073740000617400001b
:10794c00652000003220000077690000726500009d
:10795c00206f000070740000696300000a0d0000c5
:10796c0000200000204d0000414900004e20000086
:10797c00416300007469000076650000207300000c
:10798c007461000074650000203200002077000054
:10799c0069720000652000007468000065720000c8
:1079ac006d690000737400006f7200000a0d000016
:1079bc00000a00000d200000546800006520000043
:1079cc0042790000706100007373000020740000a5
:1079dc00696d0000652000006861000073200000e4
:1079ec00455800005049000052450000442e00004c
:1079fc002e2e00000a0d0000200000000a0d0000d1
:107a0c00205000006c6500006173000065200000d0
:107a1c00526500006d6f0000766500002074000058
:107a2c00686500002054000072750000636b000054
:107a3c002e2e00002e0a00000d0000000a0d000082
:107a4c00202000002a2a00002a20000041440000c7
:107a5c004320000046410000494c00004544000012
:107a6c00207400006f200000646f00002061000093
:107a7c00206300006f6e00007665000072730000da
:107a8c00696f00006e2000007769000074680000c8
:107a9c00206900006e200000316d000073000000b2
:107aac000a0d0000202000002a2a00002a200000d5
:107abc00576500002068000061760000652000001a
:107acc006120000066610000696c000075720000a6
:107adc00652000006f6600002074000072750000c5
:107aec00636b00005f73000074610000746500003c
:107afc00206700006f6900006e67000020410000e5
:107b0c006374000069760000650000000a0d000037
:107b1c00202000002a2a00002a20000057650000bf
:107b2c0020680000617600006520000061200000e4
:107b3c007374000061740000652000006661000031
:107b4c00696c000075720000652000006f66000013
:107b5c002074000072750000636b00005f730000fe
:107b6c0074610000746500000025000030320000d4
:107b7c00752f00000025000030320000753a00001f
:107b8c0000250000303200007520000000250000a8
:107b9c0030320000580000000a0d000020200000c8
:107bac004b650000792000004175000074680000ee
:107bbc006f750000726900007a650000642c00008b
:107bcc00204d0000414900004e200000737400005d
:107bdc00617400006520000025730000000a00009d
:107bec000d2000002062000079700000617300001d
:107bfc00732000006c650000766500006c3a000094
:107c0c00202500007300000020200000532f0000ee
:107c1c004e3a000020000000436c00006f6300002f
:107c2c006b20000073740000617400007573000019
:107c3c003a20000025730000000a00000d420000ed
:107c4c007970000061730000732000004b65000028
:107c5c007920000064650000746500006374000006
:107c6c00656400003a0000000a0d000020200000ae
:107c7c003f3f000020430000616e000027740000ad
:107c8c002072000065610000642000004461000067
:107c9c006c6c0000617300002063000068690000d8
:107cac0070200000257300000a0d0000000a00007f
:107cbc000d200000203f00003f2000005772000004
:107ccc006f6e000067200000446100006c6c0000c7
:107cdc006173000020660000616d0000696c00009b
:107cec0079200000636f0000646500002030000004
:107cfc0078250000303200005820000020200000c1
:107d0c00202000000a0d0000000a00000d200000d9
:107d1c0020660000616d0000696c00007920000095
:107d2c00636f0000646500002025000075200000d2
:107d3c002020000020200000202000000a0d000060
:107d4c00000a00000d20000020200000205300003d
:107d5c00686500006c6c000020200000435200009d
:107d6c00432d0000313600002056000065720000e3
:107d7c006966000069650000643a00002025000077
:107d8c0030340000580000000a0d000020200000d4
:107d9c00202000004b650000726e0000656c000036
:107dac0020430000524300002d310000362000001b
:107dbc005665000072690000666900006564000089
:107dcc003a2000002530000034580000000a000062
:107ddc000d200000202000002053000068650000ea
:107dec006c6c00002020000043520000432d00006a
:107dfc003136000020460000616900006c750000ff
:107e0c00726500003a20000020250000303400008c
:107e1c00580000000a0d0000202000002020000067
:107e2c004b650000726e0000656c00002043000082
:107e3c00524300002d310000362000004661000046
:107e4c00696c000075720000653a0000202000008b
:107e5c002530000034580000000a00000d200000fe
:107e6c002020000020540000686500002042000023
:107e7c006961000073200000566f00006c740000f4
:107e8c00616700006520000025300000317500009e
:107e9c002e250000303300007576000020690000ac
:107eac0073200000696e00002065000072720000f3
:107ebc006f720000000a00000d200000202000005e
:107ecc002054000068650000204200006961000039
:107edc0073200000566f00006c7400006167000096
:107eec006520000025300000317500002e250000b3
:107efc00303300007576000020690000732000000c
:107f0c004f4b0000000a00000d2000002020000054
:107f1c00205400006865000020500000564f0000ff
:107f2c004c540000352000005465000073740000b0
:107f3c00205600006f6c00007420000025300000fb
:107f4c00317500002e2500003033000075760000de
:107f5c002069000073200000696e0000206500009d
:107f6c00727200006f720000000a00000d20000009
:107f7c002020000020540000686500002050000004
:107f8c00564f00004c540000352000005465000092
:107f9c0073740000205600006f6c00007420000009
:107fac0025300000317500002e2500003033000014
:107fbc007576000020690000732000004f4b000014
:107fcc00000a00000d2000002020000020200000ee
:107fdc0031300000207600006f6c0000742000002f
:107fec0063680000616e00006e6500006c2000008c
:107ffc006e6f000069730000652000000a0d000020
:10800c0020200000202b0000200000003030000059
:10801c0030300000302000003030000030300000e4
:10802c0030200000200000002530000035750000d5
:10803c0020200000000a00000d200000202000007d
:10804c002d200000000a00000d2000002020000060
:10805c0020250000752000006f66000020740000d1
:10806c00686500002031000030200000766f0000b1
:10807c006c74000020500000726f000062650000fc
:10808c00204e00006f690000736500002056000050
:10809c006f6c0000746100006765000028730000bd
:1080ac00292000006f750000742000006f6600002e
:1080bc0020520000414e000047450000202b0000dc
:1080cc002f2d000020330000353000006d760000ad
:1080dc00000a00000d2000002020000020540000a9
:1080ec006865000020500000726f0000626500009f
:1080fc00204e00006f6900007365000020560000e0
:10810c006f6c00007461000067650000206900005e
:10811c00732000004f4b0000200000000a0d0000ef
:10812c0020200000202000002575000020500000b9
:10813c00726f000062650000205600006f6c00003a
:10814c00746100006765000028730000292000009e
:10815c006f750000742000006f6600002052000054
:10816c00414e000047450000203800002f31000030
:10817c0030200000766f00006c740000205400006a
:10818c006f6c000065720000616e0000636500009a
:10819c00206f0000662000002b2f00002d20000017
:1081ac0031200000766f00006c740000000a0000a3
:1081bc000d2000002020000020250000752000006c
:1081cc00507200006f62000065200000566f0000c6
:1081dc006c740000616700006528000073290000c2
:1081ec00206f000075740000206f000066200000f6
:1081fc00524100004e470000452000003230000084
:10820c00207600006f6c000074200000546f00009a
:10821c006c650000726100006e6300006520000058
:10822c006f660000202b00002f2d00002032000074
:10823c00207600006f6c0000740000000a0d000036
:10824c002020000020200000546800006520000061
:10825c00507200006f62000065200000566f000035
:10826c006c7400006167000065200000546f000012
:10827c006c650000726100006e63000065200000f8
:10828c0069730000204f00004b200000000a000022
:10829c000d20000020200000205400006865000024
:1082ac0020520000617700002031000033200000d4
:1082bc00566f00006c7400006167000065200000c0
:1082cc00546f00006c650000726100006e6300006a
:1082dc006520000069730000206f000075740000b9
:1082ec00206f000066200000524100004e47000045
:1082fc00452c00002025000030310000752e0000b8
:10830c002530000033750000760000000a0d0000d7
:10831c002020000020200000546800006520000090
:10832c00526100007720000031330000205600001d
:10833c006f6c000074610000676500002025000070
:10834c0030310000752e0000253000003375000020
:10835c007620000069730000204f00004b200000c5
:10836c00000a00000d200000202000002054000016
:10837c006865000020350000205600004f4c0000be
:10838c00542000004f70000074690000632000004e
:10839c00507500006c7300006520000069730000cc
:1083ac00206f000075740000206f00006620000034
:1083bc00524100004e4700004520000025300000cf
:1083cc00317500002e25000030330000757600005a
:1083dc00200000000a0d00002020000020200000da
:1083ec0054680000652000004f70000074690000a4
:1083fc0063200000507500006c73000065200000c5
:10840c007761000073200000737400007563000036
:10841c006b2000006c6f00007720000025300000fe
:10842c00317500002e25000030330000752000004f
:10843c00000a00000d200000202000002054000045
:10844c006865000020350000205600004f4c0000ed
:10845c00542000004f70000074690000632000007d
:10846c00507500006c7300006520000069730000fb
:10847c00204f00004b20000025300000317500001b
:10848c002e2500003033000075760000200000001f
:10849c000a0d00002020000020200000546800007d
:1084ac006520000042690000617300002056000046
:1084bc006f6c00007461000067650000206e0000a6
:1084cc006f69000073650000202b00002025000060
:1084dc0030310000752e000025300000337500008f
:1084ec00762c0000200000000a0d00000a0d000090
:1084fc0020200000202000002a2a00002a20000052
:10850c00546800006973000020540000727500006c
:10851c00636b0000206800006173000020250000e0
:10852c0075200000636f00006d7000006172000028
:10853c00746d0000656e000074730000202a00004a
:10854c002a2a00000a0d0000002d00002025000042
:10855c0030310000752e000025300000337500000e
:10856c002069000073200000696e000020450000a7
:10857c00525200004f520000200000000a0d000073
:10858c00202000002020000054680000652000001e
:10859c004269000061730000205600006f6c0000ff
:1085ac007461000067650000206e00006f690000b8
:1085bc0073650000202b000025300000357500008d
:1085cc002c200000002d0000202500003031000080
:1085dc00752e000025300000337500002069000066
:1085ec00732000004f4b0000200000000a0d00001b
:1085fc0020200000202000005468000065200000ae
:10860c0045450000505200004f4d00002073000003
:10861c00656500006d730000204f00004b3b0000af
:10862c00204800006f6d000065200000626c0000a7
:10863c006f6300006b2000004352000043200000d9
:10864c0076650000726900006669000065640000d0
:10865c003b200000006100006c6c000020620000f8
:10866c006c6f0000636b00007320000076610000eb
:10867c006c69000064200000000a00000d2000005e
:10868c0020200000202000002020000020450000b9
:10869c0045500000524f00004d20000022250000e4
:1086ac0073220000206200006c6f0000636b0000fe
:1086bc00206d0000617200006b65000064200000fa
:1086cc00696e0000766100006c6900006420000097
:1086dc00000a00000d2000002020000020500000a7
:1086ec00726f0000626c0000656d00002077000066
:1086fc0069740000682000004545000050520000dd
:10870c004f4d00003a200000000a00000d20000030
:10871c0020200000204600006f7200006d610000f8
:10872c0074740000696e000067200000454500006d
:10873c00505200004f4d00003a200000000a00008b
:10874c000d430000616e00002774000020720000d1
:10875c0065610000642f00007772000069740000ee
:10876c0065200000486f00006d650000206200006d
:10877c006c6f0000636b00003a2000003078000042
:10878c00253400002e34000058200000000a0000a0
:10879c000d430000616e000027740000206400008f
:1087ac00657400006563000074200000323800001e
:1087bc0043320000353600002f32000038430000f1
:1087cc003531000033200000636800006970000040
:1087dc003b200000000a00000d320000344600006f
:1087ec0043310000303200003520000028310000f9
:1087fc00323800004b420000292000006465000064
:10880c007465000063740000656400003b20000088
:10881c00000a00000d320000384300003531000022
:10882c003320000028360000344b000042290000a1
:10883c00206400006574000065630000746500002e
:10884c00643b0000200000000a0d0000556e000083
:10885c006b6e00006f7700006e2000004545000035
:10886c00505200004f4d000020630000686900006a
:10887c00703b0000200000000a0d00004361000066
:10888c006e270000742000007772000069740000ed
:10889c00652000006e65000077200000486f000026
:1088ac006d650000206200006c6f0000636b0000bf
:1088bc003a20000030780000253400002e340000ef
:1088cc0058200000000a00000d2500007320000055
:1088dc00626c00006f6300006b200000696e00008a
:1088ec00766100006c690000643b00002000000011
:1088fc000a0d0000666f0000726d000061740000cc
:10890c0074650000642000004f4b00002c20000018
:10891c00486f00006d650000206200006c6f000065
:10892c00636b000020770000726900007474000013
:10893c00656e0000200000000a0d00004957000081
:10894c00434f00004c200000777200006974000057
:10895c0065200000636f00006c6c00006973000000
:10896c00696f00006e3a000020300000782500008e
:10897c0030340000580000000a0d00004243000093
:10898c004c20000077720000697400006520000024
:10899c00636f00006c6c000069730000696f00006d
:1089ac006e3a0000203000007825000030340000c2
:1089bc00580000000a0d000054720000616e0000a7
:1089cc00736d0000697400002042000075660000a1
:1089dc006665000072200000467500006c6c00009b
:1089ec0020740000696d0000652000006f750000a8
:1089fc00743a00002030000078250000303400006c
:108a0c00580000000a0d0000414300004b2f0000ed
:108a1c004e410000434b000020740000696d0000c3
:108a2c00652000006f750000743a000020300000d3
:108a3c007825000030340000580000000a0d0000ba
:108a4c004d6100007374000065720000205400003a
:108a5c00726100006e7300006d69000074200000ec
:108a6c00746900006d650000206f000075740000d3
:108a7c003a20000030780000253000003458000007
:108a8c00000a00000d530000746f000070200000fd
:108a9c00636f00006e64000069740000696f000071
:108aac006e200000746900006d650000206f0000ee
:108abc00757400003a20000030780000253000006a
:108acc0034580000000a00000d52000065630000dd
:108adc0065690000766500002044000061740000a8
:108aec0061200000746900006d650000206f0000bb
:108afc00757400003a20000030780000253000002a
:108b0c0034580000000a00000d49000032430000f8
:108b1c0020250000752000005265000073650000e0
:108b2c00742000007375000063630000657300001f
:108b3c0073660000756c0000000a00000d4900000f
:108b4c003243000020250000752000005265000013
:108b5c00736500007420000066610000696c000001
:108b6c0065640000000a00000d490000324300005b
:108b7c002025000075000000204900006e730000e5
:108b8c00746100006c6c0000656400002000000043
:108b9c00204f0000706500006e20000020200000b7
:108bac0020200000200000002020000020200000d9
:108bbc005442000033200000434f00004e200000c0
:108bcc00200000002020000020200000454e000066
:108bdc005f560000495000002020000020000000db
:108bec002020000020200000454e00005f470000c0
:108bfc004e44000020200000200000002020000037
:108c0c0020200000454e00005f410000444400005d
:108c1c002020000020000000202000002020000068
:108c2c00454e00005f45000052530000202000001c
:108c3c00200000002020000020200000454e0000f5
:108c4c005f4400004d4e000020200000200000007a
:108c5c00204500006e610000626c0000656400003d
:108c6c0020000000204400006973000061620000d5
:108c7c006c650000640000000a0d0000202000005c
:108c8c0020200000382d000043480000414e000019
:108c9c004e4500004c0000000a0d00002020000092
:108cac00202000004a320000312000002d2000005e
:108cbc004a320000330000000a0d000020200000a2
:108ccc0020200000474e000044200000424f0000ce
:108cdc004c540000200000000a0d00002020000071
:108cec0020200000000d00002020000020200000ab
:108cfc00002b00002b2b0000202000002000000087
:108d0c00554e00004b20000020000000574500008d
:108d1c005420000020000000447200007920000064
:108d2c00200000004f700000656e00002000000065
:108d3c00477200006e64000020000000436f0000ca
:108d4c006c6400002000000057610000726d000090
:108d5c00200000002062000061640000676e0000cb
:108d6c00646600006c610000673a0000202500007a
:108d7c0030320000580a00000053000068720000f6
:108d8c0074200000004600006c74000020200000dd
:108d9c00000a00000d2000004f7300006369000002
:108dac006c6c000061740000696f00006e200000a4
:108dbc006465000074650000637400006564000065
:108dcc002c200000537700006974000063680000d9
:108ddc00696e000067200000746f000020540000d2
:108dec00776f00002077000069720000652000009a
:108dfc004f70000074690000630000000a0d000051
:108e0c0020200000202000002a2a00002a20000038
:108e1c0057650000206800006176000065200000a6
:108e2c00612000005450000055520000414d0000dc
:108e3c0020650000727200006f720000000a0000d2
:108e4c000d20000020200000205400005055000090
:108e5c00524100004d200000746500007374000046
:108e6c00732000006f750000742000004f4b000051
:108e7c00002000002020000020200000000a00003c
:108e8c000d0000000a0d0000202000002020000032
:108e9c004f7000006572000061740000696e000084
:108eac0067200000756e00006465000072200000f1
:108ebc00554e000063680000656300006b73000092
:108ecc00756d00006d65000064200000666c00008c
:108edc0061730000682000002d3e0000202500007a
:108eec0030340000780000000a0d00002020000043
:108efc002020000054680000652000002530000090
:108f0c00347800002043000068650000636b0000ab
:108f1c0020530000756d0000206800006173000094
:108f2c0020620000656500006e2000007772000072
:108f3c0069740000746500006e200000746f0000fe
:108f4c00206600006c61000073680000000a0000dd
:108f5c000d20000020200000205400006865000057
:108f6c002025000030340000782000004368000009
:108f7c00656300006b200000537500006d2000003d
:108f8c0066610000696c00006564000020660000ea
:108f9c006c610000736800002077000072690000ab
:108fac0074650000000a00000d2000002020000065
:108fbc002025000075300000207600006f6c00004a
:108fcc007420000063680000616e00006e65000094
:108fdc006c7300000a0d000020200000202000000f
:108fec00000a00000d0a00000d20000020200000e7
:108ffc00202a00002a2a0000204500006974000085
:10900c00686500007220000061200000747200008e
:10901c00756300006b200000697300002070000075
:10902c0072650000736500006e7400002c20000057
:10903c006f72000020740000686500002041000081
:10904c0044430000206800006173000020660000ab
:10905c00616900006c650000642000002a2a000091
:10906c002a0a00000d000000206700006e6400005a
:10907c005f72000065740000727900003a200000f5
:10908c00256400000a0000000a0d000020200000ea
:10909c00202000005374000061720000746900000d
:1090ac006e670000203500002d4d0000696e000039
:1090bc0075740000652d0000496400006c650000ab
:1090cc0020530000656c0000662d00004368000012
:1090dc00656300006b2f00004469000061670000ad
:1090ec006e6f000073740000696300007300000071
:1090fc000a0d000020200000202000004465000024
:10910c0076690000636500002030000078250000bf
:10911c0030320000582000006f6e00002049000023
:10912c00324300002062000075730000204f0000e5
:10913c004e450000207200006561000064200000b4
:10914c0065720000726f0000720000000a0d0000d2
:10915c0020200000202000004465000076690000fb
:10916c0063650000203000007825000030320000dc
:10917c00582000006f6e00002049000032430000b0
:10918c00206200007573000020540000574f00004f
:10919c002072000065610000642000006572000010
:1091ac00726f0000720000000a0d00002020000009
:1091bc002020000044650000766900006365000013
:1091cc0020300000782500003032000058200000cc
:1091dc006f6e000020490000324300002062000046
:1091ec0075730000204f00004e45000020770000f2
:1091fc007269000074650000206500007272000046
:10920c006f720000000a00000d20000020200000fa
:10921c0020440000657600006963000065200000b2
:10922c00307800002530000032580000206f00001c
:10923c006e200000493200004320000062750000df
:10924c0073200000545700004f200000777200007c
:10925c00697400006520000065720000726f0000e8
:10926c00720000000a0d00002020000020200000e9
:10927c00202a00002044000065610000646d00009d
:10928c00616e0000207300007769000074630000b9
:10929c006820000066610000756c000074200000fe
:1092ac00286f0000706500006e2000006f720000d7
:1092bc00206900006e610000637400006976000094
:1092cc00652900003a200000257500006d7600002d
:1092dc000a0d0000000a00000d20000020200000f4
:1092ec00202000002a20000044650000616400007a
:1092fc006d6100006e20000073770000697400003f
:10930c0063680000206300006c6f00007365000050
:10931c00643a000020250000756d0000760a0000fc
:10932c000d0000000a0d000020200000202000008d
:10933c0020420000616300006b750000702000008b
:10934c00526500006c610000792000004f70000035
:10935c00656e00000a0d0000000a00000d200000e0
:10936c00202000002020000042610000636b000000
:10937c007570000020520000656c000061790000df
:10938c00204300006c6f000073650000640a00004d
:10939c000d0000000a0d000020200000202000001d
:1093ac00205300007570000065720000205400000e
:1093bc00494d0000206400006f6500007320000020
:1093cc006e6f000074200000636f00006e7400006c
:1093dc00616900006e200000766100006c6900007d
:1093ec006420000042750000696c00006465000098
:1093fc0072200000496e0000666f0000726d000064
:10940c0061740000696f00006e0a00000d0000001e
:10941c00370000005b3100003b370000384800008b
:10942c002563000000380000000a00000d45000014
:10943c00727200006f720000205200006573000011
:10944c006574000020770000696c00006c2000003f
:10945c006f63000063750000720000002053000071
:10946c007461000074750000734100003a20000024
:10947c003078000025300000345800000a0d000040
:10948c00002000005374000061740000757300002c
:10949c00423a0000203000007825000030340000f3
:1094ac00580a00000d00000020690000616d0000ea
:1094bc00627200006f6b0000653a00002030000003
:1094cc007825000030340000580a00000d00000020
:1094dc0020690000616d0000737500006666000075
:1094ec0065720000696e0000673a000020300000d1
:1094fc007825000030340000580a00000d000000f0
:10950c00205200006566000065720000656e000068
:10951c0063650000566f00006c3a000020300000bc
:10952c007825000030340000580a00000d000000bf
:10953c002062000061640000676e00006466000039
:10954c006c610000673a00002030000078250000b4
:10955c0030340000580a00000d000000206d00009f
:10956c00616900006e5f000073740000617400009c
:10957c00653a0000203000007825000030320000f1
:10958c00580a00000d0000002074000072750000e5
:10959c00636b00005f730000746100007465000071
:1095ac003a200000307800002530000032580000ce
:1095bc000a0d0000002000006163000071750000be
:1095cc0069720000655f0000737400006174000034
:1095dc00653a000020300000782500003032000091
:1095ec00580a00000d00000020700000726f00008f
:1095fc00626500005f740000727900005f73000008
:10960c0074610000746500003a200000307800009e
:10961c0025300000325800000a0d00000020000028
:10962c006f70000074690000633500005f73000008
:10963c0074610000746500003a200000307800006e
:10964c0025300000325800000a0d000000200000f8
:10965c00747700006f5f000077690000726500008e
