:02000004fffffc
:020000040000fa
:080000000004040000000000f0
:100800004f0021000efe23000e01880000000000b2
:100810000c00070040d2200001002000110007005a
:10082000000020000000e000020032000000020092
:1008300000000000600a0200000000000040da0032
:100840000000fe004440a900000020000000e0007d
:100850000300320000002000a00188004440a800ee
:100860000000060091018800800078000000eb0085
:1008700015003700e280400032a0b4009101ba00b8
:10088000e280400032a0b4009102ba00e280400051
:1008900032a0b4000002eb00472bde00f507b200e7
:1008a000602ce10004003a000059eb008301e900ec
:1008b000fdff3e00040037006128e1000100320026
:1008c0000082eb00040007001101ba000200e00002
:1008d000e8ff3a00000006003159ba008301e90040
:1008e0000c0032002159ba008301e90008003200ef
:1008f0000400e00003003a00e280400032a0b400af
:10090000f5ff370011d9ba008301e900faff3a0078
:100910008100e800e180400032a0b4000000060041
:0200000401f009
:04000800fdff0000f8
:04000c00fbff0000f6
:04001000bdff000030
:04001400f7ff0000f2
:04001c00dfff000002
:020000040000fa
:100920001600fa00000f9800120f9800230f98008d
:100930001e089000ae0890004007980051079800ec
:100940006000b80060079800710798000000eb0095
:10095000100798000000eb00000f780051003700ee
:100960001e007800800078000e0890000080400093
:1009700010407800404798009e0078000e089000d4
:10098000008040000000e8001040780050479800c8
:100990009e0078000e089000008040000080e80073
:1009a00010407800604798009e0078000e08900084
:1009b00000804000630040001040780070479800bd
:1009c0001e007800640f40002e0090003e01900051
:1009d0009e0890002e0a90008001780004007800a4
:1009e000be0307001e089000ae0890007f01600063
:1009f0006000b800030020000200700083807000d7
:100a00008201200003002000820f5000838f5800d5
:100a100008003a001e089000ae08900040079800b9
:100a2000510798002e009000be00900060079800cb
:100a3000710798001e0090000000e00010003200d6
:100a40001e0090000000e80080007800f003200005
:100a5000008060000000e00009003a006e00900095
:100a60007e019000ce0090005e0290008001780030
:100a70000400780099030700100024008c0307008d
:100a80001e089000ae08900062004000e080480020
:100a9000100f9800210f98001e0090000000e80041
:100aa000100798009e009000f01f2000808f5000db
:100ab000abff34000080fa00000006000000fa00de
:100ac0000000fe000080fa00000006001800fa0096
:100ad00070079800010f98006000b8004007980068
:100ae00051079800680147004300200040002000a3
:100af00041002000ee0107006000b80020079800c8
:100b0000310798006000b800008fbe004200370037
:100b10006c014700130020001e00be00e401070026
:100b20000000e0000300320010002000100f9800c9
:100b30005b003700f03f2000010020009e0178009c
:100b40001e0290000001780001007800028161001f
:100b5000000062006102b800240f9800350f980071
:100b60002e089000be089000c000dd0000002000ac
:100b7000200f9800310f98002e089000be089000ba
:100b80006112b800240f9800350f98002e099000cc
:100b9000be0990000200700083807000e00f5000da
:100ba000e08f58000f003a00d0c2bf000080fb0069
:100bb0004400de00614060000004a200614060006b
:100bc000614060004401dd00012d2000914078006b
:100bd000f0ceb30000c0600002407000d0e2b70069
:100be0000060fe004e4890000081fb0003002000e2
:100bf0002e009000be00900000004100818049005e
:100c000020079800310798001400200005002000fc
:100c10001e0f42005e974a007e0090008e089000f2
:100c2000be0f1000ae8f1800b9ff360068014700f4
:100c30004300200040002000410020009c010700ec
:100c40004e019000de0190000080eb008080eb0000
:100c5000800f5100818f59000f0032004e0090002c
:100c6000de009000e00f5000e08f58000a003200d4
:100c70004e019000de0190002e009000be0090001a
:100c8000800f5100818f590003003a008002eb0071
:100c9000150f98000200370010002000100f980078
:100ca0001e0890000080fa00000006000000fa0014
:080cb0000080fa0000000600bc
:100cb8000e00fa006000b80040079800510798003d
:100cc800c9c2bf00614060000004a200614060002a
:100cd80061416000912c200091407800e0cfb30082
:100ce80000c0600002407000c9e2b700d0c2bf0077
:100cf8000080fb004400de00614060000004a200a8
:100d080061406000614060004401dd00012d200069
:100d180091407800f0ceb30000c06000024070003f
:100d2800d0e2b7006801470043002000000020001f
:100d3800410020005c0107000000e00003003200d1
:100d48001000200060079800b50037004e019000a1
:100d5800de0190000080eb008080eb00800f5100e6
:100d6800818f5900050032004e009000de0090008f
:100d7800e00f5000e08f580003003a000000eb003d
:100d880060079800a60037004e009000de00900033
:100d98004cff07000000e000030032004000200084
:100da800600798009e0037000060fe00c9c2bf00bf
:100db800614060000004a200614060006141600081
:100dc800912c200091407800e0cfb30000c0600073
:100dd80002407000c9e2b700d0c2bf000080fb002b
:100de8004400de00614060000004a2006140600031
:100df800614060004401dd00012d20009140780031
:100e0800f0ceb30000c0600002407000d0e2b7002e
:100e18004460a800210420009140780000ceb3006f
:100e280000c0700042e0b70000002200010020006e
:100e380020079800310798000000240001002000d6
:100e4800008fbe0002802000038020001e00be002c
:100e5800150107000000e0000300320050002000e8
:100e6800600798006e003700ae0090003e009000ca
:100e780022042400a20207002e019000be01900067
:100e880000802000a4fe0700c9c2bf0061406000c6
:100e98000004a2006140600061416000912c2000c4
:100ea80091407800e0cfb30000c0600002407000bd
:100eb800c9e2b700d0c2bf000080fb004400de00da
:100ec800614060000004a200614060006140600071
:100ed8004401dd00012d200091407800f0ceb300e0
:100ee80000c0600002407000d0e2b7000060fe0061
:100ef8002e019000be01900000402000010020005b
:100f080002004000838048002007980031079800bd
:100f180000802000010020001e0f40005e9748005e
:100f28004e019000de0190000080200001002000aa
:100f38000200400083804800be0f5000ae8f58006a
:100f4800c0ff3e006000b8002007980031079800f5
:100f5800ae0090003e0090002204240068020700c2
:100f680002802000038020006000b800ce00070047
:100f78002e019000be0190000080200066fe070050
:100f8800c9c2bf00614060000004a2006140600067
:100f980061416000912c200091407800e0cfb300bf
:100fa80000c0600002407000c9e2b700d0c2bf00b4
:100fb8000080fb004400de00614060000004a200e5
:100fc80061406000614060004401dd00012d2000a7
:100fd80091407800f0ceb30000c06000024070007d
:100fe800d0e2b7000060fe0000802a002100200047
:100ff8002007980031079800ae0090003e0090004e
:10100800220424003e0207000000200041002000c6
:10101800db010700a7fe07000000eb00600798004f
:0c1028006e0090000080fa00000006003e
:101034000000fa0000042000001388000000eb0008
:1010440010138800b00120001013880062a2a800c9
:101054000000eb00201388006342a9006302a9008a
:1010640062c2a9006322a9009820a9008820a900cf
:1010740061e2a8000080fa00000006000000fa0007
:10108400e7e2a800e5e2a900e4c2a900e502a9009c
:10109400e4e2a8000080fa00000006000a00fa005a
:1010a400e7e2a900f00920004f0007000000e0007b
:1010b40005003200100020000100200030079800d5
:1010c400410798004400370040138000004f780027
:1010d4000000eb00440007000000e00005003200bf
:1010e40010002000010020003007980041079800fc
:1010f40039003700401380001e4078000080fb0058
:101104000100200010079800210798000000eb0060
:10111400350007000000e000050032001000200048
:101124000100200030079800410798002a0037008a
:1011340040138000004f78001e4078000080fb00c0
:10114400010020004809dd00c801de0083017100b0
:101154004801dd001e009000ae0090000200700007
:101164008380700010079800210798000000eb00ae
:101174001d0007000000e000050032001000200000
:101184000100200030079800410798001200370042
:1011940040138000004f78001e4078000080fb0060
:1011a40001002000c001dd00020020001e009000ac
:1011b400ae00900002007000838070001007980059
:1011c40021079800e7e2a8001e009000ae009000fe
:1011d40030079800410798003e009000ce00900030
:1011e4000080fa00000006000400fa00000f7800f6
:1011f40060c2bf00624060000004e000fcff3a00ef
:101204001e00780040138800100007000000e00072
:10121400030032001000200010079800020037007d
:101224000000eb00100798001e0090000080fa00f8
:10123400000006000000fa000000000000000000aa
:10124400000000000080fa00000006000400fa001c
:101254000000eb00000f78000600370060c2bf00fa
:10126400614060000004e00005003a00f1ff07005f
:101274001e0fe800900020009e0f1000f7ff3400be
:10128400900020009e0f1000030034002000200076
:1012940010079800020037000000eb0010079800c8
:1012a4001e0090000080fa00000006000c00fa0006
:1012b4001007980021079800320798004307980008
:1012c400e7e2a90030002000c7ff07000000e000ab
:1012d400030032001000200050079800400037003f
:1012e400401380001e009000ae0090004008de0015
:1012f400010020000080fb00bbff07000000e000ad
:101304000300320012002000520798003400370016
:10131400401380001e009000ae0090004809dd00dc
:101324004800de0000007100c808de000080fb00f9
:10133400adff07000000e0000300320010002000b1
:101344005007980026003700401380001e009000cc
:101354000080fb00a4ff07000000e000030032004f
:1013640012002000520798001d003700401380002f
:101374000000eb00000f7800130037000000eb00c2
:1013840099ff07000000e000030032001000200075
:10139400500798001200370060c2bf00614060002f
:1013a4000004e000fcff320040138000804078001d
:1013b4003e009000014878003e0090000000e800e4
:1013c400300798001e0fe8004e0090009e0f10009a
:1013d400eaff3900e7e2a8000001eb005207980099
:1013e4005e0090000080fa00000006000200fa008f
:1013f400e7e2a900600020007bff07000000e00096
:101404000300320010002000000f780004003700b1
:1014140040138000e7e2a8000000eb00000f780012
:101424001e0078000080fa00000006000600fa00a2
:10143400004f780011079800e7e2a9001e407800e9
:101444000080fb0068ff07000000e000030032009a
:1014540010002000200798000f0037004013800080
:101464000000eb0060ff07000000e0000300320012
:101474001000200020079800070037004013800068
:10148400804078001e00900001487800e7e2a80040
:101494000000eb00200798002e0090000080fa0066
:1014a400000006000000fa00000000000000000038
:1014b400000000000080fa00000006000600fa00a8
:1014c400600c2000303a880080042000203a880014
:1014d4003200200081072000a0092000337420007e
:1014e4008149780080497800824978001200200000
:1014f40061042000700520002374200081497800d5
:10150400804978008249780043c7bf0002c7b3000e
:101514008240600000c3b30080cf5000faff3a005d
:101524000080eb00000f7800030037001e007800f5
:101534000000e900000f780042c7bf000042b2007b
:101544000004e00003003a001e0078000000e00000
:10155400f6ff3a001f0107000000eb0080ff89003e
:10156400d5c2bf00684060000004e0002c003a00cf
:10157400f30007002e000700c9c2bf0061406000ed
:101584000004a2006140600061416000912c2000d1
:1015940091407800e0cfb30000c0600002407000ca
:1015a400c9e2b700cbc2a9009680a9009aa0a900fd
:1015b4009400a9009efe0700b0fe0700b7fe0700d6
:1015c40010079800210798004e409000f24f5000f9
:1015d400030036004e409000f44f500003003600e4
:1015e4006000200080ff89000d003700c9c2bf00e1
:1015f400614060000004a20061406000614160003d
:10160400912c200091407800e0cfb30000c060002e
:1016140002407000c9e2b700a6fd070080ff890000
:10162400b50007000000eb000080fa00000006008f
:101634000000fa000000eb00200888008460a90084
:10164400510a200091407800f0c8b30000c0600047
:1016540001c4b30001407000a5e0b7009460a90084
:101664000000eb00000888000080eb0010088800f0
:101674004110200091407800f0ccb30000c060001d
:1016840004e1b7000421a9000000eb0080088800f1
:1016940084e0a900710a200091407800f0c8b300ea
:1016a40000c0600001c4b30001407000a7e0b700af
:1016b4000000eb003008880000e224006008880085
:1016c4000111200091407800f0ccb30000c060000c
:1016d40010e1b7001021a9000000eb009008880079
:1016e4008500a9000000eb005008880000e22400f7
:1016f400700888002111200091407800f0ccb300dc
:1017040000c0600012e1b7001221a900810a200084
:101714009140780080cfb30000c060000024a00096
:10172400a8e0b7000000eb00f00888008760a9007b
:10173400110b200091407800f0c8b30000c0600095
:1017440001c4b30001407000b1e0b7009760a80085
:101754000000eb00a008880000532700d008880090
:10176400e111200091407800f0ccb30000c060008b
:101774001ee1b7000421a90005e1a8000080fa00d9
:04178400000006005b
:101788000800fa00100798002107980016ff0700c4
:101798000000e0000300320010002000300798002d
:1017a8003b003700e7e2a900000220008dfe070099
:1017b8000000e00003003200120020003207980009
:1017c80033003700401380001e009000ae009000e8
:1017d8004008de00010020000080fb0081fe0700b9
:1017e8000000e000030032001000200030079800dd
:1017f80027003700401380001e009000ae009000c4
:101808004809dd004800de0000007100c808de005d
:101818000080fb0073fe07000000e00003003200b8
:10182800100020003007980019003700401380008e
:101838001e0090000080fb006afe07000000e00028
:101848000300320012002000320798001000370011
:1018580040138000e7e2a8008e00780050c0b30073
:10186800f1fe0700e10f500003003a0010002000cd
:1018780030079800060037001e00780061006000fd
:101888000000e000f4ff3a000001eb003207980086
:101898003e0090000080fa000000060090018800d9
:1018a8008100780000000600003b880050052000f9
:1018b800303b8800a00a2000303b880061e7a80080
:1018c800000000000000000061e7af00feff3700e5
:1018d80000000600900188008308bb008288bb00d6
:1018e80000000600900188001100ba009180ba003b
:1018f80000000600002004000000000000000600b0
:101908003200f800023b8800900188008108bb0083
:1019180050052000303b8800a00a2000303b88009a
:1019280061e7a800000000000000000061e7af00c8
:0c193800feff37003200f900000006003e
:101944000000fa000060fe000080fa0000000600bb
:101954000200fa0042c0bf000080fb004500de0028
:101964000080fb001080880090028000000f780047
:10197400ff3ffc00210420009140780000ceb3001a
:1019840000c0700042e0b7001e007800900288009a
:101994000080fa00000006000200fa0090028000b5
:1019a400000f7800ff3ffc0010808000674060005b
:1019b400c500dd0042c0bf007f40600001407000f0
:1019c40042e0b7001e007800900288000080fa0010
:1019d400000006000000fa000080eb0000168800fa
:1019e400c000200000368800f08f280030168800e0
:1019f400cbc2a90030fe2d0060168800f0bf2f0076
:101a040090168800d742a8000080eb00c01688001a
:101a1400f01b2300f016880000042000f036880034
:101a2400e0c2a800f0c327002017880000f02f00b0
:101a3400601988000080eb00501988000080fa00cb
:041a44000000060098
:101a48000210000002000000000000000008000072
:0c1a580002080000000000000000000078
:081a64000040da000000fe0062
:1040000031168000f0ef2f00301688005116800026
:10401000001020000080680050168800845e0400b4
:10402000000000004ff92000007f240000018800fc
:104030000000000051168000001020000080680081
:104040005016880010000700c0c62500010020009f
:1040500015000700000020000000e000060032000c
:104060000000020000000000b116800000002200e5
:1040700000806800b016880052390200000000007d
:104080000040da000000fe004440a900204120006a
:104090000000e0000300320000002000a0018800c2
:1040a0004440a800000006009101880080007800cc
:1040b0000000eb0015003700e280400032a0b400a1
:1040c0009101ba00e280400032a0b4009102ba002f
:1040d000e280400032a0b4000002eb00472bde007b
:1040e000f507b200602ce10004003a000059eb0033
:1040f0008301e900fdff3e00040037006128e10074
:10410000010032000082eb00040007001101ba0038
:104110000200e000e8ff3a00000006003159ba0052
:104120008301e9000c0032002159ba008301e90043
:10413000080032000400e00003003a00e280400082
:1041400032a0b400f5ff370011d9ba008301e900ad
:10415000faff3a008100e800e180400032a0b4009c
:10416000000006000a600400000000001460040063
:10417000000000003200f800910188008002780001
:1041800062004000e08048003549ba003204e00097
:104190000410a700100032008301e9000e00320075
:1041a0002549ba003204e0000410a7000a003200da
:1041b0008301e900080032000408a300eeff32008a
:1041c00015c9ba003204e0000410a7000200320052
:1041d0008301e900e8ff3a003200f9000000060020
:1041e0006022b800060220000000d0008180d200ca
:1041f0000482d2008582d2000000a0000202520098
:1042000083825a00030031000202420083824a0086
:104210000000a1000603e900f3ff3a0000000600d9
:10422000881f7800000478005001be004000be00e6
:10423000040040008580480006014900878149004c
:10424000009cbe000294be000400e1000588e1006d
:104250000690e1000798e100020031006800440088
:104260001008e8004f04780000000600f4874700bb
:10427000889fbe008a9fbe008c9fbe008e1f780064
:104280000205be000004be00d4b79f00e5b79f0042
:10429000f6b79f0087bf9f000000eb00c0b79f00ec
:1042a000b0b79f00a0b79f0090b79f0080b79f0056
:1042b0000d042000bfb097004fb0970000014000f0
:1042c0000000e0000f003d004f08de00000071001c
:1042d000c0b79f009e00070001003d0012002000b3
:1042e000a100070001003d0012002000a600070009
:1042f000b1000700b60007000f004000c8ff07002c
:10430000220037004f08de0000067100ccb79f0086
:104310008f00070001003d001200200092000700fe
:1043200001003d001200200097000700a2000700d6
:104330000fb297009fb297002fb39700bfb39700bb
:10434000a90007000000520081805a0002015b00b2
:1043500083815b0080b79f0091b79f00a2b79f0049
:10436000b3b79f000007eb009f0007000020e100ab
:1043700001a8e10002b0e10003b8e1000100310052
:104380001e0020000e005600c0b79f004fb29700dd
:104390000400e000070035001000200001002000ac
:1043a0006011b80008047000898470000a0571006b
:1043b0008b8571008d06e900beff3a000400e00025
:1043c00003003d00820007000f00400094ff07003b
:1043d0004fa897000000e00004003a000fb49700d7
:1043e0009fb497002fb59700bfb5970094000700c2
:1043f0004f0778004f06be004f05be004f04be00b9
:104400004f01b10000000600881f7800180020004e
:10441000881f780095ff07008f87e9004f04780018
:1044200000000600801feb0090ff07008f87e90067
:1044300000000600889fbe008a9fbe008c1f780087
:104440006e00070007003d0073000700e00f5b00ef
:10445000e08f5b0007003d00320007000006eb0024
:10446000040037003400070002003d002a00070066
:104470001c00200072000700e3ff07000203be00db
:104480000002be000c00e000010032002200070024
:104490000400be000601be004f0678004f05be00b6
:1044a0004f04be0000000600889fbe008a9fbe0029
:1044b0008c1f78005100070005003d0056000700e2
:1044c000e00f5b00e08f5b0006003d00040037005a
:1044d0001900070003003d006000b8006011b8003b
:1044e0001000070056000700ceff07000203be00c1
:1044f0000002be000c00e0000100320006000700d0
:104500000400be000601be004f0678004f05be0045
:104510004f04be00000006006000b8006011b80043
:10452000000037000402500085825800060359003d
:1045300087835900000006000006eb00e00f5200e0
:10454000e08f5a00e00f5b00e08f5b000000060088
:104550000180400090b79f000001eb008fb09700f2
:104560000100e000000006000200700090b79f000c
:104570000180400080b79f000001eb00ffa897007a
:104580000100e000000006000200700080b79f00fc
:10459000018040006faa9700cf20de00010070006c
:1045a000f0af9f0004024200250007004f18de0014
:1045b0000002720000000600e4af9f0008044400ff
:1045c00089844c000a054d008b854d0000000600d3
:1045d0003fb29700cfb297005fb39700efb3970059
:1045e00000fe2f00000006003fb09700cfb09700fc
:1045f0005fb19700efb19700000006000205be0012
:104600000004be00e00f5000e08f5800e00f59009a
:10461000e08f5900000006006000b8006011b8008b
:1046200008045000898458000a0559008b855900f8
:104630001c002000e00f5200e08f5a00000006002e
:104640000800be000a01be00000006000000fa00db
:10465000cfb897006881570060d72000930007000b
:104660000080fa00000006000000fa00cfb89700b2
:104670006881570060d720008c0007000080fa0096
:1046800000000600889fbe00000178000104780049
:10469000b10090000118a3003d0032000198a30072
:1046a00003003a00180090000000e00038003a00d3
:1046b0000190a0003104980082047800f90fb20044
:1046c000180090000000e00002003a00280090006e
:1046d000000c7800ea8f540006003a003800900081
:1046e0000078a30003003a0088007800d000200082
:1046f000e4ff07009800900058009000808f500061
:104700000b0032000100e800100498001800780047
:1047100009587800000c780011c0b30020d920009f
:1047200001487800ea8f5400060032001900370073
:10473000880078000940780019000700800478009c
:1047400014003700380090000088a30011003200e8
:1047500018019000a800900048009000d91c0700a4
:1047600098009000810f5000040032003800900043
:104770000003b300300498008084eb000000eb00dd
:104780001004980028009000000c78000100370009
:104790008084eb00090078004f04be000000060092
:1047a0000200fa00889fbe00a0ff9f00010478006d
:1047b000b1009000810478000904b20002003200c8
:1047c0000000fb00360037000118a30005003a0086
:1047d0000103b30031049800190498000080eb0035
:1047e0002f003700580090000000e00006003a005b
:1047f0004800900012002000e6805700b11c07001e
:104800001904980024003700280090000000e00000
:1048100008003a00e0d8200020049800000c78003e
:104820002000200050049800100498000130a000df
:104830003104980018019000a800900048009000f2
:10484000a01c070028009000000c78000080eb00fe
:104850001004980018007800aff89700015878000d
:10486000000c78002ff89700ea4f50000a003a0039
:10487000380090000088a300070032001801900063
:10488000a8009000480090008e1c070019049800b2
:10489000a8009000010c7800aff897000100fb0021
:1048a0004f04be000080fa0000000600fe874700ab
:1048b000889fbe008a9fbe008c9fbe008e1f78001e
:1048c000f0b79f000107780082bf9f000000eb0057
:1048d000a0b79f009f0237008006eb0050c2b300d4
:1048e00080cf5000090032000100fb00ffb09700ac
:1048f00064ff0700e10f400096023200afb097005e
:104900008100e800a1b79f00920237009e40780026
:10491000d0c2b30080cf50000c00320007003c0032
:104920006d40500080cf50000a0032006b404000c4
:1049300080cf50000e003a000800370000c3b300db
:1049400080cf50000a003a00060037000d30a0006a
:10495000050037000d00a000030037000d10a00077
:10496000010037000d20a0000e07e800e7ff370028
:104970000d18a300010032000d00a1000d38a300a6
:10498000010032000d20a1000100fb0002fd2f00fc
:1049900002004000e90f50000e003e000002eb0054
:1049a000c4b79f0082017800cfb297006a28b9008f
:1049b0001e01fb000001410003014100c2b79f003e
:1049c0005e00fb0003004000e90f50000b003e00ba
:1049d000f5ff37000006eb00ccb79f00a0c2b30084
:1049e00080cf500005003a000fb89700c000780053
:1049f00080bf9f00c1b79f000e07e8000001eb00d9
:104a0000b2b79f00e0c2b3009e4f100018003a00fa
:104a10000de0a0008e00e80064405000914f1000af
:104a200002003200010778000c0037000fba97002f
:104a3000c402780084bf9f00b5b79f000e87e800ce
:104a40000b0037003fb697006a60b90000004100d4
:104a500003004000b0b79f000e07e8001e01fb00f6
:104a600003fd2f0003004100e90f5000f5ff360061
:104a7000be407800e1d79f00c0c6b30080cf500091
:104a8000220032000f003c006940500080cf5000ef
:104a90007700320004003c000104e00031023200e3
:104aa0006b4050000f00370040c6b30080cf50006d
:104ab000930032006540400080cf50008b003a00e8
:104ac0008f00370030c7b30080cf50001a0032008b
:104ad00007003c006440500080cf500011003200bd
:104ae0000040e80080cf500080003a000f003700ff
:104af00050c7b30080cf50008000320063404000b8
:104b000080cf500079003a000900370000002800eb
:104b10000d48a30001003a000001200080867600c5
:104b2000d3ff37000d60a000750037000d50a000c6
:104b30000d70a000720037008fb897004100780018
:104b400081bf9f00000478000000e00001003a00ef
:104b5000e8d320008004eb00010037008104e80066
:104b600089007800088044001004e000fbff3a0050
:104b70003fb197000200e00003003200890f5100ae
:104b800001003100820478000002eb00e4af9f00d6
:104b9000cfb29700898f5200020036000980520080
:104ba000e0af9f004368de00e10660001b003a00b2
:104bb0000d06780009003700ffb0970000022000c2
:104bc000b0fe0700e10f4000030032002fb0970055
:104bd0000000e800a0b79f000c06e800efa89700cf
:104be000810f5600f4ff3a000081eb00e2af9f0016
:104bf0000a003700880078003100fb0001047800cb
:104c0000ffb097009ffe0700e10f40000300320055
:104c10002fb297000402e800a4b79f000900e90042
:104c200080047800e10f4000f2ff3a000006eb003c
:104c30000d00e0000a003a00c6013700ffb09700ff
:104c4000000220008ffe0700e10f40000300320049
:104c5000afb297008502e800a5b79f000c06e800f8
:104c60006fa89700800f5600f4ff3a00b901370093
:104c70008fb897004100780081bf9f00cf80de0091
:104c800001017800820178000205be000004be0028
:104c90000203be000002be004822de00482edd00f6
:104ca00004027600e4d79f000d48a3000a003200fa
:104cb0000404e00008003200e14f42000600320028
:104cc00071fd2f00018047000448780018409800cb
:104cd0002900200002003700f0d79f0019002000b3
:104ce00072fd2f0002844700a1ff370064fd2f00f2
:104cf00004844700190020009dff37000d0cb3000d
:104d00000d007800000cb20028003a000d00e00011
:104d100005003d008fba97004505be004504be0062
:104d200085bf9f00140037000d48a3000b00320020
:104d30000fbe97004c00be008cbf9f004f89de0065
:104d4000cf91de000002be000203780082037800eb
:104d50000605be000404be00070037008fb89700a8
:104d60004100780081bf9f0000047800cfc4de00be
:104d7000090578008a057800e00f5400e08f5c0098
:104d8000e00f5d00e08f5d001f003d003d00b300bf
:104d90006000b8006011b800080450008984580011
:104da0000a0559008b855900170037000d00e000f7
:104db00005003d000fb997004205be004204be0049
:104dc00082bf9f00100037000d48a300070032008b
:104dd0000fba97004400be0084bf9f006011b80066
:104de0000205be000004be00070037008fba97001e
:104df0004500780085bf9f0000047800090020006e
:104e00000a0020000b0020003fb697000c00e000d5
:104e100007003a00e00f5400e08f5c00e00f5d00f7
:104e2000e08f5d0002003a0010002000b0b79f0044
:104e30008d007800010cb200e1b79f000004200053
:104e4000808f50003000320003003c000100e00081
:104e50000800320040003700000820006fb19700c2
:104e6000800f510014003200000c2000800f510010
:104e700039003a0014c0b300e5c920000b00370028
:104e80000400fb004300dd00050040005001be00af
:104e90004000be000040e10001c8e10002d0e10096
:104ea00003d8e1002b0039000442e800f44f52001f
:104eb000f3ff3a0027003700000120000100200026
:104ec0006011b80014c0b3000040e10001c8e10067
:104ed00002d0e10003d8e1001e00390045002000a7
:104ee0000000d0008180d2000281d2008381d200f4
:104ef0008502e900faff3a000442e800f04f520050
:104f0000f1ff3a001300370080002000010020006c
:104f10006011b80014c0b3000040e10001c8e10016
:104f200002d0e10003d8e1000a0039003c00200073
:104f30000000d0008180d2000281d2008381d200a3
:104f40000c06e900faff3a000442e800f54f52006f
:104f5000f1ff3a00e4d79f00efd097000100fb007b
:104f60003fb19700820f500002003d00e2d79f0042
:104f7000040037003fb29700800f520001003d004f
:104f8000b0b79f00cfb297000500e00004003200e8
:104f900063806600020032008502e900c5b79f0009
:104fa0000de8a3000b0032004fb697003fb097000a
:104fb000800f560003003c008000eb00c1b79f004b
:104fc000040037004fb197003fb297000401510031
:104fd000c2b79f00efd297000500fb000006eb0070
:104fe000dcaf9f00cfb09700808f500002003400ec
:104ff00000805000d0af9f000d28a3003700320082
:10500000e18066000d18a3000c003200d0022000e1
:105010000100e00001003a000080e900ffb09700c5
:1050200098fd0700e10f40000e0032002fb19700fd
:105030000201e800a2b79f000a0037000100e0006b
:1050400008003200ffb09700000220008dfd07002d
:10505000e10f4000030032002fb297000402e80085
:10506000a4b79f00dfaa97000500e0000f00320000
:105070000006eb00ffb097000003200081fd070051
:10508000e10f4000030032002fb097000000e8005d
:10509000a0b79f000c06e800dfa89700810f56001c
:1050a000f4ff3a000001eb00d2af9f003fb297003f
:1050b000c320dd0060c920008080400091b79f00c0
:1050c0004220dd006400500080b79f006320b900db
:1050d000f0af9f006306500084003700dfaa9700fe
:1050e0000500e00011003200688066000f003a0001
:1050f00000067800ffb097000002200061fd070065
:10510000e10f4000030032002fb097000000e800dc
:10511000a0b79f000c06e800dfa89700810f56009b
:10512000f4ff3a000001eb00d2af9f00e18066007f
:105130000d18a3000c003200d00220000100e00096
:1051400001003a000080e900ffb097004dfd070024
:10515000e10f4000d5ff32002fb297000402e800b3
:10516000a4b79f00d1ff37000100e000cfff32005d
:10517000ffb097000002200042fd0700e10f400051
:10518000caff3200afb297008502e800a5b79f00c2
:10519000c6ff370000042000efb09700808f50005a
:1051a0003100320003003c000100e0000800320042
:1051b0003e003700000820006fb19700800f5100bb
:1051c00011003200000c2000800f510037003a001f
:1051d0001fb097003002be002003be000800be00d2
:1051e0000a01be0088fc0700a40020000500200082
:1051f0006033b8008bfc070004c3b30004424000d6
:10520000e4d79f002900370055d42000d5b79f0070
:105210000d58a30002003a0060d52000d0b79f00cf
:1052200014002000050020006033b8008fb0970004
:105230008100e900050033000402d0008582d2001d
:105240000683d2008783d200f9ff37000800be0032
:105250000a01be006cfc07006f0060005fb19700a0
:105260006240780010003700140020000500200084
:105270006033b8000c0078000000e900050033003e
:105280000402d0008582d2000683d2008783d20038
:10529000f9ff37000800be000a01be005afc0700f3
:1052a000674060000043b000e0d79f00efd0970058
:1052b0000100fb00ffb09700f2fc0700e10f400087
:1052c000030032002fb197000201e800a2b79f004f
:1052d0001fb297006802520094b79f008fb29700e8
:1052e000e482520085b79f0063065600d0ff2f006e
:1052f0003fb197000090b9007faa970000004200dc
:1053000063005000800f5600a2ff3a000d38a30042
:1053100010003200dfaa97000500e0000d00340005
:105320000006eb00ffb0970000022000d5fc07004c
:10533000e10f4000030032002fb097000000e800aa
:10534000a0b79f000c06e800dfa89700810f560069
:10535000f4ff3a00be407800e1d79f000104e0006e
:105360005dfd3a002fb097004f0778004f06be0052
:105370004f05be004f04be00ef01b1000000060063
:0200000401f009
:04000800fdff0000f8
:04000c00fbff0000f6
:04001000bdff000030
:04001400f7ff0000f2
:04001c00dfff000002
:020000040000fa
:100008001e6000001e6000001e6000001e600000f0
:100018001e6000001e6000001e6000001e600000e0
:10002800dc4a00001e6000001e6000004a59000003
:100038001e6000001e6000001e6000005e59000087
:100048007e5900001e6000001e6000000c50000079
:100058007a5000001e6000001e6000001e60000054
:100068001e6000001e6000001e6000001e60000090
:10007800de3800001e6000001e6000001e600000e8
:100088001e6000001e6000001e6000009259000003
:10009800a65900001e600000b25100001e6000005a
:1000a8001e6000001e6000001e6000001e60000050
:1000b8001e6000001e6000001e6000001e60000040
:1000c8001e6000001e6000001e6000001e60000030
:1000d8001e6000001e6000001e6000001e60000020
:1000e8001e6000001e6000001e6000001e60000010
:1000f8001e6000000a3900001e6000001e6000003b
:100108001e6000001e6000001e6000001e600000ef
:100118001e6000001e6000001e6000001e600000df
:100128001e6000001e6000001e6000001e600000cf
:100138001e6000001e6000001e6000001e600000bf
:100148001e6000001e6000001e6000001e600000af
:100158001e6000001e6000001e6000001e6000009f
:100168001e6000001e6000001e6000001e6000008f
:100178001e6000001e6000001e6000001e6000007f
:100188001e6000001e6000001e6000001e6000006f
:100198001e6000001e6000001e6000001e6000005f
:1001a8001e6000001e6000001e6000001e6000004f
:1001b8001e6000001e6000001e6000001e6000003f
:1001c8001e6000001e6000001e6000001e6000002f
:1001d8001e6000001e6000001e6000001e6000001f
:1001e8001e6000001e6000001e6000001e6000000f
:0801f8001e6000001e60000003
:100208001e6000001e6000001e6000001e600000ee
:100218001e6000001e6000001e6000001e600000de
:10022800dc4a00001e6000001e6000004a59000001
:100238001e6000001e6000001e6000005e59000085
:100248007e5900001e6000001e6000000c50000077
:100258007a5000001e6000001e6000001e60000052
:100268001e6000001e6000001e6000001e6000008e
:10027800de3800001e6000001e6000001e600000e6
:100288001e6000001e6000001e6000009259000001
:10029800a65900001e600000b25100001e60000058
:1002a8001e6000001e6000001e6000001e6000004e
:1002b8001e6000001e6000001e6000001e6000003e
:1002c8001e6000001e6000001e6000001e6000002e
:1002d8001e6000001e6000001e6000001e6000001e
:1002e8001e6000001e6000001e6000001e6000000e
:1002f8001e6000000a3900001e6000001e60000039
:100308001e6000001e6000001e6000001e600000ed
:100318001e6000001e6000001e6000001e600000dd
:100328001e6000001e6000001e6000001e600000cd
:100338001e6000001e6000001e6000001e600000bd
:100348001e6000001e6000001e6000001e600000ad
:100358001e6000001e6000001e6000001e6000009d
:100368001e6000001e6000001e6000001e6000008d
:100378001e6000001e6000001e6000001e6000007d
:100388001e6000001e6000001e6000001e6000006d
:100398001e6000001e6000001e6000001e6000005d
:1003a8001e6000001e6000001e6000001e6000004d
:1003b8001e6000001e6000001e6000001e6000003d
:1003c8001e6000001e6000001e6000001e6000002d
:1003d8001e6000001e6000001e6000001e6000001d
:1003e8001e6000001e6000001e6000001e6000000d
:0803f8001e6000001e60000001
:105380000000000000000000000000001d00000000
:105390000f000000070000000400000003000000f0
:1053a000000000000000000000c10000814000007b
:1053b00001c000008041000001c0000080410000e9
:1053c00000c100008140000001c0000080410000d9
:1053d00000c100008140000000c1000081400000c9
:1053e00001c000008041000001c0000080410000b9
:1053f00000c100008140000000c1000081400000a9
:1054000001c000008041000000c100008140000098
:1054100001c000008041000001c000008041000088
:1054200000c100008140000001c000008041000078
:1054300000c100008140000000c100008140000068
:1054400001c000008041000000c100008140000058
:1054500001c000008041000001c000008041000048
:1054600000c100008140000000c100008140000038
:1054700001c000008041000001c000008041000028
:1054800000c100008140000001c000008041000018
:1054900000c100008140000000c100008140000008
:1054a00001c000008041000001c0000080410000f8
:1054b00000c100008140000000c1000081400000e8
:1054c00001c000008041000000c1000081400000d8
:1054d00001c000008041000001c0000080410000c8
:1054e00000c100008140000000c1000081400000b8
:1054f00001c000008041000001c0000080410000a8
:1055000000c100008140000001c000008041000097
:1055100000c100008140000000c100008140000087
:1055200001c000008041000000c100008140000077
:1055300001c000008041000001c000008041000067
:1055400000c100008140000001c000008041000057
:1055500000c100008140000000c100008140000047
:1055600001c000008041000001c000008041000037
:1055700000c100008140000000c100008140000027
:1055800001c000008041000000c100008140000017
:1055900001c000008041000001c000008041000007
:1055a00000c100008140000000c00000c1010000f7
:1055b000c303000002c20000c606000007c70000c7
:1055c00005c50000c4040000cc0c00000dcd000097
:1055d0000fcf0000ce0e00000aca0000cb0b000067
:1055e000c909000008c80000d818000019d9000037
:1055f0001bdb0000da1a00001ede0000df1f0000c7
:10560000dd1d00001cdc000014d40000d5150000d6
:10561000d717000016d60000d212000013d30000e6
:1056200011d10000d0100000f030000031f1000076
:1056300033f30000f232000036f60000f7370000c6
:10564000f535000034f400003cfc0000fd3d000096
:10565000ff3f00003efe0000fa3a00003bfb000066
:1056600039f90000f838000028e80000e9290000b6
:10567000eb2b00002aea0000ee2e00002fef0000c6
:105680002ded0000ec2c0000e424000025e50000d6
:1056900027e70000e626000022e20000e3230000e6
:1056a000e121000020e00000a060000061a10000f6
:1056b00063a30000a262000066a60000a7670000c6
:1056c000a565000064a400006cac0000ad6d000096
:1056d000af6f00006eae0000aa6a00006bab000066
:1056e00069a90000a868000078b80000b979000036
:1056f000bb7b00007aba0000be7e00007fbf0000c6
:105700007dbd0000bc7c0000b474000075b50000d5
:1057100077b70000b676000072b20000b3730000e5
:10572000b171000070b00000509000009151000075
:1057300093530000529200009656000057970000c5
:1057400055950000945400009c5c00005d9d000095
:105750005f9f00009e5e00005a9a00009b5b000065
:1057600099590000589800008848000049890000b5
:105770004b8b00008a4a00004e8e00008f4f0000c5
:105780008d4d00004c8c00004484000085450000d5
:1057900087470000468600008242000043830000e5
:1057a0004181000080400000005e0000bce200007b
:1057b000613f0000dd830000c29c00007e200000ed
:1057c000a3fd00001f4100009dc30000217f0000d9
:1057d000fca20000401e00005f010000e3bd0000cd
:1057e0003e60000082dc0000237d00009fc10000bd
:1057f000421c0000fea00000e1bf00005d030000ad
:1058000080de00003c620000bee00000025c0000a0
:10581000df810000633d00007c220000c09e00008c
:105820001d430000a1ff000046180000faa400007c
:10583000277900009bc5000084da0000386600006c
:10584000e5bb000059070000db8500006739000058
:10585000bae400000658000019470000a5fb00004c
:1058600078260000c49a0000653b0000d98700003c
:10587000045a0000b8e60000a7f900001b4500002c
:10588000c69800007a240000f8a60000441a000020
:1058900099c70000257b00003a64000086d800000c
:1058a0005b050000e7b900008cd20000306e0000fc
:1058b000edb30000510f00004e100000f2ac0000ec
:1058c0002f71000093cd0000114f0000adf30000d8
:1058d000702e0000cc920000d38d00006f310000cc
:1058e000b2ec00000e500000aff10000134d0000bc
:1058f000ce900000722c00006d330000d18f0000ac
:105900000c520000b0ee0000326c00008ed000009f
:10591000530d0000efb10000f0ae00004c1200008b
:1059200091cf00002d730000ca940000762800007b
:10593000abf500001749000008560000b4ea00006b
:1059400069370000d58b000057090000ebb5000057
:10595000366800008ad4000095cb0000297700004b
:10596000f4aa000048160000e9b70000550b00003b
:1059700088d60000346a00002b75000097c900002b
:105980004a140000f6a80000742a0000c89600001f
:10599000154b0000a9f70000b6e800000a5400000b
:1059a000d78900006b35000042790000706100006b
:1059b00073730000205300007461000074650000e0
:1059c0002069000073200000256400000d00000025
:1059d0004d610000696e00002050000065720000fb
:1059e0006d69000074200000526500006c610000c9
:1059f00079200000436c00006f73000065640000b4
:105a00000d0000000000000042610000636b000018
:105a100020500000657200006d69000074200000d5
:105a2000526500006c61000079200000436c0000aa
:105a30006f730000656400000d000000426100000b
:105a4000636b000020500000657200006d6900006b
:105a500074200000526500006c6100007920000095
:105a60004f700000656e00000d00000050720000d5
:105a70006f62000065200000537400006174000034
:105a8000652000006973000020250000640d0000ff
:105a900000500000657200006d6900007420000075
:105aa00053740000617400006520000069730000f9
:105ab00020250000640d0000000000000000000030
:105ac00000000000000000001004000007020000b9
:105ad0000301000081000000400000000000000001
:105ae00000000000220b0000f6090000ca080000b8
:105af0009e07000072060000460500001a04000020
:105b0000ee020000c20100009600000044650000a3
:105b10006c6100007955000053200000746900009a
:105b20006d6500006f7500007421000020540000b6
:105b30004d520000313a000020300000782500006e
:105b400030340000580a00000000000043750000d7
:105b500072720000656e0000742000005374000033
:105b6000617400007573000020690000732000005c
:105b7000257800000a0d000000000000ff00000072
:105b80000f0f0000333300005555000000000000e7
:105b900000ff00000f0f00003333000055550000d8
:045ba0000000000001
:105ba4000000fa00cba2a800cb82a9000040eb00c1
:105bb40050e8b7000040eb003debb70010c0b30065
:105bc400dae8b7000040eb003cebb700104080007f
:105bd400306488000080fa00000006000000fa002b
:105be400c8c8bf000004e00007003200cba2a9002f
:105bf400cb82a90010c0b300dae8b7000040eb0084
:105c040038ebb70011003700cba2a800cbc2bf000d
:105c14000080fb004400de00614060000004a2003c
:105c240061406000614060004401dd00b12c20004f
:105c340091407800f0ceb30000c0600002407000d4
:105c4400cbe2b70010c0b30038ebb7000080fa0015
:105c5400000006000000fa00cba2a900cb82a90034
:105c64000040eb00e9e8b700d1598000f0bf2f00f5
:105c740000806000d05988000040eb00dae8b700eb
:105c84000040eb003debb7000040eb0038ebb70001
:105c94000040eb0039ebb7000040eb0073e8b700bd
:105ca4000040eb00b6e8b7000080fa0000000600f0
:105cb4000000fa00cb22a800cb42a900d042a800e1
:105cc400a01680000080fb000080fa00000006009f
:105cd4000000fa00cb22a900cb42a800d042a800c1
:105ce400a01680000080fb000080fa00000006007f
:105cf4000200fa000040eb004fe8b700ecff070099
:105d04004ae8b7004ac8bf004ce8b7004cc8bf0017
:105d14004be8b7000040eb00004f78000600370066
:105d24009e80fb00108520008080400030c0b300be
:105d3400804878001e4fe80070c0b3009e4f1000ea
:105d4400f7ff36000080fa00000006000000fa00a9
:105d54000040eb0073e8b7000040eb0075e8b700c3
:105d64000000eb00f04588000040eb00b8e8b70005
:105d74000000eb00104688000000eb00204688007d
:105d840040c0b300c1e8b70020c0b300c0e8b7000a
:105d94000080fa00000006000000fa004ac8bf00b4
:105da4004be8b700c2ff07004ae8b7000080fa00da
:105db400000006000200fa00bdff07004ae8b70031
:105dc400a1842000914078004bc8bf0000c0680047
:105dd4004de8b700e1842000914078004dc8bf0031
:105de40000c070004ee8b7000040eb00004f7800a0
:105df400fc0037004fc8bf008080fb001e80fb0002
:105e04000008de00610060000004e000660032006b
:105e14004dc8bf008080fb001e80fb000008de0030
:105e2400610060000004e000450032009e80fb0039
:105e3400a086200080804000d0c7b300804878004e
:105e440010408000004178009e80fb00a085200067
:105e540000804000104078000040510059e8b7002d
:105e640059c8bf000081fb009e80fb0020862000f3
:105e740000804000104078000080fb00800041005a
:105e8400d0072000808f5000190034009e80fb0052
:105e9400100020000100dd0080c0ea004fc8bf00f0
:105ea40000c060004fe8b7009e80fb009285200090
:105eb40012417800208620000080400002487800cb
:105ec4001e81fb001040800080407800a0852000e7
:105ed40000004100014878009e80fb0010852000ee
:105ee4008080400030c0b30080487800bc00370098
:105ef4009e80fb00100020000100dd00804078003f
:105f040050c8bf0000c0700050e8b7009e80fb007e
:105f140092852000124178002086200000804000f5
:105f2400024878001e81fb00104080008040780009
:105f3400a08520000000410001487800a800370037
:105f44009e80fb00a0862000008040001040780066
:105f54000041e900a086200000804000024878004b
:105f6400a086200000804000104078000004e0007b
:105f74009b003a009e80fb0010852000808040003a
:105f840030c0b300804878009e80fb0010002000e1
:105f94000100dd0080c0ea004fc8bf0000c06000ff
:105fa4004fe8b7008e0037009e80fb00a0862000db
:105fb40000804000104078000004e00064003200db
:105fc4001e81fb00a08620000000410010407800e4
:105fd4008040e900a08620000000410001487800cc
:105fe4004dc8bf008080fb001e80fb000008de005f
:105ff400610060000004e000790032009e80fb0034
:10600400a086200080804000d0c7b300804878007c
:1060140010408000004178009e80fb00a085200095
:1060240000804000104078000040510059e8b7005b
:1060340059c8bf000081fb009e80fb002086200021
:1060440000804000104078000080fb008000410088
:10605400d0072000808f5000120034009e80fb0087
:1060640092852000124178002086200000804000a4
:10607400024878001e81fb001040800080407800b8
:10608400a085200000004100014878009e80fb00ac
:10609400108520008080400030c0b3008048780024
:1060a4004f0037009e80fb001085200000804000d8
:1060b400104078000041e900108520000080400075
:1060c40002487800108520000080400010407800cd
:1060d4000004e0000300320046c8bf00e54f500052
:1060e4000e003a009e80fb00100020000100dd003d
:1060f400804078004fc8bf0000c070004fe8b70070
:106104009e80fb00100020000100dd00804078002c
:1061140050c8bf0000c0700050e8b7009e80fb006c
:1061240092852000124178002086200000804000e3
:10613400024878001e81fb001040800080407800f7
:10614400a0852000000041000148780024003700a9
:106154004dc8bf008080fb001e80fb000008de00ed
:10616400610060000004e000160032009e80fb0025
:10617400a086200080804000d0c7b300804878000b
:106184009e80fb002086200080804000d0c7b300a2
:10619400804878001e81fb00104080008040780019
:1061a400a085200000004100014878009e80fb008b
:1061b400108520008080400030c0b3008048780003
:1061c400070037009e80fb00100020000100dd0066
:1061d40080c0ea0050c8bf0000c0600050e8b700ab
:1061e4001e4fe80070c0b3009e4f100001ff360040
:1061f4000080fa00000006000800fa00d064800065
:10620400000f78001e0078008000400060892000a4
:106214000080400090007800210798001e0fe900dc
:106224001e0078006f0f60001e00780080004000a0
:1062340060892000008040009000780011079800d9
:10624400ae0090001e00900000805000fd0f500032
:1062540003003e0010002000404288000200370086
:106264000000eb0040428800404280008000eb00c8
:10627400310798000000e00002003a0010002000fe
:10628400300798003e0090000080fa0000000600ed
:106294000200fa00628c200051002000100020004f
:1062a40066140700004f78001e04e00007003a005f
:1062b4000000eb00104688000000eb002046880038
:1062c40010002000f04588007200370075c8bf0038
:1062d4000004e000100032000040eb0075e8b70055
:1062e40010c0b300b6e8b700b8c8bf000004e000af
:1062f4000200320010c0b300b7e8b70010c0b3000a
:10630400b8e8b70010408000d045880010408000f5
:10631400e04588005f003700e0458000c0130700b7
:1063240080007800700c2000808f50001a00360026
:10633400b8c8bf000004e000030032000040eb00d6
:10634400b8e8b700020037000040eb00b6e8b70039
:1063540010408000e0458800c0c8bf000004e00091
:1063640003003200c0c8bf000040e900c0e8b70025
:10637400c0c8bf000004e00046003a000000eb0083
:10638400f04588000040eb0073e8b70040c0b3005c
:10639400c1e8b7003f003700104680000000e0006d
:1063a4000b003200d04580009d130700ec0f500015
:1063b400070036000000eb00104688000000eb00e8
:1063c4002046880010002000f04588003100370086
:1063d400204680000000e0002e003200314680009c
:1063e40080bb2000808f500020003e000000eb00a6
:1063f4002046880073c8bf000004e00013003a0080
:106404007dff07000000e0000d003200c1c8bf009e
:106414000040e900c1e8b700c1c8bf00e14f400037
:106424001c003a0010c0b30073e8b70010c0b300fa
:1064340074e8b70020c0b300c0e8b7001500370007
:1064440040c0b300c1e8b700120037006aff07007c
:106454000000e0000f00320010c0b30073e8b70082
:1064640010c0b30074e8b7000a003700d0458000bc
:106474006b130700ec0f5000060036000000eb0021
:10648400104688000000eb00204688001000200021
:10649400f04588000080fa00000006000000fa00c1
:1064a400e0c2bf0001c8b300014060000004e00086
:1064b4000500320010c0b300c8e8b70090c0b300b4
:1064c400d1e8b7001c003700c8c8bf000004e000d2
:1064d40019003200d1c8bf000040e900d1e8b7007c
:1064e400d1c8bf000004e00013003a000040eb00f4
:1064f400c8e8b700906480004600de0061006000d8
:106504000004e0000c003200c8c8bf008080fb001b
:10651400f0638000808f50000700320080ce2a0094
:10652400801f78004ff807008f87e900c8c8bf00b4
:106534000080fb00f0638800c8c8bf000004e000ce
:1065440005003200d05980000110200001007000c5
:10655400d059880004003700d0598000f1ef2f0093
:1065640001006000d05988000080fa000000060095
:106574000000fa00e1c2bf00614060008080fb00bf
:1065840010688500808f500026003a00114080007a
:1065940070468000808f50004300390090c0b300e3
:1065a400d2e8b700ccc8bf000004e0003e003200cf
:1065b400d3c8bf000040e900d3e8b700d3c8bf0088
:1065c4000004e00013003a000040eb00cce8b70000
:1065d400906480004600de00610060000004e0007a
:1065e4000c003200ccc8bf008080fb000064800037
:1065f400808f50000700320040d02a00801f7800ae
:1066040018f807008f87e900ccc8bf000080fb00a2
:1066140000648800104080007400400070468800c8
:106624002100370090c0b300d3e8b700ccc8bf0046
:106634000004e00019003a00d2c8bf000040e9009d
:10664400d2e8b700d2c8bf000004e00013003a004b
:1066540010c0b300cce8b700906480004600de00b0
:10666400610060000004e0000c003200ccc8bf00f0
:106674008080fb0000648000808f5000070032009f
:10668400e0d12a00801f7800f6f707008f87e90021
:10669400ccc8bf000080fb0000648800104080006c
:1066a4007400400070468800ccc8bf000004e000bd
:1066b40011003200d15980000002200000807000d7
:1066c400d059880038cbbf00e14f500005003a0094
:1066d400d0598000f1ff270001006000d0598800e4
:1066e40015003700d0598000010028000100700017
:1066f400d059880010003700d1598000f0fd2f00d8
:1067040000806000d059880038cbbf00e14f5000b2
:1067140005003a00d05980000100280001007000f3
:10672400d059880004003700d0598000f1ff2700b9
:1067340001006000d05988000080fa0000000600c3
:106744000400fa00906480004200de0061006000f2
:106754000004e00028003200906480004200de0063
:10676400610060000004e0000c00320046c8bf0075
:106774008080fb0020648000808f5000070032007e
:1067840046c8bf000080fb00801f780060d32a0049
:10679400801f7800acf70700e487570046c8bf00a5
:1067a4000080fb0020648800906480004200de00ca
:1067b400610060000004e0000c00320038cbbf0030
:1067c4008080fb0010648000808f5000070032003e
:1067d40038cbbf000080fb00801f780090d42a00d3
:1067e400801f780098f70700e487570038cbbf0074
:1067f4000080fb001064880046c8bf000080fb00d6
:10680400100798001e009000e30f5000f1003200c2
:106814001e009000e30f50000a003c001e00900090
:10682400e10f50001c0032001e009000e10f5000e8
:10683400c0003c001e0090000000e0000e0032008a
:10684400520237001e009000e50f50008c01320008
:106854001e009000e50f50001f0135001e0090003f
:10686400e60f5000b20132001e009000e70f500006
:1068740002023200450237000040eb004ee8b70048
:106884000040eb00b7e8b700f2fc070010c0b3000b
:1068940046e8b70046023700d4c8bf000004e00051
:1068a4000a003200c8c8bf000004e0004002320001
:1068b4000040eb00d4e8b700d1598000f0df2f008e
:1068c40000806000d059880024003700dac8bf0077
:1068d4000004e00021003200c8c8bf000004e0004a
:1068e40002003200dbfc07001c0037004ec8bf006a
:1068f4000004e00003003a00b7c8bf000004e00051
:10690400070032000040eb004ee8b7000040eb0007
:10691400b7e8b70010408000b04688000f00370089
:10692400b04680003e12070080007800f052270035
:10693400808f5000090036000040eb00dae8b70011
:1069440010c0b300d4e8b700d15980000020200063
:1069540000807000d059880015023700f4c8bf00c9
:106964000004e00012023a00f18420009140780013
:1069740072c8bf0080c0600072c8bf0080cf5000e2
:106984000d003a00d159800000ff2f000080600004
:10699400d0598800d0598000a000b300d059880095
:1069a4000040eb0050e8b7007dfc070050c0b30086
:1069b40046e8b700fe013700f184200091407800da
:1069c40072c8bf0000c060008080fb00f0fd2f0093
:1069d400008060000000e00018003200e9c8bf0039
:1069e4000004e00005003a00d05980004a00de00af
:1069f400610060000004e000ed013200d159800024
:106a040000ff2f0000806000d0598800d05980001a
:106a14009000b300d05988000040eb003cebb70075
:106a240010c0b30039ebb70010c0b300dae8b70008
:106a340070c0b30046e8b700dd01370073c8bf007b
:106a44000004e0000d0032000040eb0074e8b700e1
:106a540053fc0700d159800000ff2f000080600024
:106a6400d0598800d05980006000b300d059880004
:106a740020c0b30046e8b700cd013700b6c8bf0058
:106a84000004e00018003200e9c8bf000004e00080
:106a940005003a00d05980004a00de006100600021
:106aa4000004e0001000320010c0b30039ebb7005e
:106ab400d159800000ff2f0000806000d059880069
:106ac400d05980005000b300d05988000040eb003a
:106ad4003cebb70010c0b300dae8b70040c0b30025
:106ae40046e8b700b2013700e9c8bf000004e0007f
:106af400af01320010c0b30039ebb700d1598000a8
:106b040000ff2f0000806000d0598800d059800019
:106b14009000b300d05988000040eb003cebb70074
:106b240010c0b300dae8b70070c0b30046e8b7009d
:106b34009f013700dac8bf000004e0000c003200f7
:106b4400c8c8bf000004e00009003a000040eb00a0
:106b5400dae8b70021fc07001040800050408800ac
:106b640010408000214080007047880081478800e1
:106b740074c8bf000004e000050032000040eb00d0
:106b840074e8b70010408000306488008801370042
:106b940030648000a211070080007800f018200003
:106ba400808f5000820136002afc0700d1598000f2
:106bb400c0ff2f0000806000d0598800d0598000a9
:106bc4000000a000d059880030c0b30046e8b700e8
:106bd40077013700f4c8bf000004e00010003a0059
:106be40073c8bf000004e0000d0032000040eb0059
:106bf40074e8b700eafb0700d1598000c0ff2f00fa
:106c040000806000d0598800d05980000010a00096
:106c1400d059880020c0b30046e8b70064013700ab
:106c2400f4c8bf000004e00014003a00b6c8bf0076
:106c34000004e000110032000040eb003debb7001f
:106c4400e9c8bf000004e00005003a00d059800004
:106c54004a00de00610060000004e00054013200dc
:106c640010c0b30039ebb70010c0b300dae8b700c6
:106c740040c0b30046e8b7004d0137003dcbbf002c
:106c84000004e00005003a0010c0b3003debb7007b
:106c94001040800030648800450137003064800073
:106ca4005f11070080007800703e2000808f500044
:106cb4003f0136000efc070010c0b3003cebb700e8
:106cc400e4fb07000000eb00d059880010c0b300bb
:106cd40046e8b70036013700dac8bf000004e00018
:106ce40014003200c8c8bf000004e00011003a00dc
:106cf4000040eb00dae8b700b8fb07001040800062
:106d04005040880010408000214080007047880077
:106d140081478800d1598000c0ff2f0000806000a7
:106d2400d0598800d05980003000b300d059880071
:106d34001f01370038cbbf000004e0004a003200d6
:106d4400c8c8bf000004e00003003200ebc8bf0065
:106d54000004e00009003200704780008147800091
:106d64003f1107000001be00d0478000e1478000ca
:106d7400800f5100818f590015003900b5fb0700c1
:106d8400d1598000c0ff2f0000806000d0598800d6
:106d9400d05980000000a000d059880080c0b30002
:106da400004f7800070037001e80fb008000e900d8
:106db400108e2000808040000040eb008048780066
:106dc4001e4fe9001e04e000f7ff3a00f800370008
:106dd400b6c8bf000004e0001b003a003dcbbf0072
:106de4000004e00005003a0010c0b3003debb7001a
:106df4001040800030648800ed003700306480006b
:106e04000711070080007800703e2000808f50003a
:106e1400e70036000040eb003debb700b4fb070091
:106e240070c0b30046e8b700d159800030ff2f008e
:106e340000806000d0598800d05980000030a00044
:106e4400d0598800da0037000040eb003debb70072
:106e540050408000f2100700ef0f5000d4003600bd
:106e64005efb0700d2003700ebc8bf000004e0005f
:106e7400cf00320030c0b30046e8b700cc00370082
:106e8400dac8bf000004e0000c003200c8c8bf002c
:106e94000004e00009003a000040eb00dae8b70023
:106ea4004efb0700104080005040880010408000d6
:106eb40021408000704788008147880001852000b8
:106ec4009140780072c8bf0080c0600072c8bf00e3
:106ed40080cf500005003a000040eb0050e8b700b6
:106ee4001040800030648800b100370030648000b6
:106ef400cb10070080007800f0182000808f50002d
:106f0400ab00360053fb0700d1598000c0ff2f00af
:106f140000806000d0598800d05980000000a00093
:106f2400d059880060c0b30046e8b700a00037001d
:106f3400f4c8bf000004e00012003a00f18420000d
:106f44009140780072c8bf0080c0600072c8bf0062
:106f540080cf50000b003a0011fb0700d15980008c
:106f6400c0ff2f0000806000d0598800d0598000f5
:106f74000010a000d059880050c0b30046e8b70004
:106f84008b003700f4c8bf000004e0001a003a0088
:106f9400f18420009140780072c8bf0000c06000f6
:106fa4008080fb00f0fd2f00008060000000e00006
:106fb400110032000040eb003debb700e9c8bf0010
:106fc4000004e00005003a00d05980004a00de00c9
:106fd400610060000004e0007500320010c0b300de
:106fe40039ebb70010c0b300dae8b70070c0b300e3
:106ff40046e8b7006e003700f18420009140780025
:1070040072c8bf0000c060008080fb00f0fd2f004c
:10701400008060000000e00065003a003dcbbf0046
:107024000004e00005003a0010c0b3003debb700d7
:1070340010408000306488005d00370030648000b8
:107044007710070080007800703e2000808f500089
:107054005700360010c0b3003cebb7000040eb0013
:107064003debb70039fb07000000eb00d059880066
:1070740010c0b30046e8b7004d003700dac8bf00bf
:107084000004e00014003200c8c8bf000004e0009f
:1070940011003a000040eb00dae8b700cffa07002d
:1070a4001040800050408800104080002140800043
:1070b4007047880081478800d1598000c0ff2f00a5
:1070c40000806000d0598800d05980003000b3009f
:1070d400d05988003600370038cbbf000004e000e8
:1070e40024003200c8c8bf000004e00003003200de
:1070f400ebc8bf000004e0000900320070478000c4
:1071040081478000561007000001be00d047800070
:10711400e1478000800f5100818f5900240039001d
:10712400ccfa0700d1598000c0ff2f000080600016
:10713400d0598800d05980000000a000d0598800a0
:1071440080c0b300004f7800070037001e80fb00aa
:107154008000e900108e2000808040000040eb0099
:10716400804878001e4fe9001e04e000f7ff3a0053
:107174000f003700ebc8bf000004e0000c00320031
:1071840060c0b30046e8b70009003700b1fa070051
:10719400eefa0700d6fa070010c0b3003cebb700c4
:1071a4000000eb00d059880010c0b30046e8b700d7
:1071b4000080fa0000000600809fbe00821f780055
:1071c4003400f80000002000a00188000000fa004c
:1071d400d06480001240800080004000608920005c
:1071e40000804000020878000000eb001046880090
:1071f40010002000204688008680a9000080fa0044
:107204003400f9004f0178004f00be000040060032
:10721400809fbe00821f78003400f8000000200028
:10722400a00188000000fa00d06480000000e8009b
:10723400d0648800d06480006f006000d06488004f
:10724400d0648000124080008000400060872000ed
:10725400008040000208780010c0b30075e8b70051
:1072640010002000104688000000eb002046880033
:107274008aa0a9000080fa003400f9004f017800c8
:107284004f00be00004006000000fa0000000000ad
:1072940000000000000000000080fa00000006006a
:1072a4001400fa000000eb00500798000000eb0007
:1072b400100798001000200000408800e0cfb300c1
:1072c40052ebb700600c2000303a880080042000a4
:1072d400203a88003200200081072000a009200005
:1072e400337420008149780080497800824978000d
:1072f4001200200061042000700520002374200087
:1073040081497800804978008249780043c7bf00ea
:1073140002c7b3008240600000c3b30080cf5000b6
:10732400faff3a000080eb00600798000300370082
:107334006e0090000000e9006007980042c7bf009b
:107344000042b2000004e00003003a006e00900026
:107354000000e000f6ff3a0003130700c9c2bf00b3
:10736400614060000004a20061406000614160006f
:10737400912c200091407800e0cfb30000c0600061
:1073840002407000c9e2b7000000eb0030638800df
:10739400ae120700f60f0700cbc2a900340f070096
:1073a4004c0f0700670f07007d0f07004007a90077
:1073b4004087a9004027a90040e7a9004006200013
:1073c400b05a88000000eb00400798000f00370017
:1073d4004e009000800040006087200080804000c4
:1073e4000000eb00800878004e0090008000400010
:1073f40060892000808040000000eb008008780055
:107404004e0090000000e800400798004e009000f5
:10741400ef0f5000eeff360020fe2f00b04388002f
:107424000000eb0040428800e10a2000914078000f
:1074340080cfb30000c060005040b300aee0b7009e
:107444009680a8008260a800e10b2000914078009b
:10745400f0c8b30000c0600001c5b3000140700073
:10746400bee0b7009aa0a800410a2000914078002d
:1074740080cfb30000c060000024a000a4e0b700e7
:107484008200a8009400a80019fa07002ffa070048
:107494000040eb0041e8b7000040eb0042e8b700d1
:1074a4000040eb0043e8b7000000eb00e063880015
:1074b400c0122000d06388000002260001002000d2
:1074c4002007980031079800040e07006000b800f8
:1074d400b0638800c16388000080eb00a06388006b
:1074e4000040eb0046e8b7000040eb00ffe8b700bf
:1074f4000040eb0005e9b7000040eb0001e9b700ec
:107504000040eb0000e9b7000000eb00d059880010
:107514000000eb00b05988000040eb0038ebb700e6
:1075240010c0b3003cebb7000040eb003debb700ec
:107534000040eb00c8e8b7000040eb00d4e8b70017
:107544000040eb00dae8b7000040eb00dbe8b700ee
:1075540090c0b300d0e8b70090c0b300d1e8b70042
:10756400c06480000000e0000300320010c0b300db
:1075740044e8b700020037000040eb0044e8b700dd
:107584000040eb0045e8b7000040eb00f4e8b7002a
:107594000040eb00ebe8b7000040eb0039ebb7002c
:1075a4000040eb00e9e8b7000040eb00e0e8b7007a
:1075b4000040eb00eae8b700800020004007980094
:1075c400090037004e0090008000e900108e200072
:1075d400808040000040eb00804878004e0090001e
:1075e4000000e900400798004e0090000000e00011
:1075f400f4ff3a0000e82e0061032000d047880021
:10760400e14788006000b8001040880021408800ed
:107614006000b8003040880041408800104080007d
:10762400e0468800e046800075004000f04688008f
:10763400104080009059880090598000401fb0008d
:10764400a059880010408000005a8800005a800029
:1076540070004000105a880012120700cd0a07007b
:10766400080b070097c0a80000003700f7110700b7
:1076740032c2bf00624060000004e000010032003a
:107684003222a90011418000f00f2000808f5000a9
:1076940004003a000000eb00104188000dc8bf0050
:1076a40007020700e0638000dd0e07008000780019
:1076b400803e2000808f5000020036001040800081
:1076c400e063880040c7bf00704060000004e00031
:1076d400010032004087a90040c7bf00624060003b
:1076e4000004e000010032004027a90038cbbf00ad
:1076f4000004e0000700320050408000c80e07007c
:10770400ef0f50000300360034f9070010408000ea
:10771400504088001140800030408000808f50002d
:10772400300032009cf9070046c8bf00e24f500009
:107734000400320046c8bf00e34f5000010032008d
:107744009cf9070046c8bf00e54f50000400320012
:1077540046c8bf00e64f500001003200ccfa0700d3
:10776400f1468000e0468000808f50000800390018
:1077740011408000f0468000808f500010003100de
:1077840011408000e0468000808f50000c003900da
:10779400f1468000e0468000808f50000f003100e9
:1077a40011408000f0468000808f50000b003900ab
:1077b40011408000e0468000808f500007003100b7
:1077c40036fb07006afb070010408000e046880093
:1077d400e046800077004000f046880010408000ba
:1077e40030408800a159800090598000808f50005b
:1077f4000800390011408000a0598000808f50009b
:10780400100031001140800090598000808f50009a
:107814000c003900a159800090598000808f5000dd
:107824003e00310011408000a0598000808f50003c
:107834003a0039001140800090598000808f500038
:1078440036003100d0c2bf000080fb004400de00df
:10785400614060000004a20061406000614060007b
:107864004401dd00012d200091407800f0ceb300ea
:1078740000c0600002407000d0e2b70010408000f9
:107884009059880010408000a0598800f4c8bf00b7
:107894000004e00009003a00d4c8bf000004e0007e
:1078a40006003a0041c8bf000004e00003003a00ab
:1078b40000c9bf000004e00004003200a0598000a9
:1078c400e003b000a05988001400370039cbbf0092
:1078d4000004e0000700320038cbbf000004e000e1
:1078e40004003200a0598000d007b000a0598800dd
:1078f4000a00370038cbbf000004e0000400320067
:10790400a0598000a00fb000a059880003003700e0
:10791400a0598000401fb000a0598800f4c8bf00df
:107924000004e00009003a00d4c8bf000004e000ed
:1079340006003a0041c8bf000004e00003003a001a
:1079440000c9bf000004e0000600320010408000bf
:10795400005a8800005a800070004000105a8800c5
:1079640028003700115a8000005a8000808f500090
:107974000800390011408000105a8000808f5000a8
:107984001000310011408000005a8000808f5000a8
:107994000c003900115a8000005a8000808f50007a
:1079a4001800310011408000105a8000808f500070
:1079b4001400390011408000005a8000808f50006c
:1079c40010003100c9c2bf00614060000004a20081
:1079d4006140600061416000912c2000914078007a
:1079e400e0cfb30000c0600002407000c9e2b700fd
:1079f400105a8000005a8800105a8000700040001d
:107a0400105a880001c9bf000004e00005003200dc
:107a14004bfb0700a10507000040eb00f40707003b
:107a240013003700d01680007c006000f40f500073
:107a34000f003a00d70807000040eb00e0e8b70069
:107a440060c0b300eae8b70050c0b300f8e8b7007c
:107a54000040eb00f9e8b700a0c0b300f2e8b700bb
:107a6400104080006047880010c0b300e0070700a2
:107a740038cbbf000004e00002013a00e06380005c
:107a8400e70d070080007800803e2000808f5000c2
:107a9400fc003600d06380000000e800d06388005a
:107aa400d1638000c0122000808f5000f5003600a2
:107ab4009e019000130f98001e089000e10f5000e3
:107ac4003b0032001e099000e10f510004003c000d
:107ad4009e0990000300e00008003200e90037002e
:107ae4001e089000e20f50005e0032001e09900054
:107af400e30f51008d003200e2003700c9c2bf001d
:107b0400614060000004a2006140600061416000c7
:107b1400912c200091407800e0cfb30000c06000b9
:107b240002407000c9e2b700105a8000005a880071
:107b3400105a800070004000105a880042c0bf00f4
:107b44000080fb004500de000080fb00000f780091
:107b5400210420009140780000ceb30000c07000e2
:107b640042e0b700b00e07000000e000030032005e
:107b74000040eb0043e8b7000200370010c0b30038
:107b840043e8b7001e00780067406000c500dd00d0
:107b940042c0bf007f4060000140700042e0b70077
:107ba4001e0090000000e80010079800b5003700a0
:107bb400c9c2bf00614060000004a20061406000cf
:107bc40061416000912c200091407800e0cfb30027
:107bd40000c0600002407000c9e2b700105a800083
:107be400005a8800105a800070004000105a880023
:107bf40042c0bf000080fb004500de000080fb00a7
:107c0400000f7800210420009140780000ceb300da
:107c140000c0700042e0b700b11007000000e000af
:107c2400030032000040eb0042e8b70002003700d6
:107c340010c0b30042e8b7001e007800674060003f
:107c4400c500dd0042c0bf007f40600001407000fd
:107c540042e0b7001e0090000000e8001007980002
:107c640088003700c9c2bf00614060000004a20060
:107c74006140600061416000912c200091407800d7
:107c8400e0cfb30000c0600002407000c9e2b7005a
:107c9400105a8000005a8800105a8000700040007a
:107ca400105a880042c0bf000080fb004500de007f
:107cb4000080fb00000f78000040eb0045e8b700af
:107cc4001e00780067406000c500dd0042c0bf00b0
:107cd4007f4060000140700042e0b7001e00900049
:107ce4000000e80010079800c9c2bf0061406000ae
:107cf4000004a2006140600061416000912c2000fa
:107d040091407800e0cfb30000c0600002407000f2
:107d1400c9e2b700105a8000005a8800105a800047
:107d240070004000105a880056003700c9c2bf00d6
:107d3400614060000004a200614060006141600095
:107d4400912c200091407800e0cfb30000c0600087
:107d540002407000c9e2b700105a8000005a88003f
:107d6400105a800070004000105a88002e019000c4
:107d7400be01900000002f00f1ff2f00020140001f
:107d840083814800b0638000c1638000800f51008c
:107d9400818f590010003600a2638000b063800018
:107da400c16380008201780002002100dc03070027
:107db400a0638800b2638000c363800000002100d8
:107dc400010020000200400083804800b063880066
:107dd400c16388002b003700a36380002e0190004c
:107de400b0638000c1638000000051000001e8001e
:107df400b0638000c1638000c9030700a0638800ea
:107e0400a0638000e04188006e0147001400200058
:107e14003300200000bf2a0021002000d4f0070016
:107e24007e009000f0418800fe009000a063800076
:107e3400808f500005003200d5c2bf0001c8b300d6
:107e4400014060000004e00003003a000040eb0041
:107e540041e8b7000200370010c0b30041e8b700a2
:107e64006000b800b0638800c16388000080eb0044
:107e7400a06388000000eb00d06388000000eb00e2
:107e840010079800400207002b030700d159800017
:107e94005e009000810f5000f4fd3200d059800044
:107ea400801f780060da2a00801f7800e6f107005e
:107eb400e4875700d359800053079800ebfd37003f
:107ec4000600fa00204798000000eb00000f78003d
:107ed400060037009e0078008082200080804000e9
:107ee4000040eb00804878001e0fe80030012000bd
:107ef4009e0f1000f7ff36002e4090000080fb001c
:107f0400200798002e009000f20f5000220032004b
:107f14002e009000f30f50002e0032002e0090002f
:107f2400f00f5000010032003c003700b0c0b30035
:107f340028e8b7002e40900029e8b700f4c8bf0035
:107f44002ae8b700d4c8bf002be8b70041c8bf0077
:107f54002ce8b700b05980002de8b70044c8bf0032
:107f64002ee8b70043c8bf002fe8b70042c8bf00df
:107f740030e8b70045c8bf0031e8b70028c8bf00e3
:107f84000040e9008040780080822000f40307006c
:107f940032e8b7002b00370050c0b30028e8b70020
:107fa4002e40900029e8b700c0c0b3002ae8b7000b
:107fb40060c1b3002be8b70028c8bf000040e90047
:107fc4008040780080822000e50307002ce8b70099
:107fd4001c003700eac8bf00e54f5000040032001f
:107fe40030c0b300eae8b70010c0b300e9e8b70056
:107ff40030c0b30028e8b7002e40900029e8b7004d
:1080040028c8bf000040e90080407800808220003a
:10801400d30307002ae8b7000a00370030c0b300d2
:1080240028e8b7002e40900029e8b70028c8bf0010
:108034000040e9008040780080822000c8030700e7
:108044002ae8b70080822000ae0807000080fa000a
:10805400000006000200fa0060002000d05a8800e8
:108064000040eb0058ebb7000040eb0066ebb700b4
:1080740020b72000405b880010408000505b8800df
:108084000040eb006cebb70030bc2000705b880054
:1080940006c9bf000080fb0080004000009c2a004d
:1080a4000080400010007800f05a880030bc2000a6
:1080b400000f7800040037009e0078000040eb00b9
:1080c400804878001e0fe80030c120009e0f100089
:1080d400f9ff390020b72000000f780004003700b2
:1080e4009e0078000040eb00804878001e0fe800f6
:1080f40020bc20009e0f1000f9ff39000080fa0018
:10810400000006000400fa00000f780050cbbf0006
:108114000040e90050ebb70050cbbf00e14f4000f6
:108124000900320062648000924078001e007800ea
:10813400014878000200e800606488000000eb0059
:108144001007980002003700400020001007980034
:108154001e0090000080fa00000006000800fa00eb
:10816400200798000e00e800e6ff0700004f7800a3
:108174001e04e000030032001e80fb00300798005c
:10818400190037000e80e800deff0700004f78007a
:108194001e04e000030032001e80fb00300798003c
:1081a400110037001e4090008080fb002e009000dc
:1081b400010878002e00900010007800c800dd004f
:1081c4002e009000010878009e4090002e40900000
:1081d40000c070008080fb002e0090000108780031
:1081e4000000eb00300798003e0090000080fa0089
:1081f400000006000400fa00004f780051cbbf00d5
:108204000040e80051ebb70011b520009140780020
:10821400e0c4b30080cf50000300360040002000cb
:108224001007980006003700706480001e4878002c
:108234000000e800706488000000eb00100798005c
:108244001e0090000080fa00000006000600fa00fc
:10825400100798001e0090004800de00e5ff0700ac
:10826400004f78001e04e000030032001e80fb0073
:10827400200798000a0037001e009000ddff070069
:10828400004f78001e04e000030032001e80fb0053
:1082940020079800020037000000eb002007980038
:1082a4002e0090000080fa00000006000800fa008a
:1082b40020479800210798000d0037002e009000f9
:1082c400904078002e0090000000e80020079800fd
:1082d40001407800c7ff0700004f78001e04e0004b
:1082e400030032001e80fb003007980008003700ae
:1082f4002e4090000040e900204798002e40900056
:10830400e14f4000edff3a000000eb003007980019
:108314003e0090000080fa00000006000000fa0011
:1083240033080700000820000080fa00000006005f
:108334001000fa004047980031079800420798005f
:10834400530798004e40900000c0e90050ebb7007e
:108354003e009000606488000040eb0051ebb700e1
:10836400de009000716488000e00e80065ff0700dd
:10837400004f78001e04e0000300320000082000d3
:1083840070079800fd0037001e40900099ff070019
:10839400004f78001e04e0000300320001082000b2
:1083a40071079800f50037000e00e80055ff07003c
:1083b400004f78001e04e000030032000008200093
:1083c40070079800ed0037001e4090000004e000a4
:1083d4006a003d001e4090000080fb004600de0065
:1083e400610060000004e000030032000108200086
